{
	"server/contracts/UserProfile.sol": {
		"UserProfile": {
			"abi": [
				{
					"anonymous": false,
					"inputs": [
						{
							"indexed": false,
							"internalType": "address",
							"name": "user",
							"type": "address"
						},
						{
							"indexed": false,
							"internalType": "string",
							"name": "username",
							"type": "string"
						},
						{
							"indexed": false,
							"internalType": "string",
							"name": "bio",
							"type": "string"
						},
						{
							"indexed": false,
							"internalType": "string",
							"name": "profilePictureURI",
							"type": "string"
						}
					],
					"name": "ProfileCreated",
					"type": "event"
				},
				{
					"anonymous": false,
					"inputs": [
						{
							"indexed": false,
							"internalType": "address",
							"name": "user",
							"type": "address"
						},
						{
							"indexed": false,
							"internalType": "string",
							"name": "username",
							"type": "string"
						},
						{
							"indexed": false,
							"internalType": "string",
							"name": "bio",
							"type": "string"
						},
						{
							"indexed": false,
							"internalType": "string",
							"name": "profilePictureURI",
							"type": "string"
						}
					],
					"name": "ProfileUpdated",
					"type": "event"
				},
				{
					"inputs": [
						{
							"internalType": "string",
							"name": "username",
							"type": "string"
						},
						{
							"internalType": "string",
							"name": "bio",
							"type": "string"
						},
						{
							"internalType": "string",
							"name": "profilePictureURI",
							"type": "string"
						}
					],
					"name": "createNewProfile",
					"outputs": [],
					"stateMutability": "nonpayable",
					"type": "function"
				},
				{
					"inputs": [
						{
							"internalType": "string",
							"name": "username",
							"type": "string"
						},
						{
							"internalType": "string",
							"name": "bio",
							"type": "string"
						},
						{
							"internalType": "string",
							"name": "profilePictureURI",
							"type": "string"
						}
					],
					"name": "editProfile",
					"outputs": [],
					"stateMutability": "nonpayable",
					"type": "function"
				},
				{
					"inputs": [],
					"name": "getAllUsersAddrs",
					"outputs": [
						{
							"internalType": "address[]",
							"name": "",
							"type": "address[]"
						}
					],
					"stateMutability": "view",
					"type": "function"
				},
				{
					"inputs": [
						{
							"internalType": "address",
							"name": "user",
							"type": "address"
						}
					],
					"name": "getProfile",
					"outputs": [
						{
							"components": [
								{
									"internalType": "string",
									"name": "username",
									"type": "string"
								},
								{
									"internalType": "string",
									"name": "bio",
									"type": "string"
								},
								{
									"internalType": "string",
									"name": "profilePictureURI",
									"type": "string"
								}
							],
							"internalType": "struct UserProfile.Profile",
							"name": "",
							"type": "tuple"
						}
					],
					"stateMutability": "view",
					"type": "function"
				}
			],
			"devdoc": {
				"kind": "dev",
				"methods": {},
				"version": 1
			},
			"evm": {
				"assembly": "    /* \"server/contracts/UserProfile.sol\":58:2188  contract UserProfile {... */\n  mstore(0x40, 0x80)\n  callvalue\n  dup1\n  iszero\n  tag_1\n  jumpi\n  revert(0x00, 0x00)\ntag_1:\n  pop\n  dataSize(sub_0)\n  dup1\n  dataOffset(sub_0)\n  0x00\n  codecopy\n  0x00\n  return\nstop\n\nsub_0: assembly {\n        /* \"server/contracts/UserProfile.sol\":58:2188  contract UserProfile {... */\n      mstore(0x40, 0x80)\n      callvalue\n      dup1\n      iszero\n      tag_1\n      jumpi\n      revert(0x00, 0x00)\n    tag_1:\n      pop\n      jumpi(tag_2, lt(calldatasize, 0x04))\n      shr(0xe0, calldataload(0x00))\n      dup1\n      0x0f53a470\n      eq\n      tag_3\n      jumpi\n      dup1\n      0x1ebd72ed\n      eq\n      tag_4\n      jumpi\n      dup1\n      0x336b4540\n      eq\n      tag_5\n      jumpi\n      dup1\n      0x8747e97b\n      eq\n      tag_6\n      jumpi\n    tag_2:\n      revert(0x00, 0x00)\n        /* \"server/contracts/UserProfile.sol\":1160:1268  function getProfile(address user) public view returns (Profile memory){... */\n    tag_3:\n      tag_7\n      0x04\n      dup1\n      calldatasize\n      sub\n      dup2\n      add\n      swap1\n      tag_8\n      swap2\n      swap1\n      tag_9\n      jump\t// in\n    tag_8:\n      tag_10\n      jump\t// in\n    tag_7:\n      mload(0x40)\n      tag_11\n      swap2\n      swap1\n      tag_12\n      jump\t// in\n    tag_11:\n      mload(0x40)\n      dup1\n      swap2\n      sub\n      swap1\n      return\n        /* \"server/contracts/UserProfile.sol\":1788:2185  function editProfile (string memory username, string memory bio, string memory profilePictureURI... */\n    tag_4:\n      tag_13\n      0x04\n      dup1\n      calldatasize\n      sub\n      dup2\n      add\n      swap1\n      tag_14\n      swap2\n      swap1\n      tag_15\n      jump\t// in\n    tag_14:\n      tag_16\n      jump\t// in\n    tag_13:\n      stop\n        /* \"server/contracts/UserProfile.sol\":1275:1379  function getAllUsersAddrs() public view returns ( address[] memory){... */\n    tag_5:\n      tag_17\n      tag_18\n      jump\t// in\n    tag_17:\n      mload(0x40)\n      tag_19\n      swap2\n      swap1\n      tag_20\n      jump\t// in\n    tag_19:\n      mload(0x40)\n      dup1\n      swap2\n      sub\n      swap1\n      return\n        /* \"server/contracts/UserProfile.sol\":1385:1782  function createNewProfile(string memory username, string memory bio, string memory profilePictureURI... */\n    tag_6:\n      tag_21\n      0x04\n      dup1\n      calldatasize\n      sub\n      dup2\n      add\n      swap1\n      tag_22\n      swap2\n      swap1\n      tag_15\n      jump\t// in\n    tag_22:\n      tag_23\n      jump\t// in\n    tag_21:\n      stop\n        /* \"server/contracts/UserProfile.sol\":1160:1268  function getProfile(address user) public view returns (Profile memory){... */\n    tag_10:\n        /* \"server/contracts/UserProfile.sol\":1215:1229  Profile memory */\n      tag_24\n      tag_25\n      jump\t// in\n    tag_24:\n        /* \"server/contracts/UserProfile.sol\":1247:1255  profiles */\n      0x00\n        /* \"server/contracts/UserProfile.sol\":1247:1261  profiles[user] */\n      0x00\n        /* \"server/contracts/UserProfile.sol\":1256:1260  user */\n      dup4\n        /* \"server/contracts/UserProfile.sol\":1247:1261  profiles[user] */\n      0xffffffffffffffffffffffffffffffffffffffff\n      and\n      0xffffffffffffffffffffffffffffffffffffffff\n      and\n      dup2\n      mstore\n      0x20\n      add\n      swap1\n      dup2\n      mstore\n      0x20\n      add\n      0x00\n      keccak256\n        /* \"server/contracts/UserProfile.sol\":1240:1261  return profiles[user] */\n      mload(0x40)\n      dup1\n      0x60\n      add\n      0x40\n      mstore\n      swap1\n      dup2\n      0x00\n      dup3\n      add\n      dup1\n      sload\n      tag_27\n      swap1\n      tag_28\n      jump\t// in\n    tag_27:\n      dup1\n      0x1f\n      add\n      0x20\n      dup1\n      swap2\n      div\n      mul\n      0x20\n      add\n      mload(0x40)\n      swap1\n      dup2\n      add\n      0x40\n      mstore\n      dup1\n      swap3\n      swap2\n      swap1\n      dup2\n      dup2\n      mstore\n      0x20\n      add\n      dup3\n      dup1\n      sload\n      tag_29\n      swap1\n      tag_28\n      jump\t// in\n    tag_29:\n      dup1\n      iszero\n      tag_30\n      jumpi\n      dup1\n      0x1f\n      lt\n      tag_31\n      jumpi\n      0x0100\n      dup1\n      dup4\n      sload\n      div\n      mul\n      dup4\n      mstore\n      swap2\n      0x20\n      add\n      swap2\n      jump(tag_30)\n    tag_31:\n      dup3\n      add\n      swap2\n      swap1\n      0x00\n      mstore\n      keccak256(0x00, 0x20)\n      swap1\n    tag_32:\n      dup2\n      sload\n      dup2\n      mstore\n      swap1\n      0x01\n      add\n      swap1\n      0x20\n      add\n      dup1\n      dup4\n      gt\n      tag_32\n      jumpi\n      dup3\n      swap1\n      sub\n      0x1f\n      and\n      dup3\n      add\n      swap2\n    tag_30:\n      pop\n      pop\n      pop\n      pop\n      pop\n      dup2\n      mstore\n      0x20\n      add\n      0x01\n      dup3\n      add\n      dup1\n      sload\n      tag_33\n      swap1\n      tag_28\n      jump\t// in\n    tag_33:\n      dup1\n      0x1f\n      add\n      0x20\n      dup1\n      swap2\n      div\n      mul\n      0x20\n      add\n      mload(0x40)\n      swap1\n      dup2\n      add\n      0x40\n      mstore\n      dup1\n      swap3\n      swap2\n      swap1\n      dup2\n      dup2\n      mstore\n      0x20\n      add\n      dup3\n      dup1\n      sload\n      tag_34\n      swap1\n      tag_28\n      jump\t// in\n    tag_34:\n      dup1\n      iszero\n      tag_35\n      jumpi\n      dup1\n      0x1f\n      lt\n      tag_36\n      jumpi\n      0x0100\n      dup1\n      dup4\n      sload\n      div\n      mul\n      dup4\n      mstore\n      swap2\n      0x20\n      add\n      swap2\n      jump(tag_35)\n    tag_36:\n      dup3\n      add\n      swap2\n      swap1\n      0x00\n      mstore\n      keccak256(0x00, 0x20)\n      swap1\n    tag_37:\n      dup2\n      sload\n      dup2\n      mstore\n      swap1\n      0x01\n      add\n      swap1\n      0x20\n      add\n      dup1\n      dup4\n      gt\n      tag_37\n      jumpi\n      dup3\n      swap1\n      sub\n      0x1f\n      and\n      dup3\n      add\n      swap2\n    tag_35:\n      pop\n      pop\n      pop\n      pop\n      pop\n      dup2\n      mstore\n      0x20\n      add\n      0x02\n      dup3\n      add\n      dup1\n      sload\n      tag_38\n      swap1\n      tag_28\n      jump\t// in\n    tag_38:\n      dup1\n      0x1f\n      add\n      0x20\n      dup1\n      swap2\n      div\n      mul\n      0x20\n      add\n      mload(0x40)\n      swap1\n      dup2\n      add\n      0x40\n      mstore\n      dup1\n      swap3\n      swap2\n      swap1\n      dup2\n      dup2\n      mstore\n      0x20\n      add\n      dup3\n      dup1\n      sload\n      tag_39\n      swap1\n      tag_28\n      jump\t// in\n    tag_39:\n      dup1\n      iszero\n      tag_40\n      jumpi\n      dup1\n      0x1f\n      lt\n      tag_41\n      jumpi\n      0x0100\n      dup1\n      dup4\n      sload\n      div\n      mul\n      dup4\n      mstore\n      swap2\n      0x20\n      add\n      swap2\n      jump(tag_40)\n    tag_41:\n      dup3\n      add\n      swap2\n      swap1\n      0x00\n      mstore\n      keccak256(0x00, 0x20)\n      swap1\n    tag_42:\n      dup2\n      sload\n      dup2\n      mstore\n      swap1\n      0x01\n      add\n      swap1\n      0x20\n      add\n      dup1\n      dup4\n      gt\n      tag_42\n      jumpi\n      dup3\n      swap1\n      sub\n      0x1f\n      and\n      dup3\n      add\n      swap2\n    tag_40:\n      pop\n      pop\n      pop\n      pop\n      pop\n      dup2\n      mstore\n      pop\n      pop\n      swap1\n      pop\n        /* \"server/contracts/UserProfile.sol\":1160:1268  function getProfile(address user) public view returns (Profile memory){... */\n      swap2\n      swap1\n      pop\n      jump\t// out\n        /* \"server/contracts/UserProfile.sol\":1788:2185  function editProfile (string memory username, string memory bio, string memory profilePictureURI... */\n    tag_16:\n        /* \"server/contracts/UserProfile.sol\":1911:1919  username */\n      dup3\n        /* \"server/contracts/UserProfile.sol\":1011:1012  0 */\n      0x00\n        /* \"server/contracts/UserProfile.sol\":991:1000  _username */\n      dup2\n        /* \"server/contracts/UserProfile.sol\":985:1008  bytes(_username).length */\n      mload\n        /* \"server/contracts/UserProfile.sol\":985:1012  bytes(_username).length > 0 */\n      gt\n        /* \"server/contracts/UserProfile.sol\":977:1037  require(bytes(_username).length > 0, \"Username is required\") */\n      tag_44\n      jumpi\n      mload(0x40)\n      0x08c379a000000000000000000000000000000000000000000000000000000000\n      dup2\n      mstore\n      0x04\n      add\n      tag_45\n      swap1\n      tag_46\n      jump\t// in\n    tag_45:\n      mload(0x40)\n      dup1\n      swap2\n      sub\n      swap1\n      revert\n    tag_44:\n        /* \"server/contracts/UserProfile.sol\":117:159  0x0000000000000000000000000000000000000000 */\n      0x00\n        /* \"server/contracts/UserProfile.sol\":1055:1090  usernames[_username] == nullAddress */\n      0xffffffffffffffffffffffffffffffffffffffff\n      and\n        /* \"server/contracts/UserProfile.sol\":1055:1064  usernames */\n      0x02\n        /* \"server/contracts/UserProfile.sol\":1065:1074  _username */\n      dup3\n        /* \"server/contracts/UserProfile.sol\":1055:1075  usernames[_username] */\n      mload(0x40)\n      tag_47\n      swap2\n      swap1\n      tag_48\n      jump\t// in\n    tag_47:\n      swap1\n      dup2\n      mstore\n      0x20\n      add\n      mload(0x40)\n      dup1\n      swap2\n      sub\n      swap1\n      keccak256\n      0x00\n      swap1\n      sload\n      swap1\n      0x0100\n      exp\n      swap1\n      div\n      0xffffffffffffffffffffffffffffffffffffffff\n      and\n        /* \"server/contracts/UserProfile.sol\":1055:1090  usernames[_username] == nullAddress */\n      0xffffffffffffffffffffffffffffffffffffffff\n      and\n      eq\n        /* \"server/contracts/UserProfile.sol\":1047:1112  require(usernames[_username] == nullAddress, \"Username is taken\") */\n      tag_49\n      jumpi\n      mload(0x40)\n      0x08c379a000000000000000000000000000000000000000000000000000000000\n      dup2\n      mstore\n      0x04\n      add\n      tag_50\n      swap1\n      tag_51\n      jump\t// in\n    tag_50:\n      mload(0x40)\n      dup1\n      swap2\n      sub\n      swap1\n      revert\n    tag_49:\n        /* \"server/contracts/UserProfile.sol\":117:159  0x0000000000000000000000000000000000000000 */\n      0x00\n        /* \"server/contracts/UserProfile.sol\":1932:1941  usernames */\n      0x02\n        /* \"server/contracts/UserProfile.sol\":1942:1950  profiles */\n      0x00\n        /* \"server/contracts/UserProfile.sol\":1942:1962  profiles[msg.sender] */\n      0x00\n        /* \"server/contracts/UserProfile.sol\":1951:1961  msg.sender */\n      caller\n        /* \"server/contracts/UserProfile.sol\":1942:1962  profiles[msg.sender] */\n      0xffffffffffffffffffffffffffffffffffffffff\n      and\n      0xffffffffffffffffffffffffffffffffffffffff\n      and\n      dup2\n      mstore\n      0x20\n      add\n      swap1\n      dup2\n      mstore\n      0x20\n      add\n      0x00\n      keccak256\n        /* \"server/contracts/UserProfile.sol\":1942:1971  profiles[msg.sender].username */\n      0x00\n      add\n        /* \"server/contracts/UserProfile.sol\":1932:1972  usernames[profiles[msg.sender].username] */\n      mload(0x40)\n      tag_53\n      swap2\n      swap1\n      tag_54\n      jump\t// in\n    tag_53:\n      swap1\n      dup2\n      mstore\n      0x20\n      add\n      mload(0x40)\n      dup1\n      swap2\n      sub\n      swap1\n      keccak256\n      0x00\n        /* \"server/contracts/UserProfile.sol\":1932:1986  usernames[profiles[msg.sender].username] = nullAddress */\n      0x0100\n      exp\n      dup2\n      sload\n      dup2\n      0xffffffffffffffffffffffffffffffffffffffff\n      mul\n      not\n      and\n      swap1\n      dup4\n      0xffffffffffffffffffffffffffffffffffffffff\n      and\n      mul\n      or\n      swap1\n      sstore\n      pop\n        /* \"server/contracts/UserProfile.sol\":2019:2060  Profile(username, bio, profilePictureURI) */\n      mload(0x40)\n      dup1\n      0x60\n      add\n      0x40\n      mstore\n      dup1\n        /* \"server/contracts/UserProfile.sol\":2027:2035  username */\n      dup6\n        /* \"server/contracts/UserProfile.sol\":2019:2060  Profile(username, bio, profilePictureURI) */\n      dup2\n      mstore\n      0x20\n      add\n        /* \"server/contracts/UserProfile.sol\":2037:2040  bio */\n      dup5\n        /* \"server/contracts/UserProfile.sol\":2019:2060  Profile(username, bio, profilePictureURI) */\n      dup2\n      mstore\n      0x20\n      add\n        /* \"server/contracts/UserProfile.sol\":2042:2059  profilePictureURI */\n      dup4\n        /* \"server/contracts/UserProfile.sol\":2019:2060  Profile(username, bio, profilePictureURI) */\n      dup2\n      mstore\n      pop\n        /* \"server/contracts/UserProfile.sol\":1996:2004  profiles */\n      0x00\n        /* \"server/contracts/UserProfile.sol\":1996:2016  profiles[msg.sender] */\n      0x00\n        /* \"server/contracts/UserProfile.sol\":2005:2015  msg.sender */\n      caller\n        /* \"server/contracts/UserProfile.sol\":1996:2016  profiles[msg.sender] */\n      0xffffffffffffffffffffffffffffffffffffffff\n      and\n      0xffffffffffffffffffffffffffffffffffffffff\n      and\n      dup2\n      mstore\n      0x20\n      add\n      swap1\n      dup2\n      mstore\n      0x20\n      add\n      0x00\n      keccak256\n        /* \"server/contracts/UserProfile.sol\":1996:2060  profiles[msg.sender] = Profile(username, bio, profilePictureURI) */\n      0x00\n      dup3\n      add\n      mload\n      dup2\n      0x00\n      add\n      swap1\n      dup2\n      tag_55\n      swap2\n      swap1\n      tag_56\n      jump\t// in\n    tag_55:\n      pop\n      0x20\n      dup3\n      add\n      mload\n      dup2\n      0x01\n      add\n      swap1\n      dup2\n      tag_57\n      swap2\n      swap1\n      tag_56\n      jump\t// in\n    tag_57:\n      pop\n      0x40\n      dup3\n      add\n      mload\n      dup2\n      0x02\n      add\n      swap1\n      dup2\n      tag_58\n      swap2\n      swap1\n      tag_56\n      jump\t// in\n    tag_58:\n      pop\n      swap1\n      pop\n      pop\n        /* \"server/contracts/UserProfile.sol\":2092:2102  msg.sender */\n      caller\n        /* \"server/contracts/UserProfile.sol\":2070:2079  usernames */\n      0x02\n        /* \"server/contracts/UserProfile.sol\":2080:2088  username */\n      dup6\n        /* \"server/contracts/UserProfile.sol\":2070:2089  usernames[username] */\n      mload(0x40)\n      tag_59\n      swap2\n      swap1\n      tag_48\n      jump\t// in\n    tag_59:\n      swap1\n      dup2\n      mstore\n      0x20\n      add\n      mload(0x40)\n      dup1\n      swap2\n      sub\n      swap1\n      keccak256\n      0x00\n        /* \"server/contracts/UserProfile.sol\":2070:2102  usernames[username] = msg.sender */\n      0x0100\n      exp\n      dup2\n      sload\n      dup2\n      0xffffffffffffffffffffffffffffffffffffffff\n      mul\n      not\n      and\n      swap1\n      dup4\n      0xffffffffffffffffffffffffffffffffffffffff\n      and\n      mul\n      or\n      swap1\n      sstore\n      pop\n        /* \"server/contracts/UserProfile.sol\":2118:2178  ProfileUpdated(msg.sender, username, bio, profilePictureURI) */\n      0x6420daf1b58438e85465ef21dee378d307a509caab491149e3f066c5caf1266d\n        /* \"server/contracts/UserProfile.sol\":2133:2143  msg.sender */\n      caller\n        /* \"server/contracts/UserProfile.sol\":2145:2153  username */\n      dup6\n        /* \"server/contracts/UserProfile.sol\":2155:2158  bio */\n      dup6\n        /* \"server/contracts/UserProfile.sol\":2160:2177  profilePictureURI */\n      dup6\n        /* \"server/contracts/UserProfile.sol\":2118:2178  ProfileUpdated(msg.sender, username, bio, profilePictureURI) */\n      mload(0x40)\n      tag_60\n      swap5\n      swap4\n      swap3\n      swap2\n      swap1\n      tag_61\n      jump\t// in\n    tag_60:\n      mload(0x40)\n      dup1\n      swap2\n      sub\n      swap1\n      log1\n        /* \"server/contracts/UserProfile.sol\":1788:2185  function editProfile (string memory username, string memory bio, string memory profilePictureURI... */\n      pop\n      pop\n      pop\n      pop\n      jump\t// out\n        /* \"server/contracts/UserProfile.sol\":1275:1379  function getAllUsersAddrs() public view returns ( address[] memory){... */\n    tag_18:\n        /* \"server/contracts/UserProfile.sol\":1325:1341  address[] memory */\n      0x60\n        /* \"server/contracts/UserProfile.sol\":1359:1372  userAddresses */\n      0x01\n        /* \"server/contracts/UserProfile.sol\":1352:1372  return userAddresses */\n      dup1\n      sload\n      dup1\n      0x20\n      mul\n      0x20\n      add\n      mload(0x40)\n      swap1\n      dup2\n      add\n      0x40\n      mstore\n      dup1\n      swap3\n      swap2\n      swap1\n      dup2\n      dup2\n      mstore\n      0x20\n      add\n      dup3\n      dup1\n      sload\n      dup1\n      iszero\n      tag_63\n      jumpi\n      0x20\n      mul\n      dup3\n      add\n      swap2\n      swap1\n      0x00\n      mstore\n      keccak256(0x00, 0x20)\n      swap1\n    tag_64:\n      dup2\n      0x00\n      swap1\n      sload\n      swap1\n      0x0100\n      exp\n      swap1\n      div\n      0xffffffffffffffffffffffffffffffffffffffff\n      and\n      0xffffffffffffffffffffffffffffffffffffffff\n      and\n      dup2\n      mstore\n      0x20\n      add\n      swap1\n      0x01\n      add\n      swap1\n      dup1\n      dup4\n      gt\n      tag_64\n      jumpi\n    tag_63:\n      pop\n      pop\n      pop\n      pop\n      pop\n      swap1\n      pop\n        /* \"server/contracts/UserProfile.sol\":1275:1379  function getAllUsersAddrs() public view returns ( address[] memory){... */\n      swap1\n      jump\t// out\n        /* \"server/contracts/UserProfile.sol\":1385:1782  function createNewProfile(string memory username, string memory bio, string memory profilePictureURI... */\n    tag_23:\n        /* \"server/contracts/UserProfile.sol\":831:832  0 */\n      0x00\n        /* \"server/contracts/UserProfile.sol\":790:798  profiles */\n      0x00\n        /* \"server/contracts/UserProfile.sol\":790:810  profiles[msg.sender] */\n      0x00\n        /* \"server/contracts/UserProfile.sol\":799:809  msg.sender */\n      caller\n        /* \"server/contracts/UserProfile.sol\":790:810  profiles[msg.sender] */\n      0xffffffffffffffffffffffffffffffffffffffff\n      and\n      0xffffffffffffffffffffffffffffffffffffffff\n      and\n      dup2\n      mstore\n      0x20\n      add\n      swap1\n      dup2\n      mstore\n      0x20\n      add\n      0x00\n      keccak256\n        /* \"server/contracts/UserProfile.sol\":790:819  profiles[msg.sender].username */\n      0x00\n      add\n        /* \"server/contracts/UserProfile.sol\":784:827  bytes(profiles[msg.sender].username).length */\n      dup1\n      sload\n      tag_66\n      swap1\n      tag_28\n      jump\t// in\n    tag_66:\n      swap1\n      pop\n        /* \"server/contracts/UserProfile.sol\":784:832  bytes(profiles[msg.sender].username).length == 0 */\n      eq\n        /* \"server/contracts/UserProfile.sol\":763:897  require(... */\n      tag_67\n      jumpi\n      mload(0x40)\n      0x08c379a000000000000000000000000000000000000000000000000000000000\n      dup2\n      mstore\n      0x04\n      add\n      tag_68\n      swap1\n      tag_69\n      jump\t// in\n    tag_68:\n      mload(0x40)\n      dup1\n      swap2\n      sub\n      swap1\n      revert\n    tag_67:\n        /* \"server/contracts/UserProfile.sol\":1532:1540  username */\n      dup3\n        /* \"server/contracts/UserProfile.sol\":1011:1012  0 */\n      0x00\n        /* \"server/contracts/UserProfile.sol\":991:1000  _username */\n      dup2\n        /* \"server/contracts/UserProfile.sol\":985:1008  bytes(_username).length */\n      mload\n        /* \"server/contracts/UserProfile.sol\":985:1012  bytes(_username).length > 0 */\n      gt\n        /* \"server/contracts/UserProfile.sol\":977:1037  require(bytes(_username).length > 0, \"Username is required\") */\n      tag_71\n      jumpi\n      mload(0x40)\n      0x08c379a000000000000000000000000000000000000000000000000000000000\n      dup2\n      mstore\n      0x04\n      add\n      tag_72\n      swap1\n      tag_46\n      jump\t// in\n    tag_72:\n      mload(0x40)\n      dup1\n      swap2\n      sub\n      swap1\n      revert\n    tag_71:\n        /* \"server/contracts/UserProfile.sol\":117:159  0x0000000000000000000000000000000000000000 */\n      0x00\n        /* \"server/contracts/UserProfile.sol\":1055:1090  usernames[_username] == nullAddress */\n      0xffffffffffffffffffffffffffffffffffffffff\n      and\n        /* \"server/contracts/UserProfile.sol\":1055:1064  usernames */\n      0x02\n        /* \"server/contracts/UserProfile.sol\":1065:1074  _username */\n      dup3\n        /* \"server/contracts/UserProfile.sol\":1055:1075  usernames[_username] */\n      mload(0x40)\n      tag_73\n      swap2\n      swap1\n      tag_48\n      jump\t// in\n    tag_73:\n      swap1\n      dup2\n      mstore\n      0x20\n      add\n      mload(0x40)\n      dup1\n      swap2\n      sub\n      swap1\n      keccak256\n      0x00\n      swap1\n      sload\n      swap1\n      0x0100\n      exp\n      swap1\n      div\n      0xffffffffffffffffffffffffffffffffffffffff\n      and\n        /* \"server/contracts/UserProfile.sol\":1055:1090  usernames[_username] == nullAddress */\n      0xffffffffffffffffffffffffffffffffffffffff\n      and\n      eq\n        /* \"server/contracts/UserProfile.sol\":1047:1112  require(usernames[_username] == nullAddress, \"Username is taken\") */\n      tag_74\n      jumpi\n      mload(0x40)\n      0x08c379a000000000000000000000000000000000000000000000000000000000\n      dup2\n      mstore\n      0x04\n      add\n      tag_75\n      swap1\n      tag_51\n      jump\t// in\n    tag_75:\n      mload(0x40)\n      dup1\n      swap2\n      sub\n      swap1\n      revert\n    tag_74:\n        /* \"server/contracts/UserProfile.sol\":1576:1617  Profile(username, bio, profilePictureURI) */\n      mload(0x40)\n      dup1\n      0x60\n      add\n      0x40\n      mstore\n      dup1\n        /* \"server/contracts/UserProfile.sol\":1584:1592  username */\n      dup6\n        /* \"server/contracts/UserProfile.sol\":1576:1617  Profile(username, bio, profilePictureURI) */\n      dup2\n      mstore\n      0x20\n      add\n        /* \"server/contracts/UserProfile.sol\":1594:1597  bio */\n      dup5\n        /* \"server/contracts/UserProfile.sol\":1576:1617  Profile(username, bio, profilePictureURI) */\n      dup2\n      mstore\n      0x20\n      add\n        /* \"server/contracts/UserProfile.sol\":1599:1616  profilePictureURI */\n      dup4\n        /* \"server/contracts/UserProfile.sol\":1576:1617  Profile(username, bio, profilePictureURI) */\n      dup2\n      mstore\n      pop\n        /* \"server/contracts/UserProfile.sol\":1553:1561  profiles */\n      0x00\n        /* \"server/contracts/UserProfile.sol\":1553:1573  profiles[msg.sender] */\n      0x00\n        /* \"server/contracts/UserProfile.sol\":1562:1572  msg.sender */\n      caller\n        /* \"server/contracts/UserProfile.sol\":1553:1573  profiles[msg.sender] */\n      0xffffffffffffffffffffffffffffffffffffffff\n      and\n      0xffffffffffffffffffffffffffffffffffffffff\n      and\n      dup2\n      mstore\n      0x20\n      add\n      swap1\n      dup2\n      mstore\n      0x20\n      add\n      0x00\n      keccak256\n        /* \"server/contracts/UserProfile.sol\":1553:1617  profiles[msg.sender] = Profile(username, bio, profilePictureURI) */\n      0x00\n      dup3\n      add\n      mload\n      dup2\n      0x00\n      add\n      swap1\n      dup2\n      tag_77\n      swap2\n      swap1\n      tag_56\n      jump\t// in\n    tag_77:\n      pop\n      0x20\n      dup3\n      add\n      mload\n      dup2\n      0x01\n      add\n      swap1\n      dup2\n      tag_78\n      swap2\n      swap1\n      tag_56\n      jump\t// in\n    tag_78:\n      pop\n      0x40\n      dup3\n      add\n      mload\n      dup2\n      0x02\n      add\n      swap1\n      dup2\n      tag_79\n      swap2\n      swap1\n      tag_56\n      jump\t// in\n    tag_79:\n      pop\n      swap1\n      pop\n      pop\n        /* \"server/contracts/UserProfile.sol\":1627:1640  userAddresses */\n      0x01\n        /* \"server/contracts/UserProfile.sol\":1646:1656  msg.sender */\n      caller\n        /* \"server/contracts/UserProfile.sol\":1627:1657  userAddresses.push(msg.sender) */\n      swap1\n      dup1\n      0x01\n      dup2\n      sload\n      add\n      dup1\n      dup3\n      sstore\n      dup1\n      swap2\n      pop\n      pop\n      0x01\n      swap1\n      sub\n      swap1\n      0x00\n      mstore\n      keccak256(0x00, 0x20)\n      add\n      0x00\n      swap1\n      swap2\n      swap1\n      swap2\n      swap1\n      swap2\n      0x0100\n      exp\n      dup2\n      sload\n      dup2\n      0xffffffffffffffffffffffffffffffffffffffff\n      mul\n      not\n      and\n      swap1\n      dup4\n      0xffffffffffffffffffffffffffffffffffffffff\n      and\n      mul\n      or\n      swap1\n      sstore\n      pop\n        /* \"server/contracts/UserProfile.sol\":1689:1699  msg.sender */\n      caller\n        /* \"server/contracts/UserProfile.sol\":1667:1676  usernames */\n      0x02\n        /* \"server/contracts/UserProfile.sol\":1677:1685  username */\n      dup6\n        /* \"server/contracts/UserProfile.sol\":1667:1686  usernames[username] */\n      mload(0x40)\n      tag_81\n      swap2\n      swap1\n      tag_48\n      jump\t// in\n    tag_81:\n      swap1\n      dup2\n      mstore\n      0x20\n      add\n      mload(0x40)\n      dup1\n      swap2\n      sub\n      swap1\n      keccak256\n      0x00\n        /* \"server/contracts/UserProfile.sol\":1667:1699  usernames[username] = msg.sender */\n      0x0100\n      exp\n      dup2\n      sload\n      dup2\n      0xffffffffffffffffffffffffffffffffffffffff\n      mul\n      not\n      and\n      swap1\n      dup4\n      0xffffffffffffffffffffffffffffffffffffffff\n      and\n      mul\n      or\n      swap1\n      sstore\n      pop\n        /* \"server/contracts/UserProfile.sol\":1715:1775  ProfileCreated(msg.sender, username, bio, profilePictureURI) */\n      0x77c378673324822ad159b021c3ce202d7676946ff3967162024b660a493e64b3\n        /* \"server/contracts/UserProfile.sol\":1730:1740  msg.sender */\n      caller\n        /* \"server/contracts/UserProfile.sol\":1742:1750  username */\n      dup6\n        /* \"server/contracts/UserProfile.sol\":1752:1755  bio */\n      dup6\n        /* \"server/contracts/UserProfile.sol\":1757:1774  profilePictureURI */\n      dup6\n        /* \"server/contracts/UserProfile.sol\":1715:1775  ProfileCreated(msg.sender, username, bio, profilePictureURI) */\n      mload(0x40)\n      tag_82\n      swap5\n      swap4\n      swap3\n      swap2\n      swap1\n      tag_61\n      jump\t// in\n    tag_82:\n      mload(0x40)\n      dup1\n      swap2\n      sub\n      swap1\n      log1\n        /* \"server/contracts/UserProfile.sol\":907:908  _ */\n      pop\n        /* \"server/contracts/UserProfile.sol\":1385:1782  function createNewProfile(string memory username, string memory bio, string memory profilePictureURI... */\n      pop\n      pop\n      pop\n      jump\t// out\n    tag_25:\n      mload(0x40)\n      dup1\n      0x60\n      add\n      0x40\n      mstore\n      dup1\n      0x60\n      dup2\n      mstore\n      0x20\n      add\n      0x60\n      dup2\n      mstore\n      0x20\n      add\n      0x60\n      dup2\n      mstore\n      pop\n      swap1\n      jump\t// out\n        /* \"#utility.yul\":7:82   */\n    tag_83:\n        /* \"#utility.yul\":40:46   */\n      0x00\n        /* \"#utility.yul\":73:75   */\n      0x40\n        /* \"#utility.yul\":67:76   */\n      mload\n        /* \"#utility.yul\":57:76   */\n      swap1\n      pop\n        /* \"#utility.yul\":7:82   */\n      swap1\n      jump\t// out\n        /* \"#utility.yul\":88:205   */\n    tag_84:\n        /* \"#utility.yul\":197:198   */\n      0x00\n        /* \"#utility.yul\":194:195   */\n      0x00\n        /* \"#utility.yul\":187:199   */\n      revert\n        /* \"#utility.yul\":211:328   */\n    tag_85:\n        /* \"#utility.yul\":320:321   */\n      0x00\n        /* \"#utility.yul\":317:318   */\n      0x00\n        /* \"#utility.yul\":310:322   */\n      revert\n        /* \"#utility.yul\":334:460   */\n    tag_86:\n        /* \"#utility.yul\":371:378   */\n      0x00\n        /* \"#utility.yul\":411:453   */\n      0xffffffffffffffffffffffffffffffffffffffff\n        /* \"#utility.yul\":404:409   */\n      dup3\n        /* \"#utility.yul\":400:454   */\n      and\n        /* \"#utility.yul\":389:454   */\n      swap1\n      pop\n        /* \"#utility.yul\":334:460   */\n      swap2\n      swap1\n      pop\n      jump\t// out\n        /* \"#utility.yul\":466:562   */\n    tag_87:\n        /* \"#utility.yul\":503:510   */\n      0x00\n        /* \"#utility.yul\":532:556   */\n      tag_147\n        /* \"#utility.yul\":550:555   */\n      dup3\n        /* \"#utility.yul\":532:556   */\n      tag_86\n      jump\t// in\n    tag_147:\n        /* \"#utility.yul\":521:556   */\n      swap1\n      pop\n        /* \"#utility.yul\":466:562   */\n      swap2\n      swap1\n      pop\n      jump\t// out\n        /* \"#utility.yul\":568:690   */\n    tag_88:\n        /* \"#utility.yul\":641:665   */\n      tag_149\n        /* \"#utility.yul\":659:664   */\n      dup2\n        /* \"#utility.yul\":641:665   */\n      tag_87\n      jump\t// in\n    tag_149:\n        /* \"#utility.yul\":634:639   */\n      dup2\n        /* \"#utility.yul\":631:666   */\n      eq\n        /* \"#utility.yul\":621:684   */\n      tag_150\n      jumpi\n        /* \"#utility.yul\":680:681   */\n      0x00\n        /* \"#utility.yul\":677:678   */\n      0x00\n        /* \"#utility.yul\":670:682   */\n      revert\n        /* \"#utility.yul\":621:684   */\n    tag_150:\n        /* \"#utility.yul\":568:690   */\n      pop\n      jump\t// out\n        /* \"#utility.yul\":696:835   */\n    tag_89:\n        /* \"#utility.yul\":742:747   */\n      0x00\n        /* \"#utility.yul\":780:786   */\n      dup2\n        /* \"#utility.yul\":767:787   */\n      calldataload\n        /* \"#utility.yul\":758:787   */\n      swap1\n      pop\n        /* \"#utility.yul\":796:829   */\n      tag_152\n        /* \"#utility.yul\":823:828   */\n      dup2\n        /* \"#utility.yul\":796:829   */\n      tag_88\n      jump\t// in\n    tag_152:\n        /* \"#utility.yul\":696:835   */\n      swap3\n      swap2\n      pop\n      pop\n      jump\t// out\n        /* \"#utility.yul\":841:1170   */\n    tag_9:\n        /* \"#utility.yul\":900:906   */\n      0x00\n        /* \"#utility.yul\":949:951   */\n      0x20\n        /* \"#utility.yul\":937:946   */\n      dup3\n        /* \"#utility.yul\":928:935   */\n      dup5\n        /* \"#utility.yul\":924:947   */\n      sub\n        /* \"#utility.yul\":920:952   */\n      slt\n        /* \"#utility.yul\":917:1036   */\n      iszero\n      tag_154\n      jumpi\n        /* \"#utility.yul\":955:1034   */\n      tag_155\n      tag_84\n      jump\t// in\n    tag_155:\n        /* \"#utility.yul\":917:1036   */\n    tag_154:\n        /* \"#utility.yul\":1075:1076   */\n      0x00\n        /* \"#utility.yul\":1100:1153   */\n      tag_156\n        /* \"#utility.yul\":1145:1152   */\n      dup5\n        /* \"#utility.yul\":1136:1142   */\n      dup3\n        /* \"#utility.yul\":1125:1134   */\n      dup6\n        /* \"#utility.yul\":1121:1143   */\n      add\n        /* \"#utility.yul\":1100:1153   */\n      tag_89\n      jump\t// in\n    tag_156:\n        /* \"#utility.yul\":1090:1153   */\n      swap2\n      pop\n        /* \"#utility.yul\":1046:1163   */\n      pop\n        /* \"#utility.yul\":841:1170   */\n      swap3\n      swap2\n      pop\n      pop\n      jump\t// out\n        /* \"#utility.yul\":1176:1275   */\n    tag_90:\n        /* \"#utility.yul\":1228:1234   */\n      0x00\n        /* \"#utility.yul\":1262:1267   */\n      dup2\n        /* \"#utility.yul\":1256:1268   */\n      mload\n        /* \"#utility.yul\":1246:1268   */\n      swap1\n      pop\n        /* \"#utility.yul\":1176:1275   */\n      swap2\n      swap1\n      pop\n      jump\t// out\n        /* \"#utility.yul\":1281:1440   */\n    tag_91:\n        /* \"#utility.yul\":1355:1366   */\n      0x00\n        /* \"#utility.yul\":1389:1395   */\n      dup3\n        /* \"#utility.yul\":1384:1387   */\n      dup3\n        /* \"#utility.yul\":1377:1396   */\n      mstore\n        /* \"#utility.yul\":1429:1433   */\n      0x20\n        /* \"#utility.yul\":1424:1427   */\n      dup3\n        /* \"#utility.yul\":1420:1434   */\n      add\n        /* \"#utility.yul\":1405:1434   */\n      swap1\n      pop\n        /* \"#utility.yul\":1281:1440   */\n      swap3\n      swap2\n      pop\n      pop\n      jump\t// out\n        /* \"#utility.yul\":1446:1585   */\n    tag_92:\n        /* \"#utility.yul\":1535:1541   */\n      dup3\n        /* \"#utility.yul\":1530:1533   */\n      dup2\n        /* \"#utility.yul\":1525:1528   */\n      dup4\n        /* \"#utility.yul\":1519:1542   */\n      mcopy\n        /* \"#utility.yul\":1576:1577   */\n      0x00\n        /* \"#utility.yul\":1567:1573   */\n      dup4\n        /* \"#utility.yul\":1562:1565   */\n      dup4\n        /* \"#utility.yul\":1558:1574   */\n      add\n        /* \"#utility.yul\":1551:1578   */\n      mstore\n        /* \"#utility.yul\":1446:1585   */\n      pop\n      pop\n      pop\n      jump\t// out\n        /* \"#utility.yul\":1591:1693   */\n    tag_93:\n        /* \"#utility.yul\":1632:1638   */\n      0x00\n        /* \"#utility.yul\":1683:1685   */\n      0x1f\n        /* \"#utility.yul\":1679:1686   */\n      not\n        /* \"#utility.yul\":1674:1676   */\n      0x1f\n        /* \"#utility.yul\":1667:1672   */\n      dup4\n        /* \"#utility.yul\":1663:1677   */\n      add\n        /* \"#utility.yul\":1659:1687   */\n      and\n        /* \"#utility.yul\":1649:1687   */\n      swap1\n      pop\n        /* \"#utility.yul\":1591:1693   */\n      swap2\n      swap1\n      pop\n      jump\t// out\n        /* \"#utility.yul\":1699:2056   */\n    tag_94:\n        /* \"#utility.yul\":1777:1780   */\n      0x00\n        /* \"#utility.yul\":1805:1844   */\n      tag_162\n        /* \"#utility.yul\":1838:1843   */\n      dup3\n        /* \"#utility.yul\":1805:1844   */\n      tag_90\n      jump\t// in\n    tag_162:\n        /* \"#utility.yul\":1860:1921   */\n      tag_163\n        /* \"#utility.yul\":1914:1920   */\n      dup2\n        /* \"#utility.yul\":1909:1912   */\n      dup6\n        /* \"#utility.yul\":1860:1921   */\n      tag_91\n      jump\t// in\n    tag_163:\n        /* \"#utility.yul\":1853:1921   */\n      swap4\n      pop\n        /* \"#utility.yul\":1930:1995   */\n      tag_164\n        /* \"#utility.yul\":1988:1994   */\n      dup2\n        /* \"#utility.yul\":1983:1986   */\n      dup6\n        /* \"#utility.yul\":1976:1980   */\n      0x20\n        /* \"#utility.yul\":1969:1974   */\n      dup7\n        /* \"#utility.yul\":1965:1981   */\n      add\n        /* \"#utility.yul\":1930:1995   */\n      tag_92\n      jump\t// in\n    tag_164:\n        /* \"#utility.yul\":2020:2049   */\n      tag_165\n        /* \"#utility.yul\":2042:2048   */\n      dup2\n        /* \"#utility.yul\":2020:2049   */\n      tag_93\n      jump\t// in\n    tag_165:\n        /* \"#utility.yul\":2015:2018   */\n      dup5\n        /* \"#utility.yul\":2011:2050   */\n      add\n        /* \"#utility.yul\":2004:2050   */\n      swap2\n      pop\n        /* \"#utility.yul\":1781:2056   */\n      pop\n        /* \"#utility.yul\":1699:2056   */\n      swap3\n      swap2\n      pop\n      pop\n      jump\t// out\n        /* \"#utility.yul\":2126:3060   */\n    tag_95:\n        /* \"#utility.yul\":2241:2244   */\n      0x00\n        /* \"#utility.yul\":2277:2281   */\n      0x60\n        /* \"#utility.yul\":2272:2275   */\n      dup4\n        /* \"#utility.yul\":2268:2282   */\n      add\n        /* \"#utility.yul\":2368:2372   */\n      0x00\n        /* \"#utility.yul\":2361:2366   */\n      dup4\n        /* \"#utility.yul\":2357:2373   */\n      add\n        /* \"#utility.yul\":2351:2374   */\n      mload\n        /* \"#utility.yul\":2421:2424   */\n      dup5\n        /* \"#utility.yul\":2415:2419   */\n      dup3\n        /* \"#utility.yul\":2411:2425   */\n      sub\n        /* \"#utility.yul\":2404:2408   */\n      0x00\n        /* \"#utility.yul\":2399:2402   */\n      dup7\n        /* \"#utility.yul\":2395:2409   */\n      add\n        /* \"#utility.yul\":2388:2426   */\n      mstore\n        /* \"#utility.yul\":2447:2520   */\n      tag_167\n        /* \"#utility.yul\":2515:2519   */\n      dup3\n        /* \"#utility.yul\":2501:2513   */\n      dup3\n        /* \"#utility.yul\":2447:2520   */\n      tag_94\n      jump\t// in\n    tag_167:\n        /* \"#utility.yul\":2439:2520   */\n      swap2\n      pop\n        /* \"#utility.yul\":2292:2531   */\n      pop\n        /* \"#utility.yul\":2612:2616   */\n      0x20\n        /* \"#utility.yul\":2605:2610   */\n      dup4\n        /* \"#utility.yul\":2601:2617   */\n      add\n        /* \"#utility.yul\":2595:2618   */\n      mload\n        /* \"#utility.yul\":2665:2668   */\n      dup5\n        /* \"#utility.yul\":2659:2663   */\n      dup3\n        /* \"#utility.yul\":2655:2669   */\n      sub\n        /* \"#utility.yul\":2648:2652   */\n      0x20\n        /* \"#utility.yul\":2643:2646   */\n      dup7\n        /* \"#utility.yul\":2639:2653   */\n      add\n        /* \"#utility.yul\":2632:2670   */\n      mstore\n        /* \"#utility.yul\":2691:2764   */\n      tag_168\n        /* \"#utility.yul\":2759:2763   */\n      dup3\n        /* \"#utility.yul\":2745:2757   */\n      dup3\n        /* \"#utility.yul\":2691:2764   */\n      tag_94\n      jump\t// in\n    tag_168:\n        /* \"#utility.yul\":2683:2764   */\n      swap2\n      pop\n        /* \"#utility.yul\":2541:2775   */\n      pop\n        /* \"#utility.yul\":2870:2874   */\n      0x40\n        /* \"#utility.yul\":2863:2868   */\n      dup4\n        /* \"#utility.yul\":2859:2875   */\n      add\n        /* \"#utility.yul\":2853:2876   */\n      mload\n        /* \"#utility.yul\":2923:2926   */\n      dup5\n        /* \"#utility.yul\":2917:2921   */\n      dup3\n        /* \"#utility.yul\":2913:2927   */\n      sub\n        /* \"#utility.yul\":2906:2910   */\n      0x40\n        /* \"#utility.yul\":2901:2904   */\n      dup7\n        /* \"#utility.yul\":2897:2911   */\n      add\n        /* \"#utility.yul\":2890:2928   */\n      mstore\n        /* \"#utility.yul\":2949:3022   */\n      tag_169\n        /* \"#utility.yul\":3017:3021   */\n      dup3\n        /* \"#utility.yul\":3003:3015   */\n      dup3\n        /* \"#utility.yul\":2949:3022   */\n      tag_94\n      jump\t// in\n    tag_169:\n        /* \"#utility.yul\":2941:3022   */\n      swap2\n      pop\n        /* \"#utility.yul\":2785:3033   */\n      pop\n        /* \"#utility.yul\":3050:3054   */\n      dup1\n        /* \"#utility.yul\":3043:3054   */\n      swap2\n      pop\n        /* \"#utility.yul\":2246:3060   */\n      pop\n        /* \"#utility.yul\":2126:3060   */\n      swap3\n      swap2\n      pop\n      pop\n      jump\t// out\n        /* \"#utility.yul\":3066:3431   */\n    tag_12:\n        /* \"#utility.yul\":3205:3209   */\n      0x00\n        /* \"#utility.yul\":3243:3245   */\n      0x20\n        /* \"#utility.yul\":3232:3241   */\n      dup3\n        /* \"#utility.yul\":3228:3246   */\n      add\n        /* \"#utility.yul\":3220:3246   */\n      swap1\n      pop\n        /* \"#utility.yul\":3292:3301   */\n      dup2\n        /* \"#utility.yul\":3286:3290   */\n      dup2\n        /* \"#utility.yul\":3282:3302   */\n      sub\n        /* \"#utility.yul\":3278:3279   */\n      0x00\n        /* \"#utility.yul\":3267:3276   */\n      dup4\n        /* \"#utility.yul\":3263:3280   */\n      add\n        /* \"#utility.yul\":3256:3303   */\n      mstore\n        /* \"#utility.yul\":3320:3424   */\n      tag_171\n        /* \"#utility.yul\":3419:3423   */\n      dup2\n        /* \"#utility.yul\":3410:3416   */\n      dup5\n        /* \"#utility.yul\":3320:3424   */\n      tag_95\n      jump\t// in\n    tag_171:\n        /* \"#utility.yul\":3312:3424   */\n      swap1\n      pop\n        /* \"#utility.yul\":3066:3431   */\n      swap3\n      swap2\n      pop\n      pop\n      jump\t// out\n        /* \"#utility.yul\":3437:3554   */\n    tag_96:\n        /* \"#utility.yul\":3546:3547   */\n      0x00\n        /* \"#utility.yul\":3543:3544   */\n      0x00\n        /* \"#utility.yul\":3536:3548   */\n      revert\n        /* \"#utility.yul\":3560:3677   */\n    tag_97:\n        /* \"#utility.yul\":3669:3670   */\n      0x00\n        /* \"#utility.yul\":3666:3667   */\n      0x00\n        /* \"#utility.yul\":3659:3671   */\n      revert\n        /* \"#utility.yul\":3683:3863   */\n    tag_98:\n        /* \"#utility.yul\":3731:3808   */\n      0x4e487b7100000000000000000000000000000000000000000000000000000000\n        /* \"#utility.yul\":3728:3729   */\n      0x00\n        /* \"#utility.yul\":3721:3809   */\n      mstore\n        /* \"#utility.yul\":3828:3832   */\n      0x41\n        /* \"#utility.yul\":3825:3826   */\n      0x04\n        /* \"#utility.yul\":3818:3833   */\n      mstore\n        /* \"#utility.yul\":3852:3856   */\n      0x24\n        /* \"#utility.yul\":3849:3850   */\n      0x00\n        /* \"#utility.yul\":3842:3857   */\n      revert\n        /* \"#utility.yul\":3869:4150   */\n    tag_99:\n        /* \"#utility.yul\":3952:3979   */\n      tag_176\n        /* \"#utility.yul\":3974:3978   */\n      dup3\n        /* \"#utility.yul\":3952:3979   */\n      tag_93\n      jump\t// in\n    tag_176:\n        /* \"#utility.yul\":3944:3950   */\n      dup2\n        /* \"#utility.yul\":3940:3980   */\n      add\n        /* \"#utility.yul\":4082:4088   */\n      dup2\n        /* \"#utility.yul\":4070:4080   */\n      dup2\n        /* \"#utility.yul\":4067:4089   */\n      lt\n        /* \"#utility.yul\":4046:4064   */\n      0xffffffffffffffff\n        /* \"#utility.yul\":4034:4044   */\n      dup3\n        /* \"#utility.yul\":4031:4065   */\n      gt\n        /* \"#utility.yul\":4028:4090   */\n      or\n        /* \"#utility.yul\":4025:4113   */\n      iszero\n      tag_177\n      jumpi\n        /* \"#utility.yul\":4093:4111   */\n      tag_178\n      tag_98\n      jump\t// in\n    tag_178:\n        /* \"#utility.yul\":4025:4113   */\n    tag_177:\n        /* \"#utility.yul\":4133:4143   */\n      dup1\n        /* \"#utility.yul\":4129:4131   */\n      0x40\n        /* \"#utility.yul\":4122:4144   */\n      mstore\n        /* \"#utility.yul\":3912:4150   */\n      pop\n        /* \"#utility.yul\":3869:4150   */\n      pop\n      pop\n      jump\t// out\n        /* \"#utility.yul\":4156:4285   */\n    tag_100:\n        /* \"#utility.yul\":4190:4196   */\n      0x00\n        /* \"#utility.yul\":4217:4237   */\n      tag_180\n      tag_83\n      jump\t// in\n    tag_180:\n        /* \"#utility.yul\":4207:4237   */\n      swap1\n      pop\n        /* \"#utility.yul\":4246:4279   */\n      tag_181\n        /* \"#utility.yul\":4274:4278   */\n      dup3\n        /* \"#utility.yul\":4266:4272   */\n      dup3\n        /* \"#utility.yul\":4246:4279   */\n      tag_99\n      jump\t// in\n    tag_181:\n        /* \"#utility.yul\":4156:4285   */\n      swap2\n      swap1\n      pop\n      jump\t// out\n        /* \"#utility.yul\":4291:4599   */\n    tag_101:\n        /* \"#utility.yul\":4353:4357   */\n      0x00\n        /* \"#utility.yul\":4443:4461   */\n      0xffffffffffffffff\n        /* \"#utility.yul\":4435:4441   */\n      dup3\n        /* \"#utility.yul\":4432:4462   */\n      gt\n        /* \"#utility.yul\":4429:4485   */\n      iszero\n      tag_183\n      jumpi\n        /* \"#utility.yul\":4465:4483   */\n      tag_184\n      tag_98\n      jump\t// in\n    tag_184:\n        /* \"#utility.yul\":4429:4485   */\n    tag_183:\n        /* \"#utility.yul\":4503:4532   */\n      tag_185\n        /* \"#utility.yul\":4525:4531   */\n      dup3\n        /* \"#utility.yul\":4503:4532   */\n      tag_93\n      jump\t// in\n    tag_185:\n        /* \"#utility.yul\":4495:4532   */\n      swap1\n      pop\n        /* \"#utility.yul\":4587:4591   */\n      0x20\n        /* \"#utility.yul\":4581:4585   */\n      dup2\n        /* \"#utility.yul\":4577:4592   */\n      add\n        /* \"#utility.yul\":4569:4592   */\n      swap1\n      pop\n        /* \"#utility.yul\":4291:4599   */\n      swap2\n      swap1\n      pop\n      jump\t// out\n        /* \"#utility.yul\":4605:4753   */\n    tag_102:\n        /* \"#utility.yul\":4703:4709   */\n      dup3\n        /* \"#utility.yul\":4698:4701   */\n      dup2\n        /* \"#utility.yul\":4693:4696   */\n      dup4\n        /* \"#utility.yul\":4680:4710   */\n      calldatacopy\n        /* \"#utility.yul\":4744:4745   */\n      0x00\n        /* \"#utility.yul\":4735:4741   */\n      dup4\n        /* \"#utility.yul\":4730:4733   */\n      dup4\n        /* \"#utility.yul\":4726:4742   */\n      add\n        /* \"#utility.yul\":4719:4746   */\n      mstore\n        /* \"#utility.yul\":4605:4753   */\n      pop\n      pop\n      pop\n      jump\t// out\n        /* \"#utility.yul\":4759:5184   */\n    tag_103:\n        /* \"#utility.yul\":4837:4842   */\n      0x00\n        /* \"#utility.yul\":4862:4928   */\n      tag_188\n        /* \"#utility.yul\":4878:4927   */\n      tag_189\n        /* \"#utility.yul\":4920:4926   */\n      dup5\n        /* \"#utility.yul\":4878:4927   */\n      tag_101\n      jump\t// in\n    tag_189:\n        /* \"#utility.yul\":4862:4928   */\n      tag_100\n      jump\t// in\n    tag_188:\n        /* \"#utility.yul\":4853:4928   */\n      swap1\n      pop\n        /* \"#utility.yul\":4951:4957   */\n      dup3\n        /* \"#utility.yul\":4944:4949   */\n      dup2\n        /* \"#utility.yul\":4937:4958   */\n      mstore\n        /* \"#utility.yul\":4989:4993   */\n      0x20\n        /* \"#utility.yul\":4982:4987   */\n      dup2\n        /* \"#utility.yul\":4978:4994   */\n      add\n        /* \"#utility.yul\":5027:5030   */\n      dup5\n        /* \"#utility.yul\":5018:5024   */\n      dup5\n        /* \"#utility.yul\":5013:5016   */\n      dup5\n        /* \"#utility.yul\":5009:5025   */\n      add\n        /* \"#utility.yul\":5006:5031   */\n      gt\n        /* \"#utility.yul\":5003:5115   */\n      iszero\n      tag_190\n      jumpi\n        /* \"#utility.yul\":5034:5113   */\n      tag_191\n      tag_97\n      jump\t// in\n    tag_191:\n        /* \"#utility.yul\":5003:5115   */\n    tag_190:\n        /* \"#utility.yul\":5124:5178   */\n      tag_192\n        /* \"#utility.yul\":5171:5177   */\n      dup5\n        /* \"#utility.yul\":5166:5169   */\n      dup3\n        /* \"#utility.yul\":5161:5164   */\n      dup6\n        /* \"#utility.yul\":5124:5178   */\n      tag_102\n      jump\t// in\n    tag_192:\n        /* \"#utility.yul\":4843:5184   */\n      pop\n        /* \"#utility.yul\":4759:5184   */\n      swap4\n      swap3\n      pop\n      pop\n      pop\n      jump\t// out\n        /* \"#utility.yul\":5204:5544   */\n    tag_104:\n        /* \"#utility.yul\":5260:5265   */\n      0x00\n        /* \"#utility.yul\":5309:5312   */\n      dup3\n        /* \"#utility.yul\":5302:5306   */\n      0x1f\n        /* \"#utility.yul\":5294:5300   */\n      dup4\n        /* \"#utility.yul\":5290:5307   */\n      add\n        /* \"#utility.yul\":5286:5313   */\n      slt\n        /* \"#utility.yul\":5276:5398   */\n      tag_194\n      jumpi\n        /* \"#utility.yul\":5317:5396   */\n      tag_195\n      tag_96\n      jump\t// in\n    tag_195:\n        /* \"#utility.yul\":5276:5398   */\n    tag_194:\n        /* \"#utility.yul\":5434:5440   */\n      dup2\n        /* \"#utility.yul\":5421:5441   */\n      calldataload\n        /* \"#utility.yul\":5459:5538   */\n      tag_196\n        /* \"#utility.yul\":5534:5537   */\n      dup5\n        /* \"#utility.yul\":5526:5532   */\n      dup3\n        /* \"#utility.yul\":5519:5523   */\n      0x20\n        /* \"#utility.yul\":5511:5517   */\n      dup7\n        /* \"#utility.yul\":5507:5524   */\n      add\n        /* \"#utility.yul\":5459:5538   */\n      tag_103\n      jump\t// in\n    tag_196:\n        /* \"#utility.yul\":5450:5538   */\n      swap2\n      pop\n        /* \"#utility.yul\":5266:5544   */\n      pop\n        /* \"#utility.yul\":5204:5544   */\n      swap3\n      swap2\n      pop\n      pop\n      jump\t// out\n        /* \"#utility.yul\":5550:6709   */\n    tag_15:\n        /* \"#utility.yul\":5657:5663   */\n      0x00\n        /* \"#utility.yul\":5665:5671   */\n      0x00\n        /* \"#utility.yul\":5673:5679   */\n      0x00\n        /* \"#utility.yul\":5722:5724   */\n      0x60\n        /* \"#utility.yul\":5710:5719   */\n      dup5\n        /* \"#utility.yul\":5701:5708   */\n      dup7\n        /* \"#utility.yul\":5697:5720   */\n      sub\n        /* \"#utility.yul\":5693:5725   */\n      slt\n        /* \"#utility.yul\":5690:5809   */\n      iszero\n      tag_198\n      jumpi\n        /* \"#utility.yul\":5728:5807   */\n      tag_199\n      tag_84\n      jump\t// in\n    tag_199:\n        /* \"#utility.yul\":5690:5809   */\n    tag_198:\n        /* \"#utility.yul\":5876:5877   */\n      0x00\n        /* \"#utility.yul\":5865:5874   */\n      dup5\n        /* \"#utility.yul\":5861:5878   */\n      add\n        /* \"#utility.yul\":5848:5879   */\n      calldataload\n        /* \"#utility.yul\":5906:5924   */\n      0xffffffffffffffff\n        /* \"#utility.yul\":5898:5904   */\n      dup2\n        /* \"#utility.yul\":5895:5925   */\n      gt\n        /* \"#utility.yul\":5892:6009   */\n      iszero\n      tag_200\n      jumpi\n        /* \"#utility.yul\":5928:6007   */\n      tag_201\n      tag_85\n      jump\t// in\n    tag_201:\n        /* \"#utility.yul\":5892:6009   */\n    tag_200:\n        /* \"#utility.yul\":6033:6096   */\n      tag_202\n        /* \"#utility.yul\":6088:6095   */\n      dup7\n        /* \"#utility.yul\":6079:6085   */\n      dup3\n        /* \"#utility.yul\":6068:6077   */\n      dup8\n        /* \"#utility.yul\":6064:6086   */\n      add\n        /* \"#utility.yul\":6033:6096   */\n      tag_104\n      jump\t// in\n    tag_202:\n        /* \"#utility.yul\":6023:6096   */\n      swap4\n      pop\n        /* \"#utility.yul\":5819:6106   */\n      pop\n        /* \"#utility.yul\":6173:6175   */\n      0x20\n        /* \"#utility.yul\":6162:6171   */\n      dup5\n        /* \"#utility.yul\":6158:6176   */\n      add\n        /* \"#utility.yul\":6145:6177   */\n      calldataload\n        /* \"#utility.yul\":6204:6222   */\n      0xffffffffffffffff\n        /* \"#utility.yul\":6196:6202   */\n      dup2\n        /* \"#utility.yul\":6193:6223   */\n      gt\n        /* \"#utility.yul\":6190:6307   */\n      iszero\n      tag_203\n      jumpi\n        /* \"#utility.yul\":6226:6305   */\n      tag_204\n      tag_85\n      jump\t// in\n    tag_204:\n        /* \"#utility.yul\":6190:6307   */\n    tag_203:\n        /* \"#utility.yul\":6331:6394   */\n      tag_205\n        /* \"#utility.yul\":6386:6393   */\n      dup7\n        /* \"#utility.yul\":6377:6383   */\n      dup3\n        /* \"#utility.yul\":6366:6375   */\n      dup8\n        /* \"#utility.yul\":6362:6384   */\n      add\n        /* \"#utility.yul\":6331:6394   */\n      tag_104\n      jump\t// in\n    tag_205:\n        /* \"#utility.yul\":6321:6394   */\n      swap3\n      pop\n        /* \"#utility.yul\":6116:6404   */\n      pop\n        /* \"#utility.yul\":6471:6473   */\n      0x40\n        /* \"#utility.yul\":6460:6469   */\n      dup5\n        /* \"#utility.yul\":6456:6474   */\n      add\n        /* \"#utility.yul\":6443:6475   */\n      calldataload\n        /* \"#utility.yul\":6502:6520   */\n      0xffffffffffffffff\n        /* \"#utility.yul\":6494:6500   */\n      dup2\n        /* \"#utility.yul\":6491:6521   */\n      gt\n        /* \"#utility.yul\":6488:6605   */\n      iszero\n      tag_206\n      jumpi\n        /* \"#utility.yul\":6524:6603   */\n      tag_207\n      tag_85\n      jump\t// in\n    tag_207:\n        /* \"#utility.yul\":6488:6605   */\n    tag_206:\n        /* \"#utility.yul\":6629:6692   */\n      tag_208\n        /* \"#utility.yul\":6684:6691   */\n      dup7\n        /* \"#utility.yul\":6675:6681   */\n      dup3\n        /* \"#utility.yul\":6664:6673   */\n      dup8\n        /* \"#utility.yul\":6660:6682   */\n      add\n        /* \"#utility.yul\":6629:6692   */\n      tag_104\n      jump\t// in\n    tag_208:\n        /* \"#utility.yul\":6619:6692   */\n      swap2\n      pop\n        /* \"#utility.yul\":6414:6702   */\n      pop\n        /* \"#utility.yul\":5550:6709   */\n      swap3\n      pop\n      swap3\n      pop\n      swap3\n      jump\t// out\n        /* \"#utility.yul\":6715:6829   */\n    tag_105:\n        /* \"#utility.yul\":6782:6788   */\n      0x00\n        /* \"#utility.yul\":6816:6821   */\n      dup2\n        /* \"#utility.yul\":6810:6822   */\n      mload\n        /* \"#utility.yul\":6800:6822   */\n      swap1\n      pop\n        /* \"#utility.yul\":6715:6829   */\n      swap2\n      swap1\n      pop\n      jump\t// out\n        /* \"#utility.yul\":6835:7019   */\n    tag_106:\n        /* \"#utility.yul\":6934:6945   */\n      0x00\n        /* \"#utility.yul\":6968:6974   */\n      dup3\n        /* \"#utility.yul\":6963:6966   */\n      dup3\n        /* \"#utility.yul\":6956:6975   */\n      mstore\n        /* \"#utility.yul\":7008:7012   */\n      0x20\n        /* \"#utility.yul\":7003:7006   */\n      dup3\n        /* \"#utility.yul\":6999:7013   */\n      add\n        /* \"#utility.yul\":6984:7013   */\n      swap1\n      pop\n        /* \"#utility.yul\":6835:7019   */\n      swap3\n      swap2\n      pop\n      pop\n      jump\t// out\n        /* \"#utility.yul\":7025:7157   */\n    tag_107:\n        /* \"#utility.yul\":7092:7096   */\n      0x00\n        /* \"#utility.yul\":7115:7118   */\n      dup2\n        /* \"#utility.yul\":7107:7118   */\n      swap1\n      pop\n        /* \"#utility.yul\":7145:7149   */\n      0x20\n        /* \"#utility.yul\":7140:7143   */\n      dup3\n        /* \"#utility.yul\":7136:7150   */\n      add\n        /* \"#utility.yul\":7128:7150   */\n      swap1\n      pop\n        /* \"#utility.yul\":7025:7157   */\n      swap2\n      swap1\n      pop\n      jump\t// out\n        /* \"#utility.yul\":7163:7271   */\n    tag_108:\n        /* \"#utility.yul\":7240:7264   */\n      tag_213\n        /* \"#utility.yul\":7258:7263   */\n      dup2\n        /* \"#utility.yul\":7240:7264   */\n      tag_87\n      jump\t// in\n    tag_213:\n        /* \"#utility.yul\":7235:7238   */\n      dup3\n        /* \"#utility.yul\":7228:7265   */\n      mstore\n        /* \"#utility.yul\":7163:7271   */\n      pop\n      pop\n      jump\t// out\n        /* \"#utility.yul\":7277:7456   */\n    tag_109:\n        /* \"#utility.yul\":7346:7356   */\n      0x00\n        /* \"#utility.yul\":7367:7413   */\n      tag_215\n        /* \"#utility.yul\":7409:7412   */\n      dup4\n        /* \"#utility.yul\":7401:7407   */\n      dup4\n        /* \"#utility.yul\":7367:7413   */\n      tag_108\n      jump\t// in\n    tag_215:\n        /* \"#utility.yul\":7445:7449   */\n      0x20\n        /* \"#utility.yul\":7440:7443   */\n      dup4\n        /* \"#utility.yul\":7436:7450   */\n      add\n        /* \"#utility.yul\":7422:7450   */\n      swap1\n      pop\n        /* \"#utility.yul\":7277:7456   */\n      swap3\n      swap2\n      pop\n      pop\n      jump\t// out\n        /* \"#utility.yul\":7462:7575   */\n    tag_110:\n        /* \"#utility.yul\":7532:7536   */\n      0x00\n        /* \"#utility.yul\":7564:7568   */\n      0x20\n        /* \"#utility.yul\":7559:7562   */\n      dup3\n        /* \"#utility.yul\":7555:7569   */\n      add\n        /* \"#utility.yul\":7547:7569   */\n      swap1\n      pop\n        /* \"#utility.yul\":7462:7575   */\n      swap2\n      swap1\n      pop\n      jump\t// out\n        /* \"#utility.yul\":7611:8343   */\n    tag_111:\n        /* \"#utility.yul\":7730:7733   */\n      0x00\n        /* \"#utility.yul\":7759:7813   */\n      tag_218\n        /* \"#utility.yul\":7807:7812   */\n      dup3\n        /* \"#utility.yul\":7759:7813   */\n      tag_105\n      jump\t// in\n    tag_218:\n        /* \"#utility.yul\":7829:7915   */\n      tag_219\n        /* \"#utility.yul\":7908:7914   */\n      dup2\n        /* \"#utility.yul\":7903:7906   */\n      dup6\n        /* \"#utility.yul\":7829:7915   */\n      tag_106\n      jump\t// in\n    tag_219:\n        /* \"#utility.yul\":7822:7915   */\n      swap4\n      pop\n        /* \"#utility.yul\":7939:7995   */\n      tag_220\n        /* \"#utility.yul\":7989:7994   */\n      dup4\n        /* \"#utility.yul\":7939:7995   */\n      tag_107\n      jump\t// in\n    tag_220:\n        /* \"#utility.yul\":8018:8025   */\n      dup1\n        /* \"#utility.yul\":8049:8050   */\n      0x00\n        /* \"#utility.yul\":8034:8318   */\n    tag_221:\n        /* \"#utility.yul\":8059:8065   */\n      dup4\n        /* \"#utility.yul\":8056:8057   */\n      dup2\n        /* \"#utility.yul\":8053:8066   */\n      lt\n        /* \"#utility.yul\":8034:8318   */\n      iszero\n      tag_223\n      jumpi\n        /* \"#utility.yul\":8135:8141   */\n      dup2\n        /* \"#utility.yul\":8129:8142   */\n      mload\n        /* \"#utility.yul\":8162:8225   */\n      tag_224\n        /* \"#utility.yul\":8221:8224   */\n      dup9\n        /* \"#utility.yul\":8206:8219   */\n      dup3\n        /* \"#utility.yul\":8162:8225   */\n      tag_109\n      jump\t// in\n    tag_224:\n        /* \"#utility.yul\":8155:8225   */\n      swap8\n      pop\n        /* \"#utility.yul\":8248:8308   */\n      tag_225\n        /* \"#utility.yul\":8301:8307   */\n      dup4\n        /* \"#utility.yul\":8248:8308   */\n      tag_110\n      jump\t// in\n    tag_225:\n        /* \"#utility.yul\":8238:8308   */\n      swap3\n      pop\n        /* \"#utility.yul\":8094:8318   */\n      pop\n        /* \"#utility.yul\":8081:8082   */\n      0x01\n        /* \"#utility.yul\":8078:8079   */\n      dup2\n        /* \"#utility.yul\":8074:8083   */\n      add\n        /* \"#utility.yul\":8069:8083   */\n      swap1\n      pop\n        /* \"#utility.yul\":8034:8318   */\n      jump(tag_221)\n    tag_223:\n        /* \"#utility.yul\":8038:8052   */\n      pop\n        /* \"#utility.yul\":8334:8337   */\n      dup6\n        /* \"#utility.yul\":8327:8337   */\n      swap4\n      pop\n        /* \"#utility.yul\":7735:8343   */\n      pop\n      pop\n      pop\n        /* \"#utility.yul\":7611:8343   */\n      swap3\n      swap2\n      pop\n      pop\n      jump\t// out\n        /* \"#utility.yul\":8349:8722   */\n    tag_20:\n        /* \"#utility.yul\":8492:8496   */\n      0x00\n        /* \"#utility.yul\":8530:8532   */\n      0x20\n        /* \"#utility.yul\":8519:8528   */\n      dup3\n        /* \"#utility.yul\":8515:8533   */\n      add\n        /* \"#utility.yul\":8507:8533   */\n      swap1\n      pop\n        /* \"#utility.yul\":8579:8588   */\n      dup2\n        /* \"#utility.yul\":8573:8577   */\n      dup2\n        /* \"#utility.yul\":8569:8589   */\n      sub\n        /* \"#utility.yul\":8565:8566   */\n      0x00\n        /* \"#utility.yul\":8554:8563   */\n      dup4\n        /* \"#utility.yul\":8550:8567   */\n      add\n        /* \"#utility.yul\":8543:8590   */\n      mstore\n        /* \"#utility.yul\":8607:8715   */\n      tag_227\n        /* \"#utility.yul\":8710:8714   */\n      dup2\n        /* \"#utility.yul\":8701:8707   */\n      dup5\n        /* \"#utility.yul\":8607:8715   */\n      tag_111\n      jump\t// in\n    tag_227:\n        /* \"#utility.yul\":8599:8715   */\n      swap1\n      pop\n        /* \"#utility.yul\":8349:8722   */\n      swap3\n      swap2\n      pop\n      pop\n      jump\t// out\n        /* \"#utility.yul\":8728:8908   */\n    tag_112:\n        /* \"#utility.yul\":8776:8853   */\n      0x4e487b7100000000000000000000000000000000000000000000000000000000\n        /* \"#utility.yul\":8773:8774   */\n      0x00\n        /* \"#utility.yul\":8766:8854   */\n      mstore\n        /* \"#utility.yul\":8873:8877   */\n      0x22\n        /* \"#utility.yul\":8870:8871   */\n      0x04\n        /* \"#utility.yul\":8863:8878   */\n      mstore\n        /* \"#utility.yul\":8897:8901   */\n      0x24\n        /* \"#utility.yul\":8894:8895   */\n      0x00\n        /* \"#utility.yul\":8887:8902   */\n      revert\n        /* \"#utility.yul\":8914:9234   */\n    tag_28:\n        /* \"#utility.yul\":8958:8964   */\n      0x00\n        /* \"#utility.yul\":8995:8996   */\n      0x02\n        /* \"#utility.yul\":8989:8993   */\n      dup3\n        /* \"#utility.yul\":8985:8997   */\n      div\n        /* \"#utility.yul\":8975:8997   */\n      swap1\n      pop\n        /* \"#utility.yul\":9042:9043   */\n      0x01\n        /* \"#utility.yul\":9036:9040   */\n      dup3\n        /* \"#utility.yul\":9032:9044   */\n      and\n        /* \"#utility.yul\":9063:9081   */\n      dup1\n        /* \"#utility.yul\":9053:9134   */\n      tag_230\n      jumpi\n        /* \"#utility.yul\":9119:9123   */\n      0x7f\n        /* \"#utility.yul\":9111:9117   */\n      dup3\n        /* \"#utility.yul\":9107:9124   */\n      and\n        /* \"#utility.yul\":9097:9124   */\n      swap2\n      pop\n        /* \"#utility.yul\":9053:9134   */\n    tag_230:\n        /* \"#utility.yul\":9181:9183   */\n      0x20\n        /* \"#utility.yul\":9173:9179   */\n      dup3\n        /* \"#utility.yul\":9170:9184   */\n      lt\n        /* \"#utility.yul\":9150:9168   */\n      dup2\n        /* \"#utility.yul\":9147:9185   */\n      sub\n        /* \"#utility.yul\":9144:9228   */\n      tag_231\n      jumpi\n        /* \"#utility.yul\":9200:9218   */\n      tag_232\n      tag_112\n      jump\t// in\n    tag_232:\n        /* \"#utility.yul\":9144:9228   */\n    tag_231:\n        /* \"#utility.yul\":8965:9234   */\n      pop\n        /* \"#utility.yul\":8914:9234   */\n      swap2\n      swap1\n      pop\n      jump\t// out\n        /* \"#utility.yul\":9240:9409   */\n    tag_113:\n        /* \"#utility.yul\":9324:9335   */\n      0x00\n        /* \"#utility.yul\":9358:9364   */\n      dup3\n        /* \"#utility.yul\":9353:9356   */\n      dup3\n        /* \"#utility.yul\":9346:9365   */\n      mstore\n        /* \"#utility.yul\":9398:9402   */\n      0x20\n        /* \"#utility.yul\":9393:9396   */\n      dup3\n        /* \"#utility.yul\":9389:9403   */\n      add\n        /* \"#utility.yul\":9374:9403   */\n      swap1\n      pop\n        /* \"#utility.yul\":9240:9409   */\n      swap3\n      swap2\n      pop\n      pop\n      jump\t// out\n        /* \"#utility.yul\":9415:9585   */\n    tag_114:\n        /* \"#utility.yul\":9555:9577   */\n      0x557365726e616d65206973207265717569726564000000000000000000000000\n        /* \"#utility.yul\":9551:9552   */\n      0x00\n        /* \"#utility.yul\":9543:9549   */\n      dup3\n        /* \"#utility.yul\":9539:9553   */\n      add\n        /* \"#utility.yul\":9532:9578   */\n      mstore\n        /* \"#utility.yul\":9415:9585   */\n      pop\n      jump\t// out\n        /* \"#utility.yul\":9591:9957   */\n    tag_115:\n        /* \"#utility.yul\":9733:9736   */\n      0x00\n        /* \"#utility.yul\":9754:9821   */\n      tag_236\n        /* \"#utility.yul\":9818:9820   */\n      0x14\n        /* \"#utility.yul\":9813:9816   */\n      dup4\n        /* \"#utility.yul\":9754:9821   */\n      tag_113\n      jump\t// in\n    tag_236:\n        /* \"#utility.yul\":9747:9821   */\n      swap2\n      pop\n        /* \"#utility.yul\":9830:9923   */\n      tag_237\n        /* \"#utility.yul\":9919:9922   */\n      dup3\n        /* \"#utility.yul\":9830:9923   */\n      tag_114\n      jump\t// in\n    tag_237:\n        /* \"#utility.yul\":9948:9950   */\n      0x20\n        /* \"#utility.yul\":9943:9946   */\n      dup3\n        /* \"#utility.yul\":9939:9951   */\n      add\n        /* \"#utility.yul\":9932:9951   */\n      swap1\n      pop\n        /* \"#utility.yul\":9591:9957   */\n      swap2\n      swap1\n      pop\n      jump\t// out\n        /* \"#utility.yul\":9963:10382   */\n    tag_46:\n        /* \"#utility.yul\":10129:10133   */\n      0x00\n        /* \"#utility.yul\":10167:10169   */\n      0x20\n        /* \"#utility.yul\":10156:10165   */\n      dup3\n        /* \"#utility.yul\":10152:10170   */\n      add\n        /* \"#utility.yul\":10144:10170   */\n      swap1\n      pop\n        /* \"#utility.yul\":10216:10225   */\n      dup2\n        /* \"#utility.yul\":10210:10214   */\n      dup2\n        /* \"#utility.yul\":10206:10226   */\n      sub\n        /* \"#utility.yul\":10202:10203   */\n      0x00\n        /* \"#utility.yul\":10191:10200   */\n      dup4\n        /* \"#utility.yul\":10187:10204   */\n      add\n        /* \"#utility.yul\":10180:10227   */\n      mstore\n        /* \"#utility.yul\":10244:10375   */\n      tag_239\n        /* \"#utility.yul\":10370:10374   */\n      dup2\n        /* \"#utility.yul\":10244:10375   */\n      tag_115\n      jump\t// in\n    tag_239:\n        /* \"#utility.yul\":10236:10375   */\n      swap1\n      pop\n        /* \"#utility.yul\":9963:10382   */\n      swap2\n      swap1\n      pop\n      jump\t// out\n        /* \"#utility.yul\":10388:10536   */\n    tag_116:\n        /* \"#utility.yul\":10490:10501   */\n      0x00\n        /* \"#utility.yul\":10527:10530   */\n      dup2\n        /* \"#utility.yul\":10512:10530   */\n      swap1\n      pop\n        /* \"#utility.yul\":10388:10536   */\n      swap3\n      swap2\n      pop\n      pop\n      jump\t// out\n        /* \"#utility.yul\":10542:10932   */\n    tag_117:\n        /* \"#utility.yul\":10648:10651   */\n      0x00\n        /* \"#utility.yul\":10676:10715   */\n      tag_242\n        /* \"#utility.yul\":10709:10714   */\n      dup3\n        /* \"#utility.yul\":10676:10715   */\n      tag_90\n      jump\t// in\n    tag_242:\n        /* \"#utility.yul\":10731:10820   */\n      tag_243\n        /* \"#utility.yul\":10813:10819   */\n      dup2\n        /* \"#utility.yul\":10808:10811   */\n      dup6\n        /* \"#utility.yul\":10731:10820   */\n      tag_116\n      jump\t// in\n    tag_243:\n        /* \"#utility.yul\":10724:10820   */\n      swap4\n      pop\n        /* \"#utility.yul\":10829:10894   */\n      tag_244\n        /* \"#utility.yul\":10887:10893   */\n      dup2\n        /* \"#utility.yul\":10882:10885   */\n      dup6\n        /* \"#utility.yul\":10875:10879   */\n      0x20\n        /* \"#utility.yul\":10868:10873   */\n      dup7\n        /* \"#utility.yul\":10864:10880   */\n      add\n        /* \"#utility.yul\":10829:10894   */\n      tag_92\n      jump\t// in\n    tag_244:\n        /* \"#utility.yul\":10919:10925   */\n      dup1\n        /* \"#utility.yul\":10914:10917   */\n      dup5\n        /* \"#utility.yul\":10910:10926   */\n      add\n        /* \"#utility.yul\":10903:10926   */\n      swap2\n      pop\n        /* \"#utility.yul\":10652:10932   */\n      pop\n        /* \"#utility.yul\":10542:10932   */\n      swap3\n      swap2\n      pop\n      pop\n      jump\t// out\n        /* \"#utility.yul\":10938:11213   */\n    tag_48:\n        /* \"#utility.yul\":11070:11073   */\n      0x00\n        /* \"#utility.yul\":11092:11187   */\n      tag_246\n        /* \"#utility.yul\":11183:11186   */\n      dup3\n        /* \"#utility.yul\":11174:11180   */\n      dup5\n        /* \"#utility.yul\":11092:11187   */\n      tag_117\n      jump\t// in\n    tag_246:\n        /* \"#utility.yul\":11085:11187   */\n      swap2\n      pop\n        /* \"#utility.yul\":11204:11207   */\n      dup2\n        /* \"#utility.yul\":11197:11207   */\n      swap1\n      pop\n        /* \"#utility.yul\":10938:11213   */\n      swap3\n      swap2\n      pop\n      pop\n      jump\t// out\n        /* \"#utility.yul\":11219:11386   */\n    tag_118:\n        /* \"#utility.yul\":11359:11378   */\n      0x557365726e616d652069732074616b656e000000000000000000000000000000\n        /* \"#utility.yul\":11355:11356   */\n      0x00\n        /* \"#utility.yul\":11347:11353   */\n      dup3\n        /* \"#utility.yul\":11343:11357   */\n      add\n        /* \"#utility.yul\":11336:11379   */\n      mstore\n        /* \"#utility.yul\":11219:11386   */\n      pop\n      jump\t// out\n        /* \"#utility.yul\":11392:11758   */\n    tag_119:\n        /* \"#utility.yul\":11534:11537   */\n      0x00\n        /* \"#utility.yul\":11555:11622   */\n      tag_249\n        /* \"#utility.yul\":11619:11621   */\n      0x11\n        /* \"#utility.yul\":11614:11617   */\n      dup4\n        /* \"#utility.yul\":11555:11622   */\n      tag_113\n      jump\t// in\n    tag_249:\n        /* \"#utility.yul\":11548:11622   */\n      swap2\n      pop\n        /* \"#utility.yul\":11631:11724   */\n      tag_250\n        /* \"#utility.yul\":11720:11723   */\n      dup3\n        /* \"#utility.yul\":11631:11724   */\n      tag_118\n      jump\t// in\n    tag_250:\n        /* \"#utility.yul\":11749:11751   */\n      0x20\n        /* \"#utility.yul\":11744:11747   */\n      dup3\n        /* \"#utility.yul\":11740:11752   */\n      add\n        /* \"#utility.yul\":11733:11752   */\n      swap1\n      pop\n        /* \"#utility.yul\":11392:11758   */\n      swap2\n      swap1\n      pop\n      jump\t// out\n        /* \"#utility.yul\":11764:12183   */\n    tag_51:\n        /* \"#utility.yul\":11930:11934   */\n      0x00\n        /* \"#utility.yul\":11968:11970   */\n      0x20\n        /* \"#utility.yul\":11957:11966   */\n      dup3\n        /* \"#utility.yul\":11953:11971   */\n      add\n        /* \"#utility.yul\":11945:11971   */\n      swap1\n      pop\n        /* \"#utility.yul\":12017:12026   */\n      dup2\n        /* \"#utility.yul\":12011:12015   */\n      dup2\n        /* \"#utility.yul\":12007:12027   */\n      sub\n        /* \"#utility.yul\":12003:12004   */\n      0x00\n        /* \"#utility.yul\":11992:12001   */\n      dup4\n        /* \"#utility.yul\":11988:12005   */\n      add\n        /* \"#utility.yul\":11981:12028   */\n      mstore\n        /* \"#utility.yul\":12045:12176   */\n      tag_252\n        /* \"#utility.yul\":12171:12175   */\n      dup2\n        /* \"#utility.yul\":12045:12176   */\n      tag_119\n      jump\t// in\n    tag_252:\n        /* \"#utility.yul\":12037:12176   */\n      swap1\n      pop\n        /* \"#utility.yul\":11764:12183   */\n      swap2\n      swap1\n      pop\n      jump\t// out\n        /* \"#utility.yul\":12189:12330   */\n    tag_120:\n        /* \"#utility.yul\":12238:12242   */\n      0x00\n        /* \"#utility.yul\":12261:12264   */\n      dup2\n        /* \"#utility.yul\":12253:12264   */\n      swap1\n      pop\n        /* \"#utility.yul\":12284:12287   */\n      dup2\n        /* \"#utility.yul\":12281:12282   */\n      0x00\n        /* \"#utility.yul\":12274:12288   */\n      mstore\n        /* \"#utility.yul\":12318:12322   */\n      0x20\n        /* \"#utility.yul\":12315:12316   */\n      0x00\n        /* \"#utility.yul\":12305:12323   */\n      keccak256\n        /* \"#utility.yul\":12297:12323   */\n      swap1\n      pop\n        /* \"#utility.yul\":12189:12330   */\n      swap2\n      swap1\n      pop\n      jump\t// out\n        /* \"#utility.yul\":12360:13234   */\n    tag_121:\n        /* \"#utility.yul\":12463:12466   */\n      0x00\n        /* \"#utility.yul\":12500:12505   */\n      dup2\n        /* \"#utility.yul\":12494:12506   */\n      sload\n        /* \"#utility.yul\":12529:12565   */\n      tag_255\n        /* \"#utility.yul\":12555:12564   */\n      dup2\n        /* \"#utility.yul\":12529:12565   */\n      tag_28\n      jump\t// in\n    tag_255:\n        /* \"#utility.yul\":12581:12670   */\n      tag_256\n        /* \"#utility.yul\":12663:12669   */\n      dup2\n        /* \"#utility.yul\":12658:12661   */\n      dup7\n        /* \"#utility.yul\":12581:12670   */\n      tag_116\n      jump\t// in\n    tag_256:\n        /* \"#utility.yul\":12574:12670   */\n      swap5\n      pop\n        /* \"#utility.yul\":12701:12702   */\n      0x01\n        /* \"#utility.yul\":12690:12699   */\n      dup3\n        /* \"#utility.yul\":12686:12703   */\n      and\n        /* \"#utility.yul\":12717:12718   */\n      0x00\n        /* \"#utility.yul\":12712:12878   */\n      dup2\n      eq\n      tag_258\n      jumpi\n        /* \"#utility.yul\":12892:12893   */\n      0x01\n        /* \"#utility.yul\":12887:13228   */\n      dup2\n      eq\n      tag_259\n      jumpi\n        /* \"#utility.yul\":12679:13228   */\n      jump(tag_257)\n        /* \"#utility.yul\":12712:12878   */\n    tag_258:\n        /* \"#utility.yul\":12796:12800   */\n      0xff\n        /* \"#utility.yul\":12792:12801   */\n      not\n        /* \"#utility.yul\":12781:12790   */\n      dup4\n        /* \"#utility.yul\":12777:12802   */\n      and\n        /* \"#utility.yul\":12772:12775   */\n      dup7\n        /* \"#utility.yul\":12765:12803   */\n      mstore\n        /* \"#utility.yul\":12858:12864   */\n      dup2\n        /* \"#utility.yul\":12851:12865   */\n      iszero\n        /* \"#utility.yul\":12844:12866   */\n      iszero\n        /* \"#utility.yul\":12836:12842   */\n      dup3\n        /* \"#utility.yul\":12832:12867   */\n      mul\n        /* \"#utility.yul\":12827:12830   */\n      dup7\n        /* \"#utility.yul\":12823:12868   */\n      add\n        /* \"#utility.yul\":12816:12868   */\n      swap4\n      pop\n        /* \"#utility.yul\":12712:12878   */\n      jump(tag_257)\n        /* \"#utility.yul\":12887:13228   */\n    tag_259:\n        /* \"#utility.yul\":12954:12992   */\n      tag_260\n        /* \"#utility.yul\":12986:12991   */\n      dup6\n        /* \"#utility.yul\":12954:12992   */\n      tag_120\n      jump\t// in\n    tag_260:\n        /* \"#utility.yul\":13014:13015   */\n      0x00\n        /* \"#utility.yul\":13028:13182   */\n    tag_261:\n        /* \"#utility.yul\":13042:13048   */\n      dup4\n        /* \"#utility.yul\":13039:13040   */\n      dup2\n        /* \"#utility.yul\":13036:13049   */\n      lt\n        /* \"#utility.yul\":13028:13182   */\n      iszero\n      tag_263\n      jumpi\n        /* \"#utility.yul\":13116:13123   */\n      dup2\n        /* \"#utility.yul\":13110:13124   */\n      sload\n        /* \"#utility.yul\":13106:13107   */\n      dup2\n        /* \"#utility.yul\":13101:13104   */\n      dup10\n        /* \"#utility.yul\":13097:13108   */\n      add\n        /* \"#utility.yul\":13090:13125   */\n      mstore\n        /* \"#utility.yul\":13166:13167   */\n      0x01\n        /* \"#utility.yul\":13157:13164   */\n      dup3\n        /* \"#utility.yul\":13153:13168   */\n      add\n        /* \"#utility.yul\":13142:13168   */\n      swap2\n      pop\n        /* \"#utility.yul\":13064:13068   */\n      0x20\n        /* \"#utility.yul\":13061:13062   */\n      dup2\n        /* \"#utility.yul\":13057:13069   */\n      add\n        /* \"#utility.yul\":13052:13069   */\n      swap1\n      pop\n        /* \"#utility.yul\":13028:13182   */\n      jump(tag_261)\n    tag_263:\n        /* \"#utility.yul\":13211:13217   */\n      dup4\n        /* \"#utility.yul\":13206:13209   */\n      dup9\n        /* \"#utility.yul\":13202:13218   */\n      add\n        /* \"#utility.yul\":13195:13218   */\n      swap6\n      pop\n        /* \"#utility.yul\":12894:13228   */\n      pop\n      pop\n        /* \"#utility.yul\":12679:13228   */\n    tag_257:\n      pop\n        /* \"#utility.yul\":12467:13234   */\n      pop\n      pop\n        /* \"#utility.yul\":12360:13234   */\n      swap3\n      swap2\n      pop\n      pop\n      jump\t// out\n        /* \"#utility.yul\":13240:13509   */\n    tag_54:\n        /* \"#utility.yul\":13369:13372   */\n      0x00\n        /* \"#utility.yul\":13391:13483   */\n      tag_265\n        /* \"#utility.yul\":13479:13482   */\n      dup3\n        /* \"#utility.yul\":13470:13476   */\n      dup5\n        /* \"#utility.yul\":13391:13483   */\n      tag_121\n      jump\t// in\n    tag_265:\n        /* \"#utility.yul\":13384:13483   */\n      swap2\n      pop\n        /* \"#utility.yul\":13500:13503   */\n      dup2\n        /* \"#utility.yul\":13493:13503   */\n      swap1\n      pop\n        /* \"#utility.yul\":13240:13509   */\n      swap3\n      swap2\n      pop\n      pop\n      jump\t// out\n        /* \"#utility.yul\":13515:13608   */\n    tag_122:\n        /* \"#utility.yul\":13552:13558   */\n      0x00\n        /* \"#utility.yul\":13599:13601   */\n      0x20\n        /* \"#utility.yul\":13594:13596   */\n      0x1f\n        /* \"#utility.yul\":13587:13592   */\n      dup4\n        /* \"#utility.yul\":13583:13597   */\n      add\n        /* \"#utility.yul\":13579:13602   */\n      div\n        /* \"#utility.yul\":13569:13602   */\n      swap1\n      pop\n        /* \"#utility.yul\":13515:13608   */\n      swap2\n      swap1\n      pop\n      jump\t// out\n        /* \"#utility.yul\":13614:13721   */\n    tag_123:\n        /* \"#utility.yul\":13658:13666   */\n      0x00\n        /* \"#utility.yul\":13708:13713   */\n      dup3\n        /* \"#utility.yul\":13702:13706   */\n      dup3\n        /* \"#utility.yul\":13698:13714   */\n      shl\n        /* \"#utility.yul\":13677:13714   */\n      swap1\n      pop\n        /* \"#utility.yul\":13614:13721   */\n      swap3\n      swap2\n      pop\n      pop\n      jump\t// out\n        /* \"#utility.yul\":13727:14120   */\n    tag_124:\n        /* \"#utility.yul\":13796:13802   */\n      0x00\n        /* \"#utility.yul\":13846:13847   */\n      0x08\n        /* \"#utility.yul\":13834:13844   */\n      dup4\n        /* \"#utility.yul\":13830:13848   */\n      mul\n        /* \"#utility.yul\":13869:13966   */\n      tag_269\n        /* \"#utility.yul\":13899:13965   */\n      0xffffffffffffffffffffffffffffffffffffffffffffffffffffffffffffffff\n        /* \"#utility.yul\":13888:13897   */\n      dup3\n        /* \"#utility.yul\":13869:13966   */\n      tag_123\n      jump\t// in\n    tag_269:\n        /* \"#utility.yul\":13987:14026   */\n      tag_270\n        /* \"#utility.yul\":14017:14025   */\n      dup7\n        /* \"#utility.yul\":14006:14015   */\n      dup4\n        /* \"#utility.yul\":13987:14026   */\n      tag_123\n      jump\t// in\n    tag_270:\n        /* \"#utility.yul\":13975:14026   */\n      swap6\n      pop\n        /* \"#utility.yul\":14059:14063   */\n      dup1\n        /* \"#utility.yul\":14055:14064   */\n      not\n        /* \"#utility.yul\":14048:14053   */\n      dup5\n        /* \"#utility.yul\":14044:14065   */\n      and\n        /* \"#utility.yul\":14035:14065   */\n      swap4\n      pop\n        /* \"#utility.yul\":14108:14112   */\n      dup1\n        /* \"#utility.yul\":14098:14106   */\n      dup7\n        /* \"#utility.yul\":14094:14113   */\n      and\n        /* \"#utility.yul\":14087:14092   */\n      dup5\n        /* \"#utility.yul\":14084:14114   */\n      or\n        /* \"#utility.yul\":14074:14114   */\n      swap3\n      pop\n        /* \"#utility.yul\":13803:14120   */\n      pop\n      pop\n        /* \"#utility.yul\":13727:14120   */\n      swap4\n      swap3\n      pop\n      pop\n      pop\n      jump\t// out\n        /* \"#utility.yul\":14126:14203   */\n    tag_125:\n        /* \"#utility.yul\":14163:14170   */\n      0x00\n        /* \"#utility.yul\":14192:14197   */\n      dup2\n        /* \"#utility.yul\":14181:14197   */\n      swap1\n      pop\n        /* \"#utility.yul\":14126:14203   */\n      swap2\n      swap1\n      pop\n      jump\t// out\n        /* \"#utility.yul\":14209:14269   */\n    tag_126:\n        /* \"#utility.yul\":14237:14240   */\n      0x00\n        /* \"#utility.yul\":14258:14263   */\n      dup2\n        /* \"#utility.yul\":14251:14263   */\n      swap1\n      pop\n        /* \"#utility.yul\":14209:14269   */\n      swap2\n      swap1\n      pop\n      jump\t// out\n        /* \"#utility.yul\":14275:14417   */\n    tag_127:\n        /* \"#utility.yul\":14325:14334   */\n      0x00\n        /* \"#utility.yul\":14358:14411   */\n      tag_274\n        /* \"#utility.yul\":14376:14410   */\n      tag_275\n        /* \"#utility.yul\":14385:14409   */\n      tag_276\n        /* \"#utility.yul\":14403:14408   */\n      dup5\n        /* \"#utility.yul\":14385:14409   */\n      tag_125\n      jump\t// in\n    tag_276:\n        /* \"#utility.yul\":14376:14410   */\n      tag_126\n      jump\t// in\n    tag_275:\n        /* \"#utility.yul\":14358:14411   */\n      tag_125\n      jump\t// in\n    tag_274:\n        /* \"#utility.yul\":14345:14411   */\n      swap1\n      pop\n        /* \"#utility.yul\":14275:14417   */\n      swap2\n      swap1\n      pop\n      jump\t// out\n        /* \"#utility.yul\":14423:14498   */\n    tag_128:\n        /* \"#utility.yul\":14466:14469   */\n      0x00\n        /* \"#utility.yul\":14487:14492   */\n      dup2\n        /* \"#utility.yul\":14480:14492   */\n      swap1\n      pop\n        /* \"#utility.yul\":14423:14498   */\n      swap2\n      swap1\n      pop\n      jump\t// out\n        /* \"#utility.yul\":14504:14773   */\n    tag_129:\n        /* \"#utility.yul\":14614:14653   */\n      tag_279\n        /* \"#utility.yul\":14645:14652   */\n      dup4\n        /* \"#utility.yul\":14614:14653   */\n      tag_127\n      jump\t// in\n    tag_279:\n        /* \"#utility.yul\":14675:14766   */\n      tag_280\n        /* \"#utility.yul\":14724:14765   */\n      tag_281\n        /* \"#utility.yul\":14748:14764   */\n      dup3\n        /* \"#utility.yul\":14724:14765   */\n      tag_128\n      jump\t// in\n    tag_281:\n        /* \"#utility.yul\":14716:14722   */\n      dup5\n        /* \"#utility.yul\":14709:14713   */\n      dup5\n        /* \"#utility.yul\":14703:14714   */\n      sload\n        /* \"#utility.yul\":14675:14766   */\n      tag_124\n      jump\t// in\n    tag_280:\n        /* \"#utility.yul\":14669:14673   */\n      dup3\n        /* \"#utility.yul\":14662:14767   */\n      sstore\n        /* \"#utility.yul\":14580:14773   */\n      pop\n        /* \"#utility.yul\":14504:14773   */\n      pop\n      pop\n      pop\n      jump\t// out\n        /* \"#utility.yul\":14779:14852   */\n    tag_130:\n        /* \"#utility.yul\":14824:14827   */\n      0x00\n        /* \"#utility.yul\":14845:14846   */\n      0x00\n        /* \"#utility.yul\":14838:14846   */\n      swap1\n      pop\n        /* \"#utility.yul\":14779:14852   */\n      swap1\n      jump\t// out\n        /* \"#utility.yul\":14858:15047   */\n    tag_131:\n        /* \"#utility.yul\":14935:14967   */\n      tag_284\n      tag_130\n      jump\t// in\n    tag_284:\n        /* \"#utility.yul\":14976:15041   */\n      tag_285\n        /* \"#utility.yul\":15034:15040   */\n      dup2\n        /* \"#utility.yul\":15026:15032   */\n      dup5\n        /* \"#utility.yul\":15020:15024   */\n      dup5\n        /* \"#utility.yul\":14976:15041   */\n      tag_129\n      jump\t// in\n    tag_285:\n        /* \"#utility.yul\":14911:15047   */\n      pop\n        /* \"#utility.yul\":14858:15047   */\n      pop\n      pop\n      jump\t// out\n        /* \"#utility.yul\":15053:15239   */\n    tag_132:\n        /* \"#utility.yul\":15113:15233   */\n    tag_287:\n        /* \"#utility.yul\":15130:15133   */\n      dup2\n        /* \"#utility.yul\":15123:15128   */\n      dup2\n        /* \"#utility.yul\":15120:15134   */\n      lt\n        /* \"#utility.yul\":15113:15233   */\n      iszero\n      tag_289\n      jumpi\n        /* \"#utility.yul\":15184:15223   */\n      tag_290\n        /* \"#utility.yul\":15221:15222   */\n      0x00\n        /* \"#utility.yul\":15214:15219   */\n      dup3\n        /* \"#utility.yul\":15184:15223   */\n      tag_131\n      jump\t// in\n    tag_290:\n        /* \"#utility.yul\":15157:15158   */\n      0x01\n        /* \"#utility.yul\":15150:15155   */\n      dup2\n        /* \"#utility.yul\":15146:15159   */\n      add\n        /* \"#utility.yul\":15137:15159   */\n      swap1\n      pop\n        /* \"#utility.yul\":15113:15233   */\n      jump(tag_287)\n    tag_289:\n        /* \"#utility.yul\":15053:15239   */\n      pop\n      pop\n      jump\t// out\n        /* \"#utility.yul\":15245:15788   */\n    tag_133:\n        /* \"#utility.yul\":15346:15348   */\n      0x1f\n        /* \"#utility.yul\":15341:15344   */\n      dup3\n        /* \"#utility.yul\":15338:15349   */\n      gt\n        /* \"#utility.yul\":15335:15781   */\n      iszero\n      tag_292\n      jumpi\n        /* \"#utility.yul\":15380:15418   */\n      tag_293\n        /* \"#utility.yul\":15412:15417   */\n      dup2\n        /* \"#utility.yul\":15380:15418   */\n      tag_120\n      jump\t// in\n    tag_293:\n        /* \"#utility.yul\":15464:15493   */\n      tag_294\n        /* \"#utility.yul\":15482:15492   */\n      dup5\n        /* \"#utility.yul\":15464:15493   */\n      tag_122\n      jump\t// in\n    tag_294:\n        /* \"#utility.yul\":15454:15462   */\n      dup2\n        /* \"#utility.yul\":15450:15494   */\n      add\n        /* \"#utility.yul\":15647:15649   */\n      0x20\n        /* \"#utility.yul\":15635:15645   */\n      dup6\n        /* \"#utility.yul\":15632:15650   */\n      lt\n        /* \"#utility.yul\":15629:15678   */\n      iszero\n      tag_295\n      jumpi\n        /* \"#utility.yul\":15668:15676   */\n      dup2\n        /* \"#utility.yul\":15653:15676   */\n      swap1\n      pop\n        /* \"#utility.yul\":15629:15678   */\n    tag_295:\n        /* \"#utility.yul\":15691:15771   */\n      tag_296\n        /* \"#utility.yul\":15747:15769   */\n      tag_297\n        /* \"#utility.yul\":15765:15768   */\n      dup6\n        /* \"#utility.yul\":15747:15769   */\n      tag_122\n      jump\t// in\n    tag_297:\n        /* \"#utility.yul\":15737:15745   */\n      dup4\n        /* \"#utility.yul\":15733:15770   */\n      add\n        /* \"#utility.yul\":15720:15731   */\n      dup3\n        /* \"#utility.yul\":15691:15771   */\n      tag_132\n      jump\t// in\n    tag_296:\n        /* \"#utility.yul\":15350:15781   */\n      pop\n      pop\n        /* \"#utility.yul\":15335:15781   */\n    tag_292:\n        /* \"#utility.yul\":15245:15788   */\n      pop\n      pop\n      pop\n      jump\t// out\n        /* \"#utility.yul\":15794:15911   */\n    tag_134:\n        /* \"#utility.yul\":15848:15856   */\n      0x00\n        /* \"#utility.yul\":15898:15903   */\n      dup3\n        /* \"#utility.yul\":15892:15896   */\n      dup3\n        /* \"#utility.yul\":15888:15904   */\n      shr\n        /* \"#utility.yul\":15867:15904   */\n      swap1\n      pop\n        /* \"#utility.yul\":15794:15911   */\n      swap3\n      swap2\n      pop\n      pop\n      jump\t// out\n        /* \"#utility.yul\":15917:16086   */\n    tag_135:\n        /* \"#utility.yul\":15961:15967   */\n      0x00\n        /* \"#utility.yul\":15994:16045   */\n      tag_300\n        /* \"#utility.yul\":16042:16043   */\n      0x00\n        /* \"#utility.yul\":16038:16044   */\n      not\n        /* \"#utility.yul\":16030:16035   */\n      dup5\n        /* \"#utility.yul\":16027:16028   */\n      0x08\n        /* \"#utility.yul\":16023:16036   */\n      mul\n        /* \"#utility.yul\":15994:16045   */\n      tag_134\n      jump\t// in\n    tag_300:\n        /* \"#utility.yul\":15990:16046   */\n      not\n        /* \"#utility.yul\":16075:16079   */\n      dup1\n        /* \"#utility.yul\":16069:16073   */\n      dup4\n        /* \"#utility.yul\":16065:16080   */\n      and\n        /* \"#utility.yul\":16055:16080   */\n      swap2\n      pop\n        /* \"#utility.yul\":15968:16086   */\n      pop\n        /* \"#utility.yul\":15917:16086   */\n      swap3\n      swap2\n      pop\n      pop\n      jump\t// out\n        /* \"#utility.yul\":16091:16386   */\n    tag_136:\n        /* \"#utility.yul\":16167:16171   */\n      0x00\n        /* \"#utility.yul\":16313:16342   */\n      tag_302\n        /* \"#utility.yul\":16338:16341   */\n      dup4\n        /* \"#utility.yul\":16332:16336   */\n      dup4\n        /* \"#utility.yul\":16313:16342   */\n      tag_135\n      jump\t// in\n    tag_302:\n        /* \"#utility.yul\":16305:16342   */\n      swap2\n      pop\n        /* \"#utility.yul\":16375:16378   */\n      dup3\n        /* \"#utility.yul\":16372:16373   */\n      0x02\n        /* \"#utility.yul\":16368:16379   */\n      mul\n        /* \"#utility.yul\":16362:16366   */\n      dup3\n        /* \"#utility.yul\":16359:16380   */\n      or\n        /* \"#utility.yul\":16351:16380   */\n      swap1\n      pop\n        /* \"#utility.yul\":16091:16386   */\n      swap3\n      swap2\n      pop\n      pop\n      jump\t// out\n        /* \"#utility.yul\":16391:17786   */\n    tag_56:\n        /* \"#utility.yul\":16508:16545   */\n      tag_304\n        /* \"#utility.yul\":16541:16544   */\n      dup3\n        /* \"#utility.yul\":16508:16545   */\n      tag_90\n      jump\t// in\n    tag_304:\n        /* \"#utility.yul\":16610:16628   */\n      0xffffffffffffffff\n        /* \"#utility.yul\":16602:16608   */\n      dup2\n        /* \"#utility.yul\":16599:16629   */\n      gt\n        /* \"#utility.yul\":16596:16652   */\n      iszero\n      tag_305\n      jumpi\n        /* \"#utility.yul\":16632:16650   */\n      tag_306\n      tag_98\n      jump\t// in\n    tag_306:\n        /* \"#utility.yul\":16596:16652   */\n    tag_305:\n        /* \"#utility.yul\":16676:16714   */\n      tag_307\n        /* \"#utility.yul\":16708:16712   */\n      dup3\n        /* \"#utility.yul\":16702:16713   */\n      sload\n        /* \"#utility.yul\":16676:16714   */\n      tag_28\n      jump\t// in\n    tag_307:\n        /* \"#utility.yul\":16761:16828   */\n      tag_308\n        /* \"#utility.yul\":16821:16827   */\n      dup3\n        /* \"#utility.yul\":16813:16819   */\n      dup3\n        /* \"#utility.yul\":16807:16811   */\n      dup6\n        /* \"#utility.yul\":16761:16828   */\n      tag_133\n      jump\t// in\n    tag_308:\n        /* \"#utility.yul\":16855:16856   */\n      0x00\n        /* \"#utility.yul\":16879:16883   */\n      0x20\n        /* \"#utility.yul\":16866:16883   */\n      swap1\n      pop\n        /* \"#utility.yul\":16911:16913   */\n      0x1f\n        /* \"#utility.yul\":16903:16909   */\n      dup4\n        /* \"#utility.yul\":16900:16914   */\n      gt\n        /* \"#utility.yul\":16928:16929   */\n      0x01\n        /* \"#utility.yul\":16923:17541   */\n      dup2\n      eq\n      tag_310\n      jumpi\n        /* \"#utility.yul\":17585:17586   */\n      0x00\n        /* \"#utility.yul\":17602:17608   */\n      dup5\n        /* \"#utility.yul\":17599:17676   */\n      iszero\n      tag_311\n      jumpi\n        /* \"#utility.yul\":17651:17660   */\n      dup3\n        /* \"#utility.yul\":17646:17649   */\n      dup8\n        /* \"#utility.yul\":17642:17661   */\n      add\n        /* \"#utility.yul\":17636:17662   */\n      mload\n        /* \"#utility.yul\":17627:17662   */\n      swap1\n      pop\n        /* \"#utility.yul\":17599:17676   */\n    tag_311:\n        /* \"#utility.yul\":17702:17769   */\n      tag_312\n        /* \"#utility.yul\":17762:17768   */\n      dup6\n        /* \"#utility.yul\":17755:17760   */\n      dup3\n        /* \"#utility.yul\":17702:17769   */\n      tag_136\n      jump\t// in\n    tag_312:\n        /* \"#utility.yul\":17696:17700   */\n      dup7\n        /* \"#utility.yul\":17689:17770   */\n      sstore\n        /* \"#utility.yul\":17558:17780   */\n      pop\n        /* \"#utility.yul\":16893:17780   */\n      jump(tag_309)\n        /* \"#utility.yul\":16923:17541   */\n    tag_310:\n        /* \"#utility.yul\":16975:16979   */\n      0x1f\n        /* \"#utility.yul\":16971:16980   */\n      not\n        /* \"#utility.yul\":16963:16969   */\n      dup5\n        /* \"#utility.yul\":16959:16981   */\n      and\n        /* \"#utility.yul\":17009:17046   */\n      tag_313\n        /* \"#utility.yul\":17041:17045   */\n      dup7\n        /* \"#utility.yul\":17009:17046   */\n      tag_120\n      jump\t// in\n    tag_313:\n        /* \"#utility.yul\":17068:17069   */\n      0x00\n        /* \"#utility.yul\":17082:17290   */\n    tag_314:\n        /* \"#utility.yul\":17096:17103   */\n      dup3\n        /* \"#utility.yul\":17093:17094   */\n      dup2\n        /* \"#utility.yul\":17090:17104   */\n      lt\n        /* \"#utility.yul\":17082:17290   */\n      iszero\n      tag_316\n      jumpi\n        /* \"#utility.yul\":17175:17184   */\n      dup5\n        /* \"#utility.yul\":17170:17173   */\n      dup10\n        /* \"#utility.yul\":17166:17185   */\n      add\n        /* \"#utility.yul\":17160:17186   */\n      mload\n        /* \"#utility.yul\":17152:17158   */\n      dup3\n        /* \"#utility.yul\":17145:17187   */\n      sstore\n        /* \"#utility.yul\":17226:17227   */\n      0x01\n        /* \"#utility.yul\":17218:17224   */\n      dup3\n        /* \"#utility.yul\":17214:17228   */\n      add\n        /* \"#utility.yul\":17204:17228   */\n      swap2\n      pop\n        /* \"#utility.yul\":17273:17275   */\n      0x20\n        /* \"#utility.yul\":17262:17271   */\n      dup6\n        /* \"#utility.yul\":17258:17276   */\n      add\n        /* \"#utility.yul\":17245:17276   */\n      swap5\n      pop\n        /* \"#utility.yul\":17119:17123   */\n      0x20\n        /* \"#utility.yul\":17116:17117   */\n      dup2\n        /* \"#utility.yul\":17112:17124   */\n      add\n        /* \"#utility.yul\":17107:17124   */\n      swap1\n      pop\n        /* \"#utility.yul\":17082:17290   */\n      jump(tag_314)\n    tag_316:\n        /* \"#utility.yul\":17318:17324   */\n      dup7\n        /* \"#utility.yul\":17309:17316   */\n      dup4\n        /* \"#utility.yul\":17306:17325   */\n      lt\n        /* \"#utility.yul\":17303:17482   */\n      iszero\n      tag_317\n      jumpi\n        /* \"#utility.yul\":17376:17385   */\n      dup5\n        /* \"#utility.yul\":17371:17374   */\n      dup10\n        /* \"#utility.yul\":17367:17386   */\n      add\n        /* \"#utility.yul\":17361:17387   */\n      mload\n        /* \"#utility.yul\":17419:17467   */\n      tag_318\n        /* \"#utility.yul\":17461:17465   */\n      0x1f\n        /* \"#utility.yul\":17453:17459   */\n      dup10\n        /* \"#utility.yul\":17449:17466   */\n      and\n        /* \"#utility.yul\":17438:17447   */\n      dup3\n        /* \"#utility.yul\":17419:17467   */\n      tag_135\n      jump\t// in\n    tag_318:\n        /* \"#utility.yul\":17411:17417   */\n      dup4\n        /* \"#utility.yul\":17404:17468   */\n      sstore\n        /* \"#utility.yul\":17326:17482   */\n      pop\n        /* \"#utility.yul\":17303:17482   */\n    tag_317:\n        /* \"#utility.yul\":17528:17529   */\n      0x01\n        /* \"#utility.yul\":17524:17525   */\n      0x02\n        /* \"#utility.yul\":17516:17522   */\n      dup9\n        /* \"#utility.yul\":17512:17526   */\n      mul\n        /* \"#utility.yul\":17508:17530   */\n      add\n        /* \"#utility.yul\":17502:17506   */\n      dup9\n        /* \"#utility.yul\":17495:17531   */\n      sstore\n        /* \"#utility.yul\":16930:17541   */\n      pop\n      pop\n      pop\n        /* \"#utility.yul\":16893:17780   */\n    tag_309:\n      pop\n        /* \"#utility.yul\":16483:17786   */\n      pop\n      pop\n      pop\n        /* \"#utility.yul\":16391:17786   */\n      pop\n      pop\n      jump\t// out\n        /* \"#utility.yul\":17792:17910   */\n    tag_137:\n        /* \"#utility.yul\":17879:17903   */\n      tag_320\n        /* \"#utility.yul\":17897:17902   */\n      dup2\n        /* \"#utility.yul\":17879:17903   */\n      tag_87\n      jump\t// in\n    tag_320:\n        /* \"#utility.yul\":17874:17877   */\n      dup3\n        /* \"#utility.yul\":17867:17904   */\n      mstore\n        /* \"#utility.yul\":17792:17910   */\n      pop\n      pop\n      jump\t// out\n        /* \"#utility.yul\":17916:18293   */\n    tag_138:\n        /* \"#utility.yul\":18004:18007   */\n      0x00\n        /* \"#utility.yul\":18032:18071   */\n      tag_322\n        /* \"#utility.yul\":18065:18070   */\n      dup3\n        /* \"#utility.yul\":18032:18071   */\n      tag_90\n      jump\t// in\n    tag_322:\n        /* \"#utility.yul\":18087:18158   */\n      tag_323\n        /* \"#utility.yul\":18151:18157   */\n      dup2\n        /* \"#utility.yul\":18146:18149   */\n      dup6\n        /* \"#utility.yul\":18087:18158   */\n      tag_113\n      jump\t// in\n    tag_323:\n        /* \"#utility.yul\":18080:18158   */\n      swap4\n      pop\n        /* \"#utility.yul\":18167:18232   */\n      tag_324\n        /* \"#utility.yul\":18225:18231   */\n      dup2\n        /* \"#utility.yul\":18220:18223   */\n      dup6\n        /* \"#utility.yul\":18213:18217   */\n      0x20\n        /* \"#utility.yul\":18206:18211   */\n      dup7\n        /* \"#utility.yul\":18202:18218   */\n      add\n        /* \"#utility.yul\":18167:18232   */\n      tag_92\n      jump\t// in\n    tag_324:\n        /* \"#utility.yul\":18257:18286   */\n      tag_325\n        /* \"#utility.yul\":18279:18285   */\n      dup2\n        /* \"#utility.yul\":18257:18286   */\n      tag_93\n      jump\t// in\n    tag_325:\n        /* \"#utility.yul\":18252:18255   */\n      dup5\n        /* \"#utility.yul\":18248:18287   */\n      add\n        /* \"#utility.yul\":18241:18287   */\n      swap2\n      pop\n        /* \"#utility.yul\":18008:18293   */\n      pop\n        /* \"#utility.yul\":17916:18293   */\n      swap3\n      swap2\n      pop\n      pop\n      jump\t// out\n        /* \"#utility.yul\":18299:19125   */\n    tag_61:\n        /* \"#utility.yul\":18536:18540   */\n      0x00\n        /* \"#utility.yul\":18574:18577   */\n      0x80\n        /* \"#utility.yul\":18563:18572   */\n      dup3\n        /* \"#utility.yul\":18559:18578   */\n      add\n        /* \"#utility.yul\":18551:18578   */\n      swap1\n      pop\n        /* \"#utility.yul\":18588:18659   */\n      tag_327\n        /* \"#utility.yul\":18656:18657   */\n      0x00\n        /* \"#utility.yul\":18645:18654   */\n      dup4\n        /* \"#utility.yul\":18641:18658   */\n      add\n        /* \"#utility.yul\":18632:18638   */\n      dup8\n        /* \"#utility.yul\":18588:18659   */\n      tag_137\n      jump\t// in\n    tag_327:\n        /* \"#utility.yul\":18706:18715   */\n      dup2\n        /* \"#utility.yul\":18700:18704   */\n      dup2\n        /* \"#utility.yul\":18696:18716   */\n      sub\n        /* \"#utility.yul\":18691:18693   */\n      0x20\n        /* \"#utility.yul\":18680:18689   */\n      dup4\n        /* \"#utility.yul\":18676:18694   */\n      add\n        /* \"#utility.yul\":18669:18717   */\n      mstore\n        /* \"#utility.yul\":18734:18812   */\n      tag_328\n        /* \"#utility.yul\":18807:18811   */\n      dup2\n        /* \"#utility.yul\":18798:18804   */\n      dup7\n        /* \"#utility.yul\":18734:18812   */\n      tag_138\n      jump\t// in\n    tag_328:\n        /* \"#utility.yul\":18726:18812   */\n      swap1\n      pop\n        /* \"#utility.yul\":18859:18868   */\n      dup2\n        /* \"#utility.yul\":18853:18857   */\n      dup2\n        /* \"#utility.yul\":18849:18869   */\n      sub\n        /* \"#utility.yul\":18844:18846   */\n      0x40\n        /* \"#utility.yul\":18833:18842   */\n      dup4\n        /* \"#utility.yul\":18829:18847   */\n      add\n        /* \"#utility.yul\":18822:18870   */\n      mstore\n        /* \"#utility.yul\":18887:18965   */\n      tag_329\n        /* \"#utility.yul\":18960:18964   */\n      dup2\n        /* \"#utility.yul\":18951:18957   */\n      dup6\n        /* \"#utility.yul\":18887:18965   */\n      tag_138\n      jump\t// in\n    tag_329:\n        /* \"#utility.yul\":18879:18965   */\n      swap1\n      pop\n        /* \"#utility.yul\":19012:19021   */\n      dup2\n        /* \"#utility.yul\":19006:19010   */\n      dup2\n        /* \"#utility.yul\":19002:19022   */\n      sub\n        /* \"#utility.yul\":18997:18999   */\n      0x60\n        /* \"#utility.yul\":18986:18995   */\n      dup4\n        /* \"#utility.yul\":18982:19000   */\n      add\n        /* \"#utility.yul\":18975:19023   */\n      mstore\n        /* \"#utility.yul\":19040:19118   */\n      tag_330\n        /* \"#utility.yul\":19113:19117   */\n      dup2\n        /* \"#utility.yul\":19104:19110   */\n      dup5\n        /* \"#utility.yul\":19040:19118   */\n      tag_138\n      jump\t// in\n    tag_330:\n        /* \"#utility.yul\":19032:19118   */\n      swap1\n      pop\n        /* \"#utility.yul\":18299:19125   */\n      swap6\n      swap5\n      pop\n      pop\n      pop\n      pop\n      pop\n      jump\t// out\n        /* \"#utility.yul\":19131:19357   */\n    tag_139:\n        /* \"#utility.yul\":19271:19305   */\n      0x50726f66696c6520616c72656164792065786973747320666f72207468697320\n        /* \"#utility.yul\":19267:19268   */\n      0x00\n        /* \"#utility.yul\":19259:19265   */\n      dup3\n        /* \"#utility.yul\":19255:19269   */\n      add\n        /* \"#utility.yul\":19248:19306   */\n      mstore\n        /* \"#utility.yul\":19340:19349   */\n      0x6164647265737300000000000000000000000000000000000000000000000000\n        /* \"#utility.yul\":19335:19337   */\n      0x20\n        /* \"#utility.yul\":19327:19333   */\n      dup3\n        /* \"#utility.yul\":19323:19338   */\n      add\n        /* \"#utility.yul\":19316:19350   */\n      mstore\n        /* \"#utility.yul\":19131:19357   */\n      pop\n      jump\t// out\n        /* \"#utility.yul\":19363:19729   */\n    tag_140:\n        /* \"#utility.yul\":19505:19508   */\n      0x00\n        /* \"#utility.yul\":19526:19593   */\n      tag_333\n        /* \"#utility.yul\":19590:19592   */\n      0x27\n        /* \"#utility.yul\":19585:19588   */\n      dup4\n        /* \"#utility.yul\":19526:19593   */\n      tag_113\n      jump\t// in\n    tag_333:\n        /* \"#utility.yul\":19519:19593   */\n      swap2\n      pop\n        /* \"#utility.yul\":19602:19695   */\n      tag_334\n        /* \"#utility.yul\":19691:19694   */\n      dup3\n        /* \"#utility.yul\":19602:19695   */\n      tag_139\n      jump\t// in\n    tag_334:\n        /* \"#utility.yul\":19720:19722   */\n      0x40\n        /* \"#utility.yul\":19715:19718   */\n      dup3\n        /* \"#utility.yul\":19711:19723   */\n      add\n        /* \"#utility.yul\":19704:19723   */\n      swap1\n      pop\n        /* \"#utility.yul\":19363:19729   */\n      swap2\n      swap1\n      pop\n      jump\t// out\n        /* \"#utility.yul\":19735:20154   */\n    tag_69:\n        /* \"#utility.yul\":19901:19905   */\n      0x00\n        /* \"#utility.yul\":19939:19941   */\n      0x20\n        /* \"#utility.yul\":19928:19937   */\n      dup3\n        /* \"#utility.yul\":19924:19942   */\n      add\n        /* \"#utility.yul\":19916:19942   */\n      swap1\n      pop\n        /* \"#utility.yul\":19988:19997   */\n      dup2\n        /* \"#utility.yul\":19982:19986   */\n      dup2\n        /* \"#utility.yul\":19978:19998   */\n      sub\n        /* \"#utility.yul\":19974:19975   */\n      0x00\n        /* \"#utility.yul\":19963:19972   */\n      dup4\n        /* \"#utility.yul\":19959:19976   */\n      add\n        /* \"#utility.yul\":19952:19999   */\n      mstore\n        /* \"#utility.yul\":20016:20147   */\n      tag_336\n        /* \"#utility.yul\":20142:20146   */\n      dup2\n        /* \"#utility.yul\":20016:20147   */\n      tag_140\n      jump\t// in\n    tag_336:\n        /* \"#utility.yul\":20008:20147   */\n      swap1\n      pop\n        /* \"#utility.yul\":19735:20154   */\n      swap2\n      swap1\n      pop\n      jump\t// out\n\n    auxdata: 0xa26469706673582212207cd436dacad151e169de7db2d55cbe41f5841f2af623e6f843c7691b949a4e0d64736f6c634300081b0033\n}\n",
				"bytecode": {
					"linkReferences": {},
					"object": "6080604052348015600e575f5ffd5b506113808061001c5f395ff3fe608060405234801561000f575f5ffd5b506004361061004a575f3560e01c80630f53a4701461004e5780631ebd72ed1461007e578063336b45401461009a5780638747e97b146100b8575b5f5ffd5b610068600480360381019061006391906109c5565b6100d4565b6040516100759190610abb565b60405180910390f35b61009860048036038101906100939190610c07565b6102d9565b005b6100a261059a565b6040516100af9190610d62565b60405180910390f35b6100d260048036038101906100cd9190610c07565b610625565b005b6100dc610939565b5f5f8373ffffffffffffffffffffffffffffffffffffffff1673ffffffffffffffffffffffffffffffffffffffff1681526020019081526020015f206040518060600160405290815f8201805461013290610daf565b80601f016020809104026020016040519081016040528092919081815260200182805461015e90610daf565b80156101a95780601f10610180576101008083540402835291602001916101a9565b820191905f5260205f20905b81548152906001019060200180831161018c57829003601f168201915b505050505081526020016001820180546101c290610daf565b80601f01602080910402602001604051908101604052809291908181526020018280546101ee90610daf565b80156102395780601f1061021057610100808354040283529160200191610239565b820191905f5260205f20905b81548152906001019060200180831161021c57829003601f168201915b5050505050815260200160028201805461025290610daf565b80601f016020809104026020016040519081016040528092919081815260200182805461027e90610daf565b80156102c95780601f106102a0576101008083540402835291602001916102c9565b820191905f5260205f20905b8154815290600101906020018083116102ac57829003601f168201915b5050505050815250509050919050565b825f81511161031d576040517f08c379a000000000000000000000000000000000000000000000000000000000815260040161031490610e39565b60405180910390fd5b5f73ffffffffffffffffffffffffffffffffffffffff166002826040516103449190610e91565b90815260200160405180910390205f9054906101000a900473ffffffffffffffffffffffffffffffffffffffff1673ffffffffffffffffffffffffffffffffffffffff16146103c8576040517f08c379a00000000000000000000000000000000000000000000000000000000081526004016103bf90610ef1565b60405180910390fd5b5f60025f5f3373ffffffffffffffffffffffffffffffffffffffff1673ffffffffffffffffffffffffffffffffffffffff1681526020019081526020015f205f016040516104169190610fa1565b90815260200160405180910390205f6101000a81548173ffffffffffffffffffffffffffffffffffffffff021916908373ffffffffffffffffffffffffffffffffffffffff1602179055506040518060600160405280858152602001848152602001838152505f5f3373ffffffffffffffffffffffffffffffffffffffff1673ffffffffffffffffffffffffffffffffffffffff1681526020019081526020015f205f820151815f0190816104cb919061114e565b5060208201518160010190816104e1919061114e565b5060408201518160020190816104f7919061114e565b509050503360028560405161050c9190610e91565b90815260200160405180910390205f6101000a81548173ffffffffffffffffffffffffffffffffffffffff021916908373ffffffffffffffffffffffffffffffffffffffff1602179055507f6420daf1b58438e85465ef21dee378d307a509caab491149e3f066c5caf1266d3385858560405161058c9493929190611264565b60405180910390a150505050565b6060600180548060200260200160405190810160405280929190818152602001828054801561061b57602002820191905f5260205f20905b815f9054906101000a900473ffffffffffffffffffffffffffffffffffffffff1673ffffffffffffffffffffffffffffffffffffffff16815260200190600101908083116105d2575b5050505050905090565b5f5f5f3373ffffffffffffffffffffffffffffffffffffffff1673ffffffffffffffffffffffffffffffffffffffff1681526020019081526020015f205f01805461066f90610daf565b9050146106b1576040517f08c379a00000000000000000000000000000000000000000000000000000000081526004016106a89061132c565b60405180910390fd5b825f8151116106f5576040517f08c379a00000000000000000000000000000000000000000000000000000000081526004016106ec90610e39565b60405180910390fd5b5f73ffffffffffffffffffffffffffffffffffffffff1660028260405161071c9190610e91565b90815260200160405180910390205f9054906101000a900473ffffffffffffffffffffffffffffffffffffffff1673ffffffffffffffffffffffffffffffffffffffff16146107a0576040517f08c379a000000000000000000000000000000000000000000000000000000000815260040161079790610ef1565b60405180910390fd5b6040518060600160405280858152602001848152602001838152505f5f3373ffffffffffffffffffffffffffffffffffffffff1673ffffffffffffffffffffffffffffffffffffffff1681526020019081526020015f205f820151815f01908161080a919061114e565b506020820151816001019081610820919061114e565b506040820151816002019081610836919061114e565b50905050600133908060018154018082558091505060019003905f5260205f20015f9091909190916101000a81548173ffffffffffffffffffffffffffffffffffffffff021916908373ffffffffffffffffffffffffffffffffffffffff160217905550336002856040516108ab9190610e91565b90815260200160405180910390205f6101000a81548173ffffffffffffffffffffffffffffffffffffffff021916908373ffffffffffffffffffffffffffffffffffffffff1602179055507f77c378673324822ad159b021c3ce202d7676946ff3967162024b660a493e64b33385858560405161092b9493929190611264565b60405180910390a150505050565b60405180606001604052806060815260200160608152602001606081525090565b5f604051905090565b5f5ffd5b5f5ffd5b5f73ffffffffffffffffffffffffffffffffffffffff82169050919050565b5f6109948261096b565b9050919050565b6109a48161098a565b81146109ae575f5ffd5b50565b5f813590506109bf8161099b565b92915050565b5f602082840312156109da576109d9610963565b5b5f6109e7848285016109b1565b91505092915050565b5f81519050919050565b5f82825260208201905092915050565b8281835e5f83830152505050565b5f601f19601f8301169050919050565b5f610a32826109f0565b610a3c81856109fa565b9350610a4c818560208601610a0a565b610a5581610a18565b840191505092915050565b5f606083015f8301518482035f860152610a7a8282610a28565b91505060208301518482036020860152610a948282610a28565b91505060408301518482036040860152610aae8282610a28565b9150508091505092915050565b5f6020820190508181035f830152610ad38184610a60565b905092915050565b5f5ffd5b5f5ffd5b7f4e487b71000000000000000000000000000000000000000000000000000000005f52604160045260245ffd5b610b1982610a18565b810181811067ffffffffffffffff82111715610b3857610b37610ae3565b5b80604052505050565b5f610b4a61095a565b9050610b568282610b10565b919050565b5f67ffffffffffffffff821115610b7557610b74610ae3565b5b610b7e82610a18565b9050602081019050919050565b828183375f83830152505050565b5f610bab610ba684610b5b565b610b41565b905082815260208101848484011115610bc757610bc6610adf565b5b610bd2848285610b8b565b509392505050565b5f82601f830112610bee57610bed610adb565b5b8135610bfe848260208601610b99565b91505092915050565b5f5f5f60608486031215610c1e57610c1d610963565b5b5f84013567ffffffffffffffff811115610c3b57610c3a610967565b5b610c4786828701610bda565b935050602084013567ffffffffffffffff811115610c6857610c67610967565b5b610c7486828701610bda565b925050604084013567ffffffffffffffff811115610c9557610c94610967565b5b610ca186828701610bda565b9150509250925092565b5f81519050919050565b5f82825260208201905092915050565b5f819050602082019050919050565b610cdd8161098a565b82525050565b5f610cee8383610cd4565b60208301905092915050565b5f602082019050919050565b5f610d1082610cab565b610d1a8185610cb5565b9350610d2583610cc5565b805f5b83811015610d55578151610d3c8882610ce3565b9750610d4783610cfa565b925050600181019050610d28565b5085935050505092915050565b5f6020820190508181035f830152610d7a8184610d06565b905092915050565b7f4e487b71000000000000000000000000000000000000000000000000000000005f52602260045260245ffd5b5f6002820490506001821680610dc657607f821691505b602082108103610dd957610dd8610d82565b5b50919050565b5f82825260208201905092915050565b7f557365726e616d652069732072657175697265640000000000000000000000005f82015250565b5f610e23601483610ddf565b9150610e2e82610def565b602082019050919050565b5f6020820190508181035f830152610e5081610e17565b9050919050565b5f81905092915050565b5f610e6b826109f0565b610e758185610e57565b9350610e85818560208601610a0a565b80840191505092915050565b5f610e9c8284610e61565b915081905092915050565b7f557365726e616d652069732074616b656e0000000000000000000000000000005f82015250565b5f610edb601183610ddf565b9150610ee682610ea7565b602082019050919050565b5f6020820190508181035f830152610f0881610ecf565b9050919050565b5f819050815f5260205f209050919050565b5f8154610f2d81610daf565b610f378186610e57565b9450600182165f8114610f515760018114610f6657610f98565b60ff1983168652811515820286019350610f98565b610f6f85610f0f565b5f5b83811015610f9057815481890152600182019150602081019050610f71565b838801955050505b50505092915050565b5f610fac8284610f21565b915081905092915050565b5f6020601f8301049050919050565b5f82821b905092915050565b5f600883026110017fffffffffffffffffffffffffffffffffffffffffffffffffffffffffffffffff82610fc6565b61100b8683610fc6565b95508019841693508086168417925050509392505050565b5f819050919050565b5f819050919050565b5f61104f61104a61104584611023565b61102c565b611023565b9050919050565b5f819050919050565b61106883611035565b61107c61107482611056565b848454610fd2565b825550505050565b5f5f905090565b611093611084565b61109e81848461105f565b505050565b5b818110156110c1576110b65f8261108b565b6001810190506110a4565b5050565b601f821115611106576110d781610f0f565b6110e084610fb7565b810160208510156110ef578190505b6111036110fb85610fb7565b8301826110a3565b50505b505050565b5f82821c905092915050565b5f6111265f198460080261110b565b1980831691505092915050565b5f61113e8383611117565b9150826002028217905092915050565b611157826109f0565b67ffffffffffffffff8111156111705761116f610ae3565b5b61117a8254610daf565b6111858282856110c5565b5f60209050601f8311600181146111b6575f84156111a4578287015190505b6111ae8582611133565b865550611215565b601f1984166111c486610f0f565b5f5b828110156111eb578489015182556001820191506020850194506020810190506111c6565b868310156112085784890151611204601f891682611117565b8355505b6001600288020188555050505b505050505050565b6112268161098a565b82525050565b5f611236826109f0565b6112408185610ddf565b9350611250818560208601610a0a565b61125981610a18565b840191505092915050565b5f6080820190506112775f83018761121d565b8181036020830152611289818661122c565b9050818103604083015261129d818561122c565b905081810360608301526112b1818461122c565b905095945050505050565b7f50726f66696c6520616c72656164792065786973747320666f722074686973205f8201527f6164647265737300000000000000000000000000000000000000000000000000602082015250565b5f611316602783610ddf565b9150611321826112bc565b604082019050919050565b5f6020820190508181035f8301526113438161130a565b905091905056fea26469706673582212207cd436dacad151e169de7db2d55cbe41f5841f2af623e6f843c7691b949a4e0d64736f6c634300081b0033",
					"opcodes": "PUSH1 0x80 PUSH1 0x40 MSTORE CALLVALUE DUP1 ISZERO PUSH1 0xE JUMPI PUSH0 PUSH0 REVERT JUMPDEST POP PUSH2 0x1380 DUP1 PUSH2 0x1C PUSH0 CODECOPY PUSH0 RETURN INVALID PUSH1 0x80 PUSH1 0x40 MSTORE CALLVALUE DUP1 ISZERO PUSH2 0xF JUMPI PUSH0 PUSH0 REVERT JUMPDEST POP PUSH1 0x4 CALLDATASIZE LT PUSH2 0x4A JUMPI PUSH0 CALLDATALOAD PUSH1 0xE0 SHR DUP1 PUSH4 0xF53A470 EQ PUSH2 0x4E JUMPI DUP1 PUSH4 0x1EBD72ED EQ PUSH2 0x7E JUMPI DUP1 PUSH4 0x336B4540 EQ PUSH2 0x9A JUMPI DUP1 PUSH4 0x8747E97B EQ PUSH2 0xB8 JUMPI JUMPDEST PUSH0 PUSH0 REVERT JUMPDEST PUSH2 0x68 PUSH1 0x4 DUP1 CALLDATASIZE SUB DUP2 ADD SWAP1 PUSH2 0x63 SWAP2 SWAP1 PUSH2 0x9C5 JUMP JUMPDEST PUSH2 0xD4 JUMP JUMPDEST PUSH1 0x40 MLOAD PUSH2 0x75 SWAP2 SWAP1 PUSH2 0xABB JUMP JUMPDEST PUSH1 0x40 MLOAD DUP1 SWAP2 SUB SWAP1 RETURN JUMPDEST PUSH2 0x98 PUSH1 0x4 DUP1 CALLDATASIZE SUB DUP2 ADD SWAP1 PUSH2 0x93 SWAP2 SWAP1 PUSH2 0xC07 JUMP JUMPDEST PUSH2 0x2D9 JUMP JUMPDEST STOP JUMPDEST PUSH2 0xA2 PUSH2 0x59A JUMP JUMPDEST PUSH1 0x40 MLOAD PUSH2 0xAF SWAP2 SWAP1 PUSH2 0xD62 JUMP JUMPDEST PUSH1 0x40 MLOAD DUP1 SWAP2 SUB SWAP1 RETURN JUMPDEST PUSH2 0xD2 PUSH1 0x4 DUP1 CALLDATASIZE SUB DUP2 ADD SWAP1 PUSH2 0xCD SWAP2 SWAP1 PUSH2 0xC07 JUMP JUMPDEST PUSH2 0x625 JUMP JUMPDEST STOP JUMPDEST PUSH2 0xDC PUSH2 0x939 JUMP JUMPDEST PUSH0 PUSH0 DUP4 PUSH20 0xFFFFFFFFFFFFFFFFFFFFFFFFFFFFFFFFFFFFFFFF AND PUSH20 0xFFFFFFFFFFFFFFFFFFFFFFFFFFFFFFFFFFFFFFFF AND DUP2 MSTORE PUSH1 0x20 ADD SWAP1 DUP2 MSTORE PUSH1 0x20 ADD PUSH0 KECCAK256 PUSH1 0x40 MLOAD DUP1 PUSH1 0x60 ADD PUSH1 0x40 MSTORE SWAP1 DUP2 PUSH0 DUP3 ADD DUP1 SLOAD PUSH2 0x132 SWAP1 PUSH2 0xDAF JUMP JUMPDEST DUP1 PUSH1 0x1F ADD PUSH1 0x20 DUP1 SWAP2 DIV MUL PUSH1 0x20 ADD PUSH1 0x40 MLOAD SWAP1 DUP2 ADD PUSH1 0x40 MSTORE DUP1 SWAP3 SWAP2 SWAP1 DUP2 DUP2 MSTORE PUSH1 0x20 ADD DUP3 DUP1 SLOAD PUSH2 0x15E SWAP1 PUSH2 0xDAF JUMP JUMPDEST DUP1 ISZERO PUSH2 0x1A9 JUMPI DUP1 PUSH1 0x1F LT PUSH2 0x180 JUMPI PUSH2 0x100 DUP1 DUP4 SLOAD DIV MUL DUP4 MSTORE SWAP2 PUSH1 0x20 ADD SWAP2 PUSH2 0x1A9 JUMP JUMPDEST DUP3 ADD SWAP2 SWAP1 PUSH0 MSTORE PUSH1 0x20 PUSH0 KECCAK256 SWAP1 JUMPDEST DUP2 SLOAD DUP2 MSTORE SWAP1 PUSH1 0x1 ADD SWAP1 PUSH1 0x20 ADD DUP1 DUP4 GT PUSH2 0x18C JUMPI DUP3 SWAP1 SUB PUSH1 0x1F AND DUP3 ADD SWAP2 JUMPDEST POP POP POP POP POP DUP2 MSTORE PUSH1 0x20 ADD PUSH1 0x1 DUP3 ADD DUP1 SLOAD PUSH2 0x1C2 SWAP1 PUSH2 0xDAF JUMP JUMPDEST DUP1 PUSH1 0x1F ADD PUSH1 0x20 DUP1 SWAP2 DIV MUL PUSH1 0x20 ADD PUSH1 0x40 MLOAD SWAP1 DUP2 ADD PUSH1 0x40 MSTORE DUP1 SWAP3 SWAP2 SWAP1 DUP2 DUP2 MSTORE PUSH1 0x20 ADD DUP3 DUP1 SLOAD PUSH2 0x1EE SWAP1 PUSH2 0xDAF JUMP JUMPDEST DUP1 ISZERO PUSH2 0x239 JUMPI DUP1 PUSH1 0x1F LT PUSH2 0x210 JUMPI PUSH2 0x100 DUP1 DUP4 SLOAD DIV MUL DUP4 MSTORE SWAP2 PUSH1 0x20 ADD SWAP2 PUSH2 0x239 JUMP JUMPDEST DUP3 ADD SWAP2 SWAP1 PUSH0 MSTORE PUSH1 0x20 PUSH0 KECCAK256 SWAP1 JUMPDEST DUP2 SLOAD DUP2 MSTORE SWAP1 PUSH1 0x1 ADD SWAP1 PUSH1 0x20 ADD DUP1 DUP4 GT PUSH2 0x21C JUMPI DUP3 SWAP1 SUB PUSH1 0x1F AND DUP3 ADD SWAP2 JUMPDEST POP POP POP POP POP DUP2 MSTORE PUSH1 0x20 ADD PUSH1 0x2 DUP3 ADD DUP1 SLOAD PUSH2 0x252 SWAP1 PUSH2 0xDAF JUMP JUMPDEST DUP1 PUSH1 0x1F ADD PUSH1 0x20 DUP1 SWAP2 DIV MUL PUSH1 0x20 ADD PUSH1 0x40 MLOAD SWAP1 DUP2 ADD PUSH1 0x40 MSTORE DUP1 SWAP3 SWAP2 SWAP1 DUP2 DUP2 MSTORE PUSH1 0x20 ADD DUP3 DUP1 SLOAD PUSH2 0x27E SWAP1 PUSH2 0xDAF JUMP JUMPDEST DUP1 ISZERO PUSH2 0x2C9 JUMPI DUP1 PUSH1 0x1F LT PUSH2 0x2A0 JUMPI PUSH2 0x100 DUP1 DUP4 SLOAD DIV MUL DUP4 MSTORE SWAP2 PUSH1 0x20 ADD SWAP2 PUSH2 0x2C9 JUMP JUMPDEST DUP3 ADD SWAP2 SWAP1 PUSH0 MSTORE PUSH1 0x20 PUSH0 KECCAK256 SWAP1 JUMPDEST DUP2 SLOAD DUP2 MSTORE SWAP1 PUSH1 0x1 ADD SWAP1 PUSH1 0x20 ADD DUP1 DUP4 GT PUSH2 0x2AC JUMPI DUP3 SWAP1 SUB PUSH1 0x1F AND DUP3 ADD SWAP2 JUMPDEST POP POP POP POP POP DUP2 MSTORE POP POP SWAP1 POP SWAP2 SWAP1 POP JUMP JUMPDEST DUP3 PUSH0 DUP2 MLOAD GT PUSH2 0x31D JUMPI PUSH1 0x40 MLOAD PUSH32 0x8C379A000000000000000000000000000000000000000000000000000000000 DUP2 MSTORE PUSH1 0x4 ADD PUSH2 0x314 SWAP1 PUSH2 0xE39 JUMP JUMPDEST PUSH1 0x40 MLOAD DUP1 SWAP2 SUB SWAP1 REVERT JUMPDEST PUSH0 PUSH20 0xFFFFFFFFFFFFFFFFFFFFFFFFFFFFFFFFFFFFFFFF AND PUSH1 0x2 DUP3 PUSH1 0x40 MLOAD PUSH2 0x344 SWAP2 SWAP1 PUSH2 0xE91 JUMP JUMPDEST SWAP1 DUP2 MSTORE PUSH1 0x20 ADD PUSH1 0x40 MLOAD DUP1 SWAP2 SUB SWAP1 KECCAK256 PUSH0 SWAP1 SLOAD SWAP1 PUSH2 0x100 EXP SWAP1 DIV PUSH20 0xFFFFFFFFFFFFFFFFFFFFFFFFFFFFFFFFFFFFFFFF AND PUSH20 0xFFFFFFFFFFFFFFFFFFFFFFFFFFFFFFFFFFFFFFFF AND EQ PUSH2 0x3C8 JUMPI PUSH1 0x40 MLOAD PUSH32 0x8C379A000000000000000000000000000000000000000000000000000000000 DUP2 MSTORE PUSH1 0x4 ADD PUSH2 0x3BF SWAP1 PUSH2 0xEF1 JUMP JUMPDEST PUSH1 0x40 MLOAD DUP1 SWAP2 SUB SWAP1 REVERT JUMPDEST PUSH0 PUSH1 0x2 PUSH0 PUSH0 CALLER PUSH20 0xFFFFFFFFFFFFFFFFFFFFFFFFFFFFFFFFFFFFFFFF AND PUSH20 0xFFFFFFFFFFFFFFFFFFFFFFFFFFFFFFFFFFFFFFFF AND DUP2 MSTORE PUSH1 0x20 ADD SWAP1 DUP2 MSTORE PUSH1 0x20 ADD PUSH0 KECCAK256 PUSH0 ADD PUSH1 0x40 MLOAD PUSH2 0x416 SWAP2 SWAP1 PUSH2 0xFA1 JUMP JUMPDEST SWAP1 DUP2 MSTORE PUSH1 0x20 ADD PUSH1 0x40 MLOAD DUP1 SWAP2 SUB SWAP1 KECCAK256 PUSH0 PUSH2 0x100 EXP DUP2 SLOAD DUP2 PUSH20 0xFFFFFFFFFFFFFFFFFFFFFFFFFFFFFFFFFFFFFFFF MUL NOT AND SWAP1 DUP4 PUSH20 0xFFFFFFFFFFFFFFFFFFFFFFFFFFFFFFFFFFFFFFFF AND MUL OR SWAP1 SSTORE POP PUSH1 0x40 MLOAD DUP1 PUSH1 0x60 ADD PUSH1 0x40 MSTORE DUP1 DUP6 DUP2 MSTORE PUSH1 0x20 ADD DUP5 DUP2 MSTORE PUSH1 0x20 ADD DUP4 DUP2 MSTORE POP PUSH0 PUSH0 CALLER PUSH20 0xFFFFFFFFFFFFFFFFFFFFFFFFFFFFFFFFFFFFFFFF AND PUSH20 0xFFFFFFFFFFFFFFFFFFFFFFFFFFFFFFFFFFFFFFFF AND DUP2 MSTORE PUSH1 0x20 ADD SWAP1 DUP2 MSTORE PUSH1 0x20 ADD PUSH0 KECCAK256 PUSH0 DUP3 ADD MLOAD DUP2 PUSH0 ADD SWAP1 DUP2 PUSH2 0x4CB SWAP2 SWAP1 PUSH2 0x114E JUMP JUMPDEST POP PUSH1 0x20 DUP3 ADD MLOAD DUP2 PUSH1 0x1 ADD SWAP1 DUP2 PUSH2 0x4E1 SWAP2 SWAP1 PUSH2 0x114E JUMP JUMPDEST POP PUSH1 0x40 DUP3 ADD MLOAD DUP2 PUSH1 0x2 ADD SWAP1 DUP2 PUSH2 0x4F7 SWAP2 SWAP1 PUSH2 0x114E JUMP JUMPDEST POP SWAP1 POP POP CALLER PUSH1 0x2 DUP6 PUSH1 0x40 MLOAD PUSH2 0x50C SWAP2 SWAP1 PUSH2 0xE91 JUMP JUMPDEST SWAP1 DUP2 MSTORE PUSH1 0x20 ADD PUSH1 0x40 MLOAD DUP1 SWAP2 SUB SWAP1 KECCAK256 PUSH0 PUSH2 0x100 EXP DUP2 SLOAD DUP2 PUSH20 0xFFFFFFFFFFFFFFFFFFFFFFFFFFFFFFFFFFFFFFFF MUL NOT AND SWAP1 DUP4 PUSH20 0xFFFFFFFFFFFFFFFFFFFFFFFFFFFFFFFFFFFFFFFF AND MUL OR SWAP1 SSTORE POP PUSH32 0x6420DAF1B58438E85465EF21DEE378D307A509CAAB491149E3F066C5CAF1266D CALLER DUP6 DUP6 DUP6 PUSH1 0x40 MLOAD PUSH2 0x58C SWAP5 SWAP4 SWAP3 SWAP2 SWAP1 PUSH2 0x1264 JUMP JUMPDEST PUSH1 0x40 MLOAD DUP1 SWAP2 SUB SWAP1 LOG1 POP POP POP POP JUMP JUMPDEST PUSH1 0x60 PUSH1 0x1 DUP1 SLOAD DUP1 PUSH1 0x20 MUL PUSH1 0x20 ADD PUSH1 0x40 MLOAD SWAP1 DUP2 ADD PUSH1 0x40 MSTORE DUP1 SWAP3 SWAP2 SWAP1 DUP2 DUP2 MSTORE PUSH1 0x20 ADD DUP3 DUP1 SLOAD DUP1 ISZERO PUSH2 0x61B JUMPI PUSH1 0x20 MUL DUP3 ADD SWAP2 SWAP1 PUSH0 MSTORE PUSH1 0x20 PUSH0 KECCAK256 SWAP1 JUMPDEST DUP2 PUSH0 SWAP1 SLOAD SWAP1 PUSH2 0x100 EXP SWAP1 DIV PUSH20 0xFFFFFFFFFFFFFFFFFFFFFFFFFFFFFFFFFFFFFFFF AND PUSH20 0xFFFFFFFFFFFFFFFFFFFFFFFFFFFFFFFFFFFFFFFF AND DUP2 MSTORE PUSH1 0x20 ADD SWAP1 PUSH1 0x1 ADD SWAP1 DUP1 DUP4 GT PUSH2 0x5D2 JUMPI JUMPDEST POP POP POP POP POP SWAP1 POP SWAP1 JUMP JUMPDEST PUSH0 PUSH0 PUSH0 CALLER PUSH20 0xFFFFFFFFFFFFFFFFFFFFFFFFFFFFFFFFFFFFFFFF AND PUSH20 0xFFFFFFFFFFFFFFFFFFFFFFFFFFFFFFFFFFFFFFFF AND DUP2 MSTORE PUSH1 0x20 ADD SWAP1 DUP2 MSTORE PUSH1 0x20 ADD PUSH0 KECCAK256 PUSH0 ADD DUP1 SLOAD PUSH2 0x66F SWAP1 PUSH2 0xDAF JUMP JUMPDEST SWAP1 POP EQ PUSH2 0x6B1 JUMPI PUSH1 0x40 MLOAD PUSH32 0x8C379A000000000000000000000000000000000000000000000000000000000 DUP2 MSTORE PUSH1 0x4 ADD PUSH2 0x6A8 SWAP1 PUSH2 0x132C JUMP JUMPDEST PUSH1 0x40 MLOAD DUP1 SWAP2 SUB SWAP1 REVERT JUMPDEST DUP3 PUSH0 DUP2 MLOAD GT PUSH2 0x6F5 JUMPI PUSH1 0x40 MLOAD PUSH32 0x8C379A000000000000000000000000000000000000000000000000000000000 DUP2 MSTORE PUSH1 0x4 ADD PUSH2 0x6EC SWAP1 PUSH2 0xE39 JUMP JUMPDEST PUSH1 0x40 MLOAD DUP1 SWAP2 SUB SWAP1 REVERT JUMPDEST PUSH0 PUSH20 0xFFFFFFFFFFFFFFFFFFFFFFFFFFFFFFFFFFFFFFFF AND PUSH1 0x2 DUP3 PUSH1 0x40 MLOAD PUSH2 0x71C SWAP2 SWAP1 PUSH2 0xE91 JUMP JUMPDEST SWAP1 DUP2 MSTORE PUSH1 0x20 ADD PUSH1 0x40 MLOAD DUP1 SWAP2 SUB SWAP1 KECCAK256 PUSH0 SWAP1 SLOAD SWAP1 PUSH2 0x100 EXP SWAP1 DIV PUSH20 0xFFFFFFFFFFFFFFFFFFFFFFFFFFFFFFFFFFFFFFFF AND PUSH20 0xFFFFFFFFFFFFFFFFFFFFFFFFFFFFFFFFFFFFFFFF AND EQ PUSH2 0x7A0 JUMPI PUSH1 0x40 MLOAD PUSH32 0x8C379A000000000000000000000000000000000000000000000000000000000 DUP2 MSTORE PUSH1 0x4 ADD PUSH2 0x797 SWAP1 PUSH2 0xEF1 JUMP JUMPDEST PUSH1 0x40 MLOAD DUP1 SWAP2 SUB SWAP1 REVERT JUMPDEST PUSH1 0x40 MLOAD DUP1 PUSH1 0x60 ADD PUSH1 0x40 MSTORE DUP1 DUP6 DUP2 MSTORE PUSH1 0x20 ADD DUP5 DUP2 MSTORE PUSH1 0x20 ADD DUP4 DUP2 MSTORE POP PUSH0 PUSH0 CALLER PUSH20 0xFFFFFFFFFFFFFFFFFFFFFFFFFFFFFFFFFFFFFFFF AND PUSH20 0xFFFFFFFFFFFFFFFFFFFFFFFFFFFFFFFFFFFFFFFF AND DUP2 MSTORE PUSH1 0x20 ADD SWAP1 DUP2 MSTORE PUSH1 0x20 ADD PUSH0 KECCAK256 PUSH0 DUP3 ADD MLOAD DUP2 PUSH0 ADD SWAP1 DUP2 PUSH2 0x80A SWAP2 SWAP1 PUSH2 0x114E JUMP JUMPDEST POP PUSH1 0x20 DUP3 ADD MLOAD DUP2 PUSH1 0x1 ADD SWAP1 DUP2 PUSH2 0x820 SWAP2 SWAP1 PUSH2 0x114E JUMP JUMPDEST POP PUSH1 0x40 DUP3 ADD MLOAD DUP2 PUSH1 0x2 ADD SWAP1 DUP2 PUSH2 0x836 SWAP2 SWAP1 PUSH2 0x114E JUMP JUMPDEST POP SWAP1 POP POP PUSH1 0x1 CALLER SWAP1 DUP1 PUSH1 0x1 DUP2 SLOAD ADD DUP1 DUP3 SSTORE DUP1 SWAP2 POP POP PUSH1 0x1 SWAP1 SUB SWAP1 PUSH0 MSTORE PUSH1 0x20 PUSH0 KECCAK256 ADD PUSH0 SWAP1 SWAP2 SWAP1 SWAP2 SWAP1 SWAP2 PUSH2 0x100 EXP DUP2 SLOAD DUP2 PUSH20 0xFFFFFFFFFFFFFFFFFFFFFFFFFFFFFFFFFFFFFFFF MUL NOT AND SWAP1 DUP4 PUSH20 0xFFFFFFFFFFFFFFFFFFFFFFFFFFFFFFFFFFFFFFFF AND MUL OR SWAP1 SSTORE POP CALLER PUSH1 0x2 DUP6 PUSH1 0x40 MLOAD PUSH2 0x8AB SWAP2 SWAP1 PUSH2 0xE91 JUMP JUMPDEST SWAP1 DUP2 MSTORE PUSH1 0x20 ADD PUSH1 0x40 MLOAD DUP1 SWAP2 SUB SWAP1 KECCAK256 PUSH0 PUSH2 0x100 EXP DUP2 SLOAD DUP2 PUSH20 0xFFFFFFFFFFFFFFFFFFFFFFFFFFFFFFFFFFFFFFFF MUL NOT AND SWAP1 DUP4 PUSH20 0xFFFFFFFFFFFFFFFFFFFFFFFFFFFFFFFFFFFFFFFF AND MUL OR SWAP1 SSTORE POP PUSH32 0x77C378673324822AD159B021C3CE202D7676946FF3967162024B660A493E64B3 CALLER DUP6 DUP6 DUP6 PUSH1 0x40 MLOAD PUSH2 0x92B SWAP5 SWAP4 SWAP3 SWAP2 SWAP1 PUSH2 0x1264 JUMP JUMPDEST PUSH1 0x40 MLOAD DUP1 SWAP2 SUB SWAP1 LOG1 POP POP POP POP JUMP JUMPDEST PUSH1 0x40 MLOAD DUP1 PUSH1 0x60 ADD PUSH1 0x40 MSTORE DUP1 PUSH1 0x60 DUP2 MSTORE PUSH1 0x20 ADD PUSH1 0x60 DUP2 MSTORE PUSH1 0x20 ADD PUSH1 0x60 DUP2 MSTORE POP SWAP1 JUMP JUMPDEST PUSH0 PUSH1 0x40 MLOAD SWAP1 POP SWAP1 JUMP JUMPDEST PUSH0 PUSH0 REVERT JUMPDEST PUSH0 PUSH0 REVERT JUMPDEST PUSH0 PUSH20 0xFFFFFFFFFFFFFFFFFFFFFFFFFFFFFFFFFFFFFFFF DUP3 AND SWAP1 POP SWAP2 SWAP1 POP JUMP JUMPDEST PUSH0 PUSH2 0x994 DUP3 PUSH2 0x96B JUMP JUMPDEST SWAP1 POP SWAP2 SWAP1 POP JUMP JUMPDEST PUSH2 0x9A4 DUP2 PUSH2 0x98A JUMP JUMPDEST DUP2 EQ PUSH2 0x9AE JUMPI PUSH0 PUSH0 REVERT JUMPDEST POP JUMP JUMPDEST PUSH0 DUP2 CALLDATALOAD SWAP1 POP PUSH2 0x9BF DUP2 PUSH2 0x99B JUMP JUMPDEST SWAP3 SWAP2 POP POP JUMP JUMPDEST PUSH0 PUSH1 0x20 DUP3 DUP5 SUB SLT ISZERO PUSH2 0x9DA JUMPI PUSH2 0x9D9 PUSH2 0x963 JUMP JUMPDEST JUMPDEST PUSH0 PUSH2 0x9E7 DUP5 DUP3 DUP6 ADD PUSH2 0x9B1 JUMP JUMPDEST SWAP2 POP POP SWAP3 SWAP2 POP POP JUMP JUMPDEST PUSH0 DUP2 MLOAD SWAP1 POP SWAP2 SWAP1 POP JUMP JUMPDEST PUSH0 DUP3 DUP3 MSTORE PUSH1 0x20 DUP3 ADD SWAP1 POP SWAP3 SWAP2 POP POP JUMP JUMPDEST DUP3 DUP2 DUP4 MCOPY PUSH0 DUP4 DUP4 ADD MSTORE POP POP POP JUMP JUMPDEST PUSH0 PUSH1 0x1F NOT PUSH1 0x1F DUP4 ADD AND SWAP1 POP SWAP2 SWAP1 POP JUMP JUMPDEST PUSH0 PUSH2 0xA32 DUP3 PUSH2 0x9F0 JUMP JUMPDEST PUSH2 0xA3C DUP2 DUP6 PUSH2 0x9FA JUMP JUMPDEST SWAP4 POP PUSH2 0xA4C DUP2 DUP6 PUSH1 0x20 DUP7 ADD PUSH2 0xA0A JUMP JUMPDEST PUSH2 0xA55 DUP2 PUSH2 0xA18 JUMP JUMPDEST DUP5 ADD SWAP2 POP POP SWAP3 SWAP2 POP POP JUMP JUMPDEST PUSH0 PUSH1 0x60 DUP4 ADD PUSH0 DUP4 ADD MLOAD DUP5 DUP3 SUB PUSH0 DUP7 ADD MSTORE PUSH2 0xA7A DUP3 DUP3 PUSH2 0xA28 JUMP JUMPDEST SWAP2 POP POP PUSH1 0x20 DUP4 ADD MLOAD DUP5 DUP3 SUB PUSH1 0x20 DUP7 ADD MSTORE PUSH2 0xA94 DUP3 DUP3 PUSH2 0xA28 JUMP JUMPDEST SWAP2 POP POP PUSH1 0x40 DUP4 ADD MLOAD DUP5 DUP3 SUB PUSH1 0x40 DUP7 ADD MSTORE PUSH2 0xAAE DUP3 DUP3 PUSH2 0xA28 JUMP JUMPDEST SWAP2 POP POP DUP1 SWAP2 POP POP SWAP3 SWAP2 POP POP JUMP JUMPDEST PUSH0 PUSH1 0x20 DUP3 ADD SWAP1 POP DUP2 DUP2 SUB PUSH0 DUP4 ADD MSTORE PUSH2 0xAD3 DUP2 DUP5 PUSH2 0xA60 JUMP JUMPDEST SWAP1 POP SWAP3 SWAP2 POP POP JUMP JUMPDEST PUSH0 PUSH0 REVERT JUMPDEST PUSH0 PUSH0 REVERT JUMPDEST PUSH32 0x4E487B7100000000000000000000000000000000000000000000000000000000 PUSH0 MSTORE PUSH1 0x41 PUSH1 0x4 MSTORE PUSH1 0x24 PUSH0 REVERT JUMPDEST PUSH2 0xB19 DUP3 PUSH2 0xA18 JUMP JUMPDEST DUP2 ADD DUP2 DUP2 LT PUSH8 0xFFFFFFFFFFFFFFFF DUP3 GT OR ISZERO PUSH2 0xB38 JUMPI PUSH2 0xB37 PUSH2 0xAE3 JUMP JUMPDEST JUMPDEST DUP1 PUSH1 0x40 MSTORE POP POP POP JUMP JUMPDEST PUSH0 PUSH2 0xB4A PUSH2 0x95A JUMP JUMPDEST SWAP1 POP PUSH2 0xB56 DUP3 DUP3 PUSH2 0xB10 JUMP JUMPDEST SWAP2 SWAP1 POP JUMP JUMPDEST PUSH0 PUSH8 0xFFFFFFFFFFFFFFFF DUP3 GT ISZERO PUSH2 0xB75 JUMPI PUSH2 0xB74 PUSH2 0xAE3 JUMP JUMPDEST JUMPDEST PUSH2 0xB7E DUP3 PUSH2 0xA18 JUMP JUMPDEST SWAP1 POP PUSH1 0x20 DUP2 ADD SWAP1 POP SWAP2 SWAP1 POP JUMP JUMPDEST DUP3 DUP2 DUP4 CALLDATACOPY PUSH0 DUP4 DUP4 ADD MSTORE POP POP POP JUMP JUMPDEST PUSH0 PUSH2 0xBAB PUSH2 0xBA6 DUP5 PUSH2 0xB5B JUMP JUMPDEST PUSH2 0xB41 JUMP JUMPDEST SWAP1 POP DUP3 DUP2 MSTORE PUSH1 0x20 DUP2 ADD DUP5 DUP5 DUP5 ADD GT ISZERO PUSH2 0xBC7 JUMPI PUSH2 0xBC6 PUSH2 0xADF JUMP JUMPDEST JUMPDEST PUSH2 0xBD2 DUP5 DUP3 DUP6 PUSH2 0xB8B JUMP JUMPDEST POP SWAP4 SWAP3 POP POP POP JUMP JUMPDEST PUSH0 DUP3 PUSH1 0x1F DUP4 ADD SLT PUSH2 0xBEE JUMPI PUSH2 0xBED PUSH2 0xADB JUMP JUMPDEST JUMPDEST DUP2 CALLDATALOAD PUSH2 0xBFE DUP5 DUP3 PUSH1 0x20 DUP7 ADD PUSH2 0xB99 JUMP JUMPDEST SWAP2 POP POP SWAP3 SWAP2 POP POP JUMP JUMPDEST PUSH0 PUSH0 PUSH0 PUSH1 0x60 DUP5 DUP7 SUB SLT ISZERO PUSH2 0xC1E JUMPI PUSH2 0xC1D PUSH2 0x963 JUMP JUMPDEST JUMPDEST PUSH0 DUP5 ADD CALLDATALOAD PUSH8 0xFFFFFFFFFFFFFFFF DUP2 GT ISZERO PUSH2 0xC3B JUMPI PUSH2 0xC3A PUSH2 0x967 JUMP JUMPDEST JUMPDEST PUSH2 0xC47 DUP7 DUP3 DUP8 ADD PUSH2 0xBDA JUMP JUMPDEST SWAP4 POP POP PUSH1 0x20 DUP5 ADD CALLDATALOAD PUSH8 0xFFFFFFFFFFFFFFFF DUP2 GT ISZERO PUSH2 0xC68 JUMPI PUSH2 0xC67 PUSH2 0x967 JUMP JUMPDEST JUMPDEST PUSH2 0xC74 DUP7 DUP3 DUP8 ADD PUSH2 0xBDA JUMP JUMPDEST SWAP3 POP POP PUSH1 0x40 DUP5 ADD CALLDATALOAD PUSH8 0xFFFFFFFFFFFFFFFF DUP2 GT ISZERO PUSH2 0xC95 JUMPI PUSH2 0xC94 PUSH2 0x967 JUMP JUMPDEST JUMPDEST PUSH2 0xCA1 DUP7 DUP3 DUP8 ADD PUSH2 0xBDA JUMP JUMPDEST SWAP2 POP POP SWAP3 POP SWAP3 POP SWAP3 JUMP JUMPDEST PUSH0 DUP2 MLOAD SWAP1 POP SWAP2 SWAP1 POP JUMP JUMPDEST PUSH0 DUP3 DUP3 MSTORE PUSH1 0x20 DUP3 ADD SWAP1 POP SWAP3 SWAP2 POP POP JUMP JUMPDEST PUSH0 DUP2 SWAP1 POP PUSH1 0x20 DUP3 ADD SWAP1 POP SWAP2 SWAP1 POP JUMP JUMPDEST PUSH2 0xCDD DUP2 PUSH2 0x98A JUMP JUMPDEST DUP3 MSTORE POP POP JUMP JUMPDEST PUSH0 PUSH2 0xCEE DUP4 DUP4 PUSH2 0xCD4 JUMP JUMPDEST PUSH1 0x20 DUP4 ADD SWAP1 POP SWAP3 SWAP2 POP POP JUMP JUMPDEST PUSH0 PUSH1 0x20 DUP3 ADD SWAP1 POP SWAP2 SWAP1 POP JUMP JUMPDEST PUSH0 PUSH2 0xD10 DUP3 PUSH2 0xCAB JUMP JUMPDEST PUSH2 0xD1A DUP2 DUP6 PUSH2 0xCB5 JUMP JUMPDEST SWAP4 POP PUSH2 0xD25 DUP4 PUSH2 0xCC5 JUMP JUMPDEST DUP1 PUSH0 JUMPDEST DUP4 DUP2 LT ISZERO PUSH2 0xD55 JUMPI DUP2 MLOAD PUSH2 0xD3C DUP9 DUP3 PUSH2 0xCE3 JUMP JUMPDEST SWAP8 POP PUSH2 0xD47 DUP4 PUSH2 0xCFA JUMP JUMPDEST SWAP3 POP POP PUSH1 0x1 DUP2 ADD SWAP1 POP PUSH2 0xD28 JUMP JUMPDEST POP DUP6 SWAP4 POP POP POP POP SWAP3 SWAP2 POP POP JUMP JUMPDEST PUSH0 PUSH1 0x20 DUP3 ADD SWAP1 POP DUP2 DUP2 SUB PUSH0 DUP4 ADD MSTORE PUSH2 0xD7A DUP2 DUP5 PUSH2 0xD06 JUMP JUMPDEST SWAP1 POP SWAP3 SWAP2 POP POP JUMP JUMPDEST PUSH32 0x4E487B7100000000000000000000000000000000000000000000000000000000 PUSH0 MSTORE PUSH1 0x22 PUSH1 0x4 MSTORE PUSH1 0x24 PUSH0 REVERT JUMPDEST PUSH0 PUSH1 0x2 DUP3 DIV SWAP1 POP PUSH1 0x1 DUP3 AND DUP1 PUSH2 0xDC6 JUMPI PUSH1 0x7F DUP3 AND SWAP2 POP JUMPDEST PUSH1 0x20 DUP3 LT DUP2 SUB PUSH2 0xDD9 JUMPI PUSH2 0xDD8 PUSH2 0xD82 JUMP JUMPDEST JUMPDEST POP SWAP2 SWAP1 POP JUMP JUMPDEST PUSH0 DUP3 DUP3 MSTORE PUSH1 0x20 DUP3 ADD SWAP1 POP SWAP3 SWAP2 POP POP JUMP JUMPDEST PUSH32 0x557365726E616D65206973207265717569726564000000000000000000000000 PUSH0 DUP3 ADD MSTORE POP JUMP JUMPDEST PUSH0 PUSH2 0xE23 PUSH1 0x14 DUP4 PUSH2 0xDDF JUMP JUMPDEST SWAP2 POP PUSH2 0xE2E DUP3 PUSH2 0xDEF JUMP JUMPDEST PUSH1 0x20 DUP3 ADD SWAP1 POP SWAP2 SWAP1 POP JUMP JUMPDEST PUSH0 PUSH1 0x20 DUP3 ADD SWAP1 POP DUP2 DUP2 SUB PUSH0 DUP4 ADD MSTORE PUSH2 0xE50 DUP2 PUSH2 0xE17 JUMP JUMPDEST SWAP1 POP SWAP2 SWAP1 POP JUMP JUMPDEST PUSH0 DUP2 SWAP1 POP SWAP3 SWAP2 POP POP JUMP JUMPDEST PUSH0 PUSH2 0xE6B DUP3 PUSH2 0x9F0 JUMP JUMPDEST PUSH2 0xE75 DUP2 DUP6 PUSH2 0xE57 JUMP JUMPDEST SWAP4 POP PUSH2 0xE85 DUP2 DUP6 PUSH1 0x20 DUP7 ADD PUSH2 0xA0A JUMP JUMPDEST DUP1 DUP5 ADD SWAP2 POP POP SWAP3 SWAP2 POP POP JUMP JUMPDEST PUSH0 PUSH2 0xE9C DUP3 DUP5 PUSH2 0xE61 JUMP JUMPDEST SWAP2 POP DUP2 SWAP1 POP SWAP3 SWAP2 POP POP JUMP JUMPDEST PUSH32 0x557365726E616D652069732074616B656E000000000000000000000000000000 PUSH0 DUP3 ADD MSTORE POP JUMP JUMPDEST PUSH0 PUSH2 0xEDB PUSH1 0x11 DUP4 PUSH2 0xDDF JUMP JUMPDEST SWAP2 POP PUSH2 0xEE6 DUP3 PUSH2 0xEA7 JUMP JUMPDEST PUSH1 0x20 DUP3 ADD SWAP1 POP SWAP2 SWAP1 POP JUMP JUMPDEST PUSH0 PUSH1 0x20 DUP3 ADD SWAP1 POP DUP2 DUP2 SUB PUSH0 DUP4 ADD MSTORE PUSH2 0xF08 DUP2 PUSH2 0xECF JUMP JUMPDEST SWAP1 POP SWAP2 SWAP1 POP JUMP JUMPDEST PUSH0 DUP2 SWAP1 POP DUP2 PUSH0 MSTORE PUSH1 0x20 PUSH0 KECCAK256 SWAP1 POP SWAP2 SWAP1 POP JUMP JUMPDEST PUSH0 DUP2 SLOAD PUSH2 0xF2D DUP2 PUSH2 0xDAF JUMP JUMPDEST PUSH2 0xF37 DUP2 DUP7 PUSH2 0xE57 JUMP JUMPDEST SWAP5 POP PUSH1 0x1 DUP3 AND PUSH0 DUP2 EQ PUSH2 0xF51 JUMPI PUSH1 0x1 DUP2 EQ PUSH2 0xF66 JUMPI PUSH2 0xF98 JUMP JUMPDEST PUSH1 0xFF NOT DUP4 AND DUP7 MSTORE DUP2 ISZERO ISZERO DUP3 MUL DUP7 ADD SWAP4 POP PUSH2 0xF98 JUMP JUMPDEST PUSH2 0xF6F DUP6 PUSH2 0xF0F JUMP JUMPDEST PUSH0 JUMPDEST DUP4 DUP2 LT ISZERO PUSH2 0xF90 JUMPI DUP2 SLOAD DUP2 DUP10 ADD MSTORE PUSH1 0x1 DUP3 ADD SWAP2 POP PUSH1 0x20 DUP2 ADD SWAP1 POP PUSH2 0xF71 JUMP JUMPDEST DUP4 DUP9 ADD SWAP6 POP POP POP JUMPDEST POP POP POP SWAP3 SWAP2 POP POP JUMP JUMPDEST PUSH0 PUSH2 0xFAC DUP3 DUP5 PUSH2 0xF21 JUMP JUMPDEST SWAP2 POP DUP2 SWAP1 POP SWAP3 SWAP2 POP POP JUMP JUMPDEST PUSH0 PUSH1 0x20 PUSH1 0x1F DUP4 ADD DIV SWAP1 POP SWAP2 SWAP1 POP JUMP JUMPDEST PUSH0 DUP3 DUP3 SHL SWAP1 POP SWAP3 SWAP2 POP POP JUMP JUMPDEST PUSH0 PUSH1 0x8 DUP4 MUL PUSH2 0x1001 PUSH32 0xFFFFFFFFFFFFFFFFFFFFFFFFFFFFFFFFFFFFFFFFFFFFFFFFFFFFFFFFFFFFFFFF DUP3 PUSH2 0xFC6 JUMP JUMPDEST PUSH2 0x100B DUP7 DUP4 PUSH2 0xFC6 JUMP JUMPDEST SWAP6 POP DUP1 NOT DUP5 AND SWAP4 POP DUP1 DUP7 AND DUP5 OR SWAP3 POP POP POP SWAP4 SWAP3 POP POP POP JUMP JUMPDEST PUSH0 DUP2 SWAP1 POP SWAP2 SWAP1 POP JUMP JUMPDEST PUSH0 DUP2 SWAP1 POP SWAP2 SWAP1 POP JUMP JUMPDEST PUSH0 PUSH2 0x104F PUSH2 0x104A PUSH2 0x1045 DUP5 PUSH2 0x1023 JUMP JUMPDEST PUSH2 0x102C JUMP JUMPDEST PUSH2 0x1023 JUMP JUMPDEST SWAP1 POP SWAP2 SWAP1 POP JUMP JUMPDEST PUSH0 DUP2 SWAP1 POP SWAP2 SWAP1 POP JUMP JUMPDEST PUSH2 0x1068 DUP4 PUSH2 0x1035 JUMP JUMPDEST PUSH2 0x107C PUSH2 0x1074 DUP3 PUSH2 0x1056 JUMP JUMPDEST DUP5 DUP5 SLOAD PUSH2 0xFD2 JUMP JUMPDEST DUP3 SSTORE POP POP POP POP JUMP JUMPDEST PUSH0 PUSH0 SWAP1 POP SWAP1 JUMP JUMPDEST PUSH2 0x1093 PUSH2 0x1084 JUMP JUMPDEST PUSH2 0x109E DUP2 DUP5 DUP5 PUSH2 0x105F JUMP JUMPDEST POP POP POP JUMP JUMPDEST JUMPDEST DUP2 DUP2 LT ISZERO PUSH2 0x10C1 JUMPI PUSH2 0x10B6 PUSH0 DUP3 PUSH2 0x108B JUMP JUMPDEST PUSH1 0x1 DUP2 ADD SWAP1 POP PUSH2 0x10A4 JUMP JUMPDEST POP POP JUMP JUMPDEST PUSH1 0x1F DUP3 GT ISZERO PUSH2 0x1106 JUMPI PUSH2 0x10D7 DUP2 PUSH2 0xF0F JUMP JUMPDEST PUSH2 0x10E0 DUP5 PUSH2 0xFB7 JUMP JUMPDEST DUP2 ADD PUSH1 0x20 DUP6 LT ISZERO PUSH2 0x10EF JUMPI DUP2 SWAP1 POP JUMPDEST PUSH2 0x1103 PUSH2 0x10FB DUP6 PUSH2 0xFB7 JUMP JUMPDEST DUP4 ADD DUP3 PUSH2 0x10A3 JUMP JUMPDEST POP POP JUMPDEST POP POP POP JUMP JUMPDEST PUSH0 DUP3 DUP3 SHR SWAP1 POP SWAP3 SWAP2 POP POP JUMP JUMPDEST PUSH0 PUSH2 0x1126 PUSH0 NOT DUP5 PUSH1 0x8 MUL PUSH2 0x110B JUMP JUMPDEST NOT DUP1 DUP4 AND SWAP2 POP POP SWAP3 SWAP2 POP POP JUMP JUMPDEST PUSH0 PUSH2 0x113E DUP4 DUP4 PUSH2 0x1117 JUMP JUMPDEST SWAP2 POP DUP3 PUSH1 0x2 MUL DUP3 OR SWAP1 POP SWAP3 SWAP2 POP POP JUMP JUMPDEST PUSH2 0x1157 DUP3 PUSH2 0x9F0 JUMP JUMPDEST PUSH8 0xFFFFFFFFFFFFFFFF DUP2 GT ISZERO PUSH2 0x1170 JUMPI PUSH2 0x116F PUSH2 0xAE3 JUMP JUMPDEST JUMPDEST PUSH2 0x117A DUP3 SLOAD PUSH2 0xDAF JUMP JUMPDEST PUSH2 0x1185 DUP3 DUP3 DUP6 PUSH2 0x10C5 JUMP JUMPDEST PUSH0 PUSH1 0x20 SWAP1 POP PUSH1 0x1F DUP4 GT PUSH1 0x1 DUP2 EQ PUSH2 0x11B6 JUMPI PUSH0 DUP5 ISZERO PUSH2 0x11A4 JUMPI DUP3 DUP8 ADD MLOAD SWAP1 POP JUMPDEST PUSH2 0x11AE DUP6 DUP3 PUSH2 0x1133 JUMP JUMPDEST DUP7 SSTORE POP PUSH2 0x1215 JUMP JUMPDEST PUSH1 0x1F NOT DUP5 AND PUSH2 0x11C4 DUP7 PUSH2 0xF0F JUMP JUMPDEST PUSH0 JUMPDEST DUP3 DUP2 LT ISZERO PUSH2 0x11EB JUMPI DUP5 DUP10 ADD MLOAD DUP3 SSTORE PUSH1 0x1 DUP3 ADD SWAP2 POP PUSH1 0x20 DUP6 ADD SWAP5 POP PUSH1 0x20 DUP2 ADD SWAP1 POP PUSH2 0x11C6 JUMP JUMPDEST DUP7 DUP4 LT ISZERO PUSH2 0x1208 JUMPI DUP5 DUP10 ADD MLOAD PUSH2 0x1204 PUSH1 0x1F DUP10 AND DUP3 PUSH2 0x1117 JUMP JUMPDEST DUP4 SSTORE POP JUMPDEST PUSH1 0x1 PUSH1 0x2 DUP9 MUL ADD DUP9 SSTORE POP POP POP JUMPDEST POP POP POP POP POP POP JUMP JUMPDEST PUSH2 0x1226 DUP2 PUSH2 0x98A JUMP JUMPDEST DUP3 MSTORE POP POP JUMP JUMPDEST PUSH0 PUSH2 0x1236 DUP3 PUSH2 0x9F0 JUMP JUMPDEST PUSH2 0x1240 DUP2 DUP6 PUSH2 0xDDF JUMP JUMPDEST SWAP4 POP PUSH2 0x1250 DUP2 DUP6 PUSH1 0x20 DUP7 ADD PUSH2 0xA0A JUMP JUMPDEST PUSH2 0x1259 DUP2 PUSH2 0xA18 JUMP JUMPDEST DUP5 ADD SWAP2 POP POP SWAP3 SWAP2 POP POP JUMP JUMPDEST PUSH0 PUSH1 0x80 DUP3 ADD SWAP1 POP PUSH2 0x1277 PUSH0 DUP4 ADD DUP8 PUSH2 0x121D JUMP JUMPDEST DUP2 DUP2 SUB PUSH1 0x20 DUP4 ADD MSTORE PUSH2 0x1289 DUP2 DUP7 PUSH2 0x122C JUMP JUMPDEST SWAP1 POP DUP2 DUP2 SUB PUSH1 0x40 DUP4 ADD MSTORE PUSH2 0x129D DUP2 DUP6 PUSH2 0x122C JUMP JUMPDEST SWAP1 POP DUP2 DUP2 SUB PUSH1 0x60 DUP4 ADD MSTORE PUSH2 0x12B1 DUP2 DUP5 PUSH2 0x122C JUMP JUMPDEST SWAP1 POP SWAP6 SWAP5 POP POP POP POP POP JUMP JUMPDEST PUSH32 0x50726F66696C6520616C72656164792065786973747320666F72207468697320 PUSH0 DUP3 ADD MSTORE PUSH32 0x6164647265737300000000000000000000000000000000000000000000000000 PUSH1 0x20 DUP3 ADD MSTORE POP JUMP JUMPDEST PUSH0 PUSH2 0x1316 PUSH1 0x27 DUP4 PUSH2 0xDDF JUMP JUMPDEST SWAP2 POP PUSH2 0x1321 DUP3 PUSH2 0x12BC JUMP JUMPDEST PUSH1 0x40 DUP3 ADD SWAP1 POP SWAP2 SWAP1 POP JUMP JUMPDEST PUSH0 PUSH1 0x20 DUP3 ADD SWAP1 POP DUP2 DUP2 SUB PUSH0 DUP4 ADD MSTORE PUSH2 0x1343 DUP2 PUSH2 0x130A JUMP JUMPDEST SWAP1 POP SWAP2 SWAP1 POP JUMP INVALID LOG2 PUSH5 0x6970667358 0x22 SLT KECCAK256 PUSH29 0xD436DACAD151E169DE7DB2D55CBE41F5841F2AF623E6F843C7691B949A 0x4E 0xD PUSH5 0x736F6C6343 STOP ADDMOD SHL STOP CALLER "
				},
				"gasEstimates": {
					"creation": {
						"codeDepositCost": "998400",
						"executionCost": "1032",
						"totalCost": "999432"
					},
					"external": {
						"createNewProfile(string,string,string)": "infinite",
						"editProfile(string,string,string)": "infinite",
						"getAllUsersAddrs()": "infinite",
						"getProfile(address)": "infinite"
					}
				},
				"methodIdentifiers": {
					"createNewProfile(string,string,string)": "8747e97b",
					"editProfile(string,string,string)": "1ebd72ed",
					"getAllUsersAddrs()": "336b4540",
					"getProfile(address)": "0f53a470"
				}
			},
			"storageLayout": {
				"storage": [
					{
						"astId": 16,
						"contract": "server/contracts/UserProfile.sol:UserProfile",
						"label": "profiles",
						"offset": 0,
						"slot": "0",
						"type": "t_mapping(t_address,t_struct(Profile)11_storage)"
					},
					{
						"astId": 19,
						"contract": "server/contracts/UserProfile.sol:UserProfile",
						"label": "userAddresses",
						"offset": 0,
						"slot": "1",
						"type": "t_array(t_address)dyn_storage"
					},
					{
						"astId": 23,
						"contract": "server/contracts/UserProfile.sol:UserProfile",
						"label": "usernames",
						"offset": 0,
						"slot": "2",
						"type": "t_mapping(t_string_memory_ptr,t_address)"
					}
				],
				"types": {
					"t_address": {
						"encoding": "inplace",
						"label": "address",
						"numberOfBytes": "20"
					},
					"t_array(t_address)dyn_storage": {
						"base": "t_address",
						"encoding": "dynamic_array",
						"label": "address[]",
						"numberOfBytes": "32"
					},
					"t_mapping(t_address,t_struct(Profile)11_storage)": {
						"encoding": "mapping",
						"key": "t_address",
						"label": "mapping(address => struct UserProfile.Profile)",
						"numberOfBytes": "32",
						"value": "t_struct(Profile)11_storage"
					},
					"t_mapping(t_string_memory_ptr,t_address)": {
						"encoding": "mapping",
						"key": "t_string_memory_ptr",
						"label": "mapping(string => address)",
						"numberOfBytes": "32",
						"value": "t_address"
					},
					"t_string_memory_ptr": {
						"encoding": "bytes",
						"label": "string",
						"numberOfBytes": "32"
					},
					"t_string_storage": {
						"encoding": "bytes",
						"label": "string",
						"numberOfBytes": "32"
					},
					"t_struct(Profile)11_storage": {
						"encoding": "inplace",
						"label": "struct UserProfile.Profile",
						"members": [
							{
								"astId": 6,
								"contract": "server/contracts/UserProfile.sol:UserProfile",
								"label": "username",
								"offset": 0,
								"slot": "0",
								"type": "t_string_storage"
							},
							{
								"astId": 8,
								"contract": "server/contracts/UserProfile.sol:UserProfile",
								"label": "bio",
								"offset": 0,
								"slot": "1",
								"type": "t_string_storage"
							},
							{
								"astId": 10,
								"contract": "server/contracts/UserProfile.sol:UserProfile",
								"label": "profilePictureURI",
								"offset": 0,
								"slot": "2",
								"type": "t_string_storage"
							}
						],
						"numberOfBytes": "96"
					}
				}
			},
			"userdoc": {
				"kind": "user",
				"methods": {},
				"version": 1
			}
		}
	}
}