{
	"server/contracts/UserProfile.sol": {
		"UserProfile": {
			"abi": [
				{
					"anonymous": false,
					"inputs": [
						{
							"indexed": false,
							"internalType": "address",
							"name": "user",
							"type": "address"
						},
						{
							"indexed": false,
							"internalType": "string",
							"name": "username",
							"type": "string"
						},
						{
							"indexed": false,
							"internalType": "string",
							"name": "bio",
							"type": "string"
						},
						{
							"indexed": false,
							"internalType": "string",
							"name": "profilePictureURI",
							"type": "string"
						}
					],
					"name": "ProfileCreated",
					"type": "event"
				},
				{
					"anonymous": false,
					"inputs": [
						{
							"indexed": false,
							"internalType": "address",
							"name": "user",
							"type": "address"
						},
						{
							"indexed": false,
							"internalType": "string",
							"name": "username",
							"type": "string"
						},
						{
							"indexed": false,
							"internalType": "string",
							"name": "bio",
							"type": "string"
						},
						{
							"indexed": false,
							"internalType": "string",
							"name": "profilePictureURI",
							"type": "string"
						}
					],
					"name": "ProfileUpdated",
					"type": "event"
				},
				{
					"inputs": [
						{
							"internalType": "string",
							"name": "username",
							"type": "string"
						},
						{
							"internalType": "string",
							"name": "bio",
							"type": "string"
						},
						{
							"internalType": "string",
							"name": "profilePictureURI",
							"type": "string"
						}
					],
					"name": "createNewProfile",
					"outputs": [],
					"stateMutability": "nonpayable",
					"type": "function"
				},
				{
					"inputs": [
						{
							"internalType": "string",
							"name": "username",
							"type": "string"
						},
						{
							"internalType": "string",
							"name": "bio",
							"type": "string"
						},
						{
							"internalType": "string",
							"name": "profilePictureURI",
							"type": "string"
						}
					],
					"name": "editProfile",
					"outputs": [],
					"stateMutability": "nonpayable",
					"type": "function"
				},
				{
					"inputs": [
						{
							"internalType": "string",
							"name": "_username",
							"type": "string"
						}
					],
					"name": "existsUser",
					"outputs": [
						{
							"internalType": "bool",
							"name": "",
							"type": "bool"
						}
					],
					"stateMutability": "view",
					"type": "function"
				},
				{
					"inputs": [
						{
							"internalType": "address",
							"name": "_user",
							"type": "address"
						}
					],
					"name": "existsUser",
					"outputs": [
						{
							"internalType": "bool",
							"name": "",
							"type": "bool"
						}
					],
					"stateMutability": "view",
					"type": "function"
				},
				{
					"inputs": [],
					"name": "getAllUsersAddrs",
					"outputs": [
						{
							"internalType": "address[]",
							"name": "",
							"type": "address[]"
						}
					],
					"stateMutability": "view",
					"type": "function"
				},
				{
					"inputs": [
						{
							"internalType": "address",
							"name": "user",
							"type": "address"
						}
					],
					"name": "getProfile",
					"outputs": [
						{
							"components": [
								{
									"internalType": "string",
									"name": "username",
									"type": "string"
								},
								{
									"internalType": "string",
									"name": "bio",
									"type": "string"
								},
								{
									"internalType": "string",
									"name": "profilePictureURI",
									"type": "string"
								}
							],
							"internalType": "struct UserProfile.Profile",
							"name": "",
							"type": "tuple"
						}
					],
					"stateMutability": "view",
					"type": "function"
				}
			],
			"devdoc": {
				"kind": "dev",
				"methods": {},
				"version": 1
			},
			"evm": {
				"assembly": "    /* \"server/contracts/UserProfile.sol\":103:2462  contract UserProfile {... */\n  mstore(0x40, 0x80)\n  callvalue\n  dup1\n  iszero\n  tag_1\n  jumpi\n  revert(0x00, 0x00)\ntag_1:\n  pop\n  dataSize(sub_0)\n  dup1\n  dataOffset(sub_0)\n  0x00\n  codecopy\n  0x00\n  return\nstop\n\nsub_0: assembly {\n        /* \"server/contracts/UserProfile.sol\":103:2462  contract UserProfile {... */\n      mstore(0x40, 0x80)\n      callvalue\n      dup1\n      iszero\n      tag_1\n      jumpi\n      revert(0x00, 0x00)\n    tag_1:\n      pop\n      jumpi(tag_2, lt(calldatasize, 0x04))\n      shr(0xe0, calldataload(0x00))\n      dup1\n      0x0f53a470\n      eq\n      tag_3\n      jumpi\n      dup1\n      0x1ebd72ed\n      eq\n      tag_4\n      jumpi\n      dup1\n      0x336b4540\n      eq\n      tag_5\n      jumpi\n      dup1\n      0x8747e97b\n      eq\n      tag_6\n      jumpi\n      dup1\n      0xee70746c\n      eq\n      tag_7\n      jumpi\n      dup1\n      0xf409e87d\n      eq\n      tag_8\n      jumpi\n    tag_2:\n      revert(0x00, 0x00)\n        /* \"server/contracts/UserProfile.sol\":1423:1531  function getProfile(address user) public view returns (Profile memory){... */\n    tag_3:\n      tag_9\n      0x04\n      dup1\n      calldatasize\n      sub\n      dup2\n      add\n      swap1\n      tag_10\n      swap2\n      swap1\n      tag_11\n      jump\t// in\n    tag_10:\n      tag_12\n      jump\t// in\n    tag_9:\n      mload(0x40)\n      tag_13\n      swap2\n      swap1\n      tag_14\n      jump\t// in\n    tag_13:\n      mload(0x40)\n      dup1\n      swap2\n      sub\n      swap1\n      return\n        /* \"server/contracts/UserProfile.sol\":2051:2459  function editProfile (string memory username, string memory bio, string memory profilePictureURI... */\n    tag_4:\n      tag_15\n      0x04\n      dup1\n      calldatasize\n      sub\n      dup2\n      add\n      swap1\n      tag_16\n      swap2\n      swap1\n      tag_17\n      jump\t// in\n    tag_16:\n      tag_18\n      jump\t// in\n    tag_15:\n      stop\n        /* \"server/contracts/UserProfile.sol\":1538:1642  function getAllUsersAddrs() public view returns ( address[] memory){... */\n    tag_5:\n      tag_19\n      tag_20\n      jump\t// in\n    tag_19:\n      mload(0x40)\n      tag_21\n      swap2\n      swap1\n      tag_22\n      jump\t// in\n    tag_21:\n      mload(0x40)\n      dup1\n      swap2\n      sub\n      swap1\n      return\n        /* \"server/contracts/UserProfile.sol\":1648:2045  function createNewProfile(string memory username, string memory bio, string memory profilePictureURI... */\n    tag_6:\n      tag_23\n      0x04\n      dup1\n      calldatasize\n      sub\n      dup2\n      add\n      swap1\n      tag_24\n      swap2\n      swap1\n      tag_17\n      jump\t// in\n    tag_24:\n      tag_25\n      jump\t// in\n    tag_23:\n      stop\n        /* \"server/contracts/UserProfile.sol\":1273:1416  function existsUser(string memory _username) external view returns (bool){... */\n    tag_7:\n      tag_26\n      0x04\n      dup1\n      calldatasize\n      sub\n      dup2\n      add\n      swap1\n      tag_27\n      swap2\n      swap1\n      tag_28\n      jump\t// in\n    tag_27:\n      tag_29\n      jump\t// in\n    tag_26:\n      mload(0x40)\n      tag_30\n      swap2\n      swap1\n      tag_31\n      jump\t// in\n    tag_30:\n      mload(0x40)\n      dup1\n      swap2\n      sub\n      swap1\n      return\n        /* \"server/contracts/UserProfile.sol\":1136:1267  function existsUser(address _user) external view returns (bool){... */\n    tag_8:\n      tag_32\n      0x04\n      dup1\n      calldatasize\n      sub\n      dup2\n      add\n      swap1\n      tag_33\n      swap2\n      swap1\n      tag_11\n      jump\t// in\n    tag_33:\n      tag_34\n      jump\t// in\n    tag_32:\n      mload(0x40)\n      tag_35\n      swap2\n      swap1\n      tag_31\n      jump\t// in\n    tag_35:\n      mload(0x40)\n      dup1\n      swap2\n      sub\n      swap1\n      return\n        /* \"server/contracts/UserProfile.sol\":1423:1531  function getProfile(address user) public view returns (Profile memory){... */\n    tag_12:\n        /* \"server/contracts/UserProfile.sol\":1478:1492  Profile memory */\n      tag_36\n      tag_37\n      jump\t// in\n    tag_36:\n        /* \"server/contracts/UserProfile.sol\":1510:1518  profiles */\n      0x00\n        /* \"server/contracts/UserProfile.sol\":1510:1524  profiles[user] */\n      0x00\n        /* \"server/contracts/UserProfile.sol\":1519:1523  user */\n      dup4\n        /* \"server/contracts/UserProfile.sol\":1510:1524  profiles[user] */\n      0xffffffffffffffffffffffffffffffffffffffff\n      and\n      0xffffffffffffffffffffffffffffffffffffffff\n      and\n      dup2\n      mstore\n      0x20\n      add\n      swap1\n      dup2\n      mstore\n      0x20\n      add\n      0x00\n      keccak256\n        /* \"server/contracts/UserProfile.sol\":1503:1524  return profiles[user] */\n      mload(0x40)\n      dup1\n      0x60\n      add\n      0x40\n      mstore\n      swap1\n      dup2\n      0x00\n      dup3\n      add\n      dup1\n      sload\n      tag_39\n      swap1\n      tag_40\n      jump\t// in\n    tag_39:\n      dup1\n      0x1f\n      add\n      0x20\n      dup1\n      swap2\n      div\n      mul\n      0x20\n      add\n      mload(0x40)\n      swap1\n      dup2\n      add\n      0x40\n      mstore\n      dup1\n      swap3\n      swap2\n      swap1\n      dup2\n      dup2\n      mstore\n      0x20\n      add\n      dup3\n      dup1\n      sload\n      tag_41\n      swap1\n      tag_40\n      jump\t// in\n    tag_41:\n      dup1\n      iszero\n      tag_42\n      jumpi\n      dup1\n      0x1f\n      lt\n      tag_43\n      jumpi\n      0x0100\n      dup1\n      dup4\n      sload\n      div\n      mul\n      dup4\n      mstore\n      swap2\n      0x20\n      add\n      swap2\n      jump(tag_42)\n    tag_43:\n      dup3\n      add\n      swap2\n      swap1\n      0x00\n      mstore\n      keccak256(0x00, 0x20)\n      swap1\n    tag_44:\n      dup2\n      sload\n      dup2\n      mstore\n      swap1\n      0x01\n      add\n      swap1\n      0x20\n      add\n      dup1\n      dup4\n      gt\n      tag_44\n      jumpi\n      dup3\n      swap1\n      sub\n      0x1f\n      and\n      dup3\n      add\n      swap2\n    tag_42:\n      pop\n      pop\n      pop\n      pop\n      pop\n      dup2\n      mstore\n      0x20\n      add\n      0x01\n      dup3\n      add\n      dup1\n      sload\n      tag_45\n      swap1\n      tag_40\n      jump\t// in\n    tag_45:\n      dup1\n      0x1f\n      add\n      0x20\n      dup1\n      swap2\n      div\n      mul\n      0x20\n      add\n      mload(0x40)\n      swap1\n      dup2\n      add\n      0x40\n      mstore\n      dup1\n      swap3\n      swap2\n      swap1\n      dup2\n      dup2\n      mstore\n      0x20\n      add\n      dup3\n      dup1\n      sload\n      tag_46\n      swap1\n      tag_40\n      jump\t// in\n    tag_46:\n      dup1\n      iszero\n      tag_47\n      jumpi\n      dup1\n      0x1f\n      lt\n      tag_48\n      jumpi\n      0x0100\n      dup1\n      dup4\n      sload\n      div\n      mul\n      dup4\n      mstore\n      swap2\n      0x20\n      add\n      swap2\n      jump(tag_47)\n    tag_48:\n      dup3\n      add\n      swap2\n      swap1\n      0x00\n      mstore\n      keccak256(0x00, 0x20)\n      swap1\n    tag_49:\n      dup2\n      sload\n      dup2\n      mstore\n      swap1\n      0x01\n      add\n      swap1\n      0x20\n      add\n      dup1\n      dup4\n      gt\n      tag_49\n      jumpi\n      dup3\n      swap1\n      sub\n      0x1f\n      and\n      dup3\n      add\n      swap2\n    tag_47:\n      pop\n      pop\n      pop\n      pop\n      pop\n      dup2\n      mstore\n      0x20\n      add\n      0x02\n      dup3\n      add\n      dup1\n      sload\n      tag_50\n      swap1\n      tag_40\n      jump\t// in\n    tag_50:\n      dup1\n      0x1f\n      add\n      0x20\n      dup1\n      swap2\n      div\n      mul\n      0x20\n      add\n      mload(0x40)\n      swap1\n      dup2\n      add\n      0x40\n      mstore\n      dup1\n      swap3\n      swap2\n      swap1\n      dup2\n      dup2\n      mstore\n      0x20\n      add\n      dup3\n      dup1\n      sload\n      tag_51\n      swap1\n      tag_40\n      jump\t// in\n    tag_51:\n      dup1\n      iszero\n      tag_52\n      jumpi\n      dup1\n      0x1f\n      lt\n      tag_53\n      jumpi\n      0x0100\n      dup1\n      dup4\n      sload\n      div\n      mul\n      dup4\n      mstore\n      swap2\n      0x20\n      add\n      swap2\n      jump(tag_52)\n    tag_53:\n      dup3\n      add\n      swap2\n      swap1\n      0x00\n      mstore\n      keccak256(0x00, 0x20)\n      swap1\n    tag_54:\n      dup2\n      sload\n      dup2\n      mstore\n      swap1\n      0x01\n      add\n      swap1\n      0x20\n      add\n      dup1\n      dup4\n      gt\n      tag_54\n      jumpi\n      dup3\n      swap1\n      sub\n      0x1f\n      and\n      dup3\n      add\n      swap2\n    tag_52:\n      pop\n      pop\n      pop\n      pop\n      pop\n      dup2\n      mstore\n      pop\n      pop\n      swap1\n      pop\n        /* \"server/contracts/UserProfile.sol\":1423:1531  function getProfile(address user) public view returns (Profile memory){... */\n      swap2\n      swap1\n      pop\n      jump\t// out\n        /* \"server/contracts/UserProfile.sol\":2051:2459  function editProfile (string memory username, string memory bio, string memory profilePictureURI... */\n    tag_18:\n        /* \"server/contracts/UserProfile.sol\":2174:2182  username */\n      dup3\n        /* \"server/contracts/UserProfile.sol\":977:978  0 */\n      0x00\n        /* \"server/contracts/UserProfile.sol\":957:966  _username */\n      dup2\n        /* \"server/contracts/UserProfile.sol\":951:974  bytes(_username).length */\n      mload\n        /* \"server/contracts/UserProfile.sol\":951:978  bytes(_username).length > 0 */\n      gt\n        /* \"server/contracts/UserProfile.sol\":943:1003  require(bytes(_username).length > 0, \"Username is required\") */\n      tag_56\n      jumpi\n      mload(0x40)\n      0x08c379a000000000000000000000000000000000000000000000000000000000\n      dup2\n      mstore\n      0x04\n      add\n      tag_57\n      swap1\n      tag_58\n      jump\t// in\n    tag_57:\n      mload(0x40)\n      dup1\n      swap2\n      sub\n      swap1\n      revert\n    tag_56:\n        /* \"server/Libraries/ConstantsLibrary.sol\":170:212  0x0000000000000000000000000000000000000000 */\n      0x00\n        /* \"server/contracts/UserProfile.sol\":1021:1067  usernames[_username] == Constants.NULL_ADDRESS */\n      0xffffffffffffffffffffffffffffffffffffffff\n      and\n        /* \"server/contracts/UserProfile.sol\":1021:1030  usernames */\n      0x02\n        /* \"server/contracts/UserProfile.sol\":1031:1040  _username */\n      dup3\n        /* \"server/contracts/UserProfile.sol\":1021:1041  usernames[_username] */\n      mload(0x40)\n      tag_59\n      swap2\n      swap1\n      tag_60\n      jump\t// in\n    tag_59:\n      swap1\n      dup2\n      mstore\n      0x20\n      add\n      mload(0x40)\n      dup1\n      swap2\n      sub\n      swap1\n      keccak256\n      0x00\n      swap1\n      sload\n      swap1\n      0x0100\n      exp\n      swap1\n      div\n      0xffffffffffffffffffffffffffffffffffffffff\n      and\n        /* \"server/contracts/UserProfile.sol\":1021:1067  usernames[_username] == Constants.NULL_ADDRESS */\n      0xffffffffffffffffffffffffffffffffffffffff\n      and\n      eq\n        /* \"server/contracts/UserProfile.sol\":1013:1089  require(usernames[_username] == Constants.NULL_ADDRESS, \"Username is taken\") */\n      tag_61\n      jumpi\n      mload(0x40)\n      0x08c379a000000000000000000000000000000000000000000000000000000000\n      dup2\n      mstore\n      0x04\n      add\n      tag_62\n      swap1\n      tag_63\n      jump\t// in\n    tag_62:\n      mload(0x40)\n      dup1\n      swap2\n      sub\n      swap1\n      revert\n    tag_61:\n        /* \"server/Libraries/ConstantsLibrary.sol\":170:212  0x0000000000000000000000000000000000000000 */\n      0x00\n        /* \"server/contracts/UserProfile.sol\":2195:2204  usernames */\n      0x02\n        /* \"server/contracts/UserProfile.sol\":2205:2213  profiles */\n      0x00\n        /* \"server/contracts/UserProfile.sol\":2205:2225  profiles[msg.sender] */\n      0x00\n        /* \"server/contracts/UserProfile.sol\":2214:2224  msg.sender */\n      caller\n        /* \"server/contracts/UserProfile.sol\":2205:2225  profiles[msg.sender] */\n      0xffffffffffffffffffffffffffffffffffffffff\n      and\n      0xffffffffffffffffffffffffffffffffffffffff\n      and\n      dup2\n      mstore\n      0x20\n      add\n      swap1\n      dup2\n      mstore\n      0x20\n      add\n      0x00\n      keccak256\n        /* \"server/contracts/UserProfile.sol\":2205:2234  profiles[msg.sender].username */\n      0x00\n      add\n        /* \"server/contracts/UserProfile.sol\":2195:2235  usernames[profiles[msg.sender].username] */\n      mload(0x40)\n      tag_65\n      swap2\n      swap1\n      tag_66\n      jump\t// in\n    tag_65:\n      swap1\n      dup2\n      mstore\n      0x20\n      add\n      mload(0x40)\n      dup1\n      swap2\n      sub\n      swap1\n      keccak256\n      0x00\n        /* \"server/contracts/UserProfile.sol\":2195:2260  usernames[profiles[msg.sender].username] = Constants.NULL_ADDRESS */\n      0x0100\n      exp\n      dup2\n      sload\n      dup2\n      0xffffffffffffffffffffffffffffffffffffffff\n      mul\n      not\n      and\n      swap1\n      dup4\n      0xffffffffffffffffffffffffffffffffffffffff\n      and\n      mul\n      or\n      swap1\n      sstore\n      pop\n        /* \"server/contracts/UserProfile.sol\":2293:2334  Profile(username, bio, profilePictureURI) */\n      mload(0x40)\n      dup1\n      0x60\n      add\n      0x40\n      mstore\n      dup1\n        /* \"server/contracts/UserProfile.sol\":2301:2309  username */\n      dup6\n        /* \"server/contracts/UserProfile.sol\":2293:2334  Profile(username, bio, profilePictureURI) */\n      dup2\n      mstore\n      0x20\n      add\n        /* \"server/contracts/UserProfile.sol\":2311:2314  bio */\n      dup5\n        /* \"server/contracts/UserProfile.sol\":2293:2334  Profile(username, bio, profilePictureURI) */\n      dup2\n      mstore\n      0x20\n      add\n        /* \"server/contracts/UserProfile.sol\":2316:2333  profilePictureURI */\n      dup4\n        /* \"server/contracts/UserProfile.sol\":2293:2334  Profile(username, bio, profilePictureURI) */\n      dup2\n      mstore\n      pop\n        /* \"server/contracts/UserProfile.sol\":2270:2278  profiles */\n      0x00\n        /* \"server/contracts/UserProfile.sol\":2270:2290  profiles[msg.sender] */\n      0x00\n        /* \"server/contracts/UserProfile.sol\":2279:2289  msg.sender */\n      caller\n        /* \"server/contracts/UserProfile.sol\":2270:2290  profiles[msg.sender] */\n      0xffffffffffffffffffffffffffffffffffffffff\n      and\n      0xffffffffffffffffffffffffffffffffffffffff\n      and\n      dup2\n      mstore\n      0x20\n      add\n      swap1\n      dup2\n      mstore\n      0x20\n      add\n      0x00\n      keccak256\n        /* \"server/contracts/UserProfile.sol\":2270:2334  profiles[msg.sender] = Profile(username, bio, profilePictureURI) */\n      0x00\n      dup3\n      add\n      mload\n      dup2\n      0x00\n      add\n      swap1\n      dup2\n      tag_67\n      swap2\n      swap1\n      tag_68\n      jump\t// in\n    tag_67:\n      pop\n      0x20\n      dup3\n      add\n      mload\n      dup2\n      0x01\n      add\n      swap1\n      dup2\n      tag_69\n      swap2\n      swap1\n      tag_68\n      jump\t// in\n    tag_69:\n      pop\n      0x40\n      dup3\n      add\n      mload\n      dup2\n      0x02\n      add\n      swap1\n      dup2\n      tag_70\n      swap2\n      swap1\n      tag_68\n      jump\t// in\n    tag_70:\n      pop\n      swap1\n      pop\n      pop\n        /* \"server/contracts/UserProfile.sol\":2366:2376  msg.sender */\n      caller\n        /* \"server/contracts/UserProfile.sol\":2344:2353  usernames */\n      0x02\n        /* \"server/contracts/UserProfile.sol\":2354:2362  username */\n      dup6\n        /* \"server/contracts/UserProfile.sol\":2344:2363  usernames[username] */\n      mload(0x40)\n      tag_71\n      swap2\n      swap1\n      tag_60\n      jump\t// in\n    tag_71:\n      swap1\n      dup2\n      mstore\n      0x20\n      add\n      mload(0x40)\n      dup1\n      swap2\n      sub\n      swap1\n      keccak256\n      0x00\n        /* \"server/contracts/UserProfile.sol\":2344:2376  usernames[username] = msg.sender */\n      0x0100\n      exp\n      dup2\n      sload\n      dup2\n      0xffffffffffffffffffffffffffffffffffffffff\n      mul\n      not\n      and\n      swap1\n      dup4\n      0xffffffffffffffffffffffffffffffffffffffff\n      and\n      mul\n      or\n      swap1\n      sstore\n      pop\n        /* \"server/contracts/UserProfile.sol\":2392:2452  ProfileUpdated(msg.sender, username, bio, profilePictureURI) */\n      0x6420daf1b58438e85465ef21dee378d307a509caab491149e3f066c5caf1266d\n        /* \"server/contracts/UserProfile.sol\":2407:2417  msg.sender */\n      caller\n        /* \"server/contracts/UserProfile.sol\":2419:2427  username */\n      dup6\n        /* \"server/contracts/UserProfile.sol\":2429:2432  bio */\n      dup6\n        /* \"server/contracts/UserProfile.sol\":2434:2451  profilePictureURI */\n      dup6\n        /* \"server/contracts/UserProfile.sol\":2392:2452  ProfileUpdated(msg.sender, username, bio, profilePictureURI) */\n      mload(0x40)\n      tag_72\n      swap5\n      swap4\n      swap3\n      swap2\n      swap1\n      tag_73\n      jump\t// in\n    tag_72:\n      mload(0x40)\n      dup1\n      swap2\n      sub\n      swap1\n      log1\n        /* \"server/contracts/UserProfile.sol\":2051:2459  function editProfile (string memory username, string memory bio, string memory profilePictureURI... */\n      pop\n      pop\n      pop\n      pop\n      jump\t// out\n        /* \"server/contracts/UserProfile.sol\":1538:1642  function getAllUsersAddrs() public view returns ( address[] memory){... */\n    tag_20:\n        /* \"server/contracts/UserProfile.sol\":1588:1604  address[] memory */\n      0x60\n        /* \"server/contracts/UserProfile.sol\":1622:1635  userAddresses */\n      0x01\n        /* \"server/contracts/UserProfile.sol\":1615:1635  return userAddresses */\n      dup1\n      sload\n      dup1\n      0x20\n      mul\n      0x20\n      add\n      mload(0x40)\n      swap1\n      dup2\n      add\n      0x40\n      mstore\n      dup1\n      swap3\n      swap2\n      swap1\n      dup2\n      dup2\n      mstore\n      0x20\n      add\n      dup3\n      dup1\n      sload\n      dup1\n      iszero\n      tag_75\n      jumpi\n      0x20\n      mul\n      dup3\n      add\n      swap2\n      swap1\n      0x00\n      mstore\n      keccak256(0x00, 0x20)\n      swap1\n    tag_76:\n      dup2\n      0x00\n      swap1\n      sload\n      swap1\n      0x0100\n      exp\n      swap1\n      div\n      0xffffffffffffffffffffffffffffffffffffffff\n      and\n      0xffffffffffffffffffffffffffffffffffffffff\n      and\n      dup2\n      mstore\n      0x20\n      add\n      swap1\n      0x01\n      add\n      swap1\n      dup1\n      dup4\n      gt\n      tag_76\n      jumpi\n    tag_75:\n      pop\n      pop\n      pop\n      pop\n      pop\n      swap1\n      pop\n        /* \"server/contracts/UserProfile.sol\":1538:1642  function getAllUsersAddrs() public view returns ( address[] memory){... */\n      swap1\n      jump\t// out\n        /* \"server/contracts/UserProfile.sol\":1648:2045  function createNewProfile(string memory username, string memory bio, string memory profilePictureURI... */\n    tag_25:\n        /* \"server/contracts/UserProfile.sol\":797:798  0 */\n      0x00\n        /* \"server/contracts/UserProfile.sol\":756:764  profiles */\n      0x00\n        /* \"server/contracts/UserProfile.sol\":756:776  profiles[msg.sender] */\n      0x00\n        /* \"server/contracts/UserProfile.sol\":765:775  msg.sender */\n      caller\n        /* \"server/contracts/UserProfile.sol\":756:776  profiles[msg.sender] */\n      0xffffffffffffffffffffffffffffffffffffffff\n      and\n      0xffffffffffffffffffffffffffffffffffffffff\n      and\n      dup2\n      mstore\n      0x20\n      add\n      swap1\n      dup2\n      mstore\n      0x20\n      add\n      0x00\n      keccak256\n        /* \"server/contracts/UserProfile.sol\":756:785  profiles[msg.sender].username */\n      0x00\n      add\n        /* \"server/contracts/UserProfile.sol\":750:793  bytes(profiles[msg.sender].username).length */\n      dup1\n      sload\n      tag_78\n      swap1\n      tag_40\n      jump\t// in\n    tag_78:\n      swap1\n      pop\n        /* \"server/contracts/UserProfile.sol\":750:798  bytes(profiles[msg.sender].username).length == 0 */\n      eq\n        /* \"server/contracts/UserProfile.sol\":729:863  require(... */\n      tag_79\n      jumpi\n      mload(0x40)\n      0x08c379a000000000000000000000000000000000000000000000000000000000\n      dup2\n      mstore\n      0x04\n      add\n      tag_80\n      swap1\n      tag_81\n      jump\t// in\n    tag_80:\n      mload(0x40)\n      dup1\n      swap2\n      sub\n      swap1\n      revert\n    tag_79:\n        /* \"server/contracts/UserProfile.sol\":1795:1803  username */\n      dup3\n        /* \"server/contracts/UserProfile.sol\":977:978  0 */\n      0x00\n        /* \"server/contracts/UserProfile.sol\":957:966  _username */\n      dup2\n        /* \"server/contracts/UserProfile.sol\":951:974  bytes(_username).length */\n      mload\n        /* \"server/contracts/UserProfile.sol\":951:978  bytes(_username).length > 0 */\n      gt\n        /* \"server/contracts/UserProfile.sol\":943:1003  require(bytes(_username).length > 0, \"Username is required\") */\n      tag_83\n      jumpi\n      mload(0x40)\n      0x08c379a000000000000000000000000000000000000000000000000000000000\n      dup2\n      mstore\n      0x04\n      add\n      tag_84\n      swap1\n      tag_58\n      jump\t// in\n    tag_84:\n      mload(0x40)\n      dup1\n      swap2\n      sub\n      swap1\n      revert\n    tag_83:\n        /* \"server/Libraries/ConstantsLibrary.sol\":170:212  0x0000000000000000000000000000000000000000 */\n      0x00\n        /* \"server/contracts/UserProfile.sol\":1021:1067  usernames[_username] == Constants.NULL_ADDRESS */\n      0xffffffffffffffffffffffffffffffffffffffff\n      and\n        /* \"server/contracts/UserProfile.sol\":1021:1030  usernames */\n      0x02\n        /* \"server/contracts/UserProfile.sol\":1031:1040  _username */\n      dup3\n        /* \"server/contracts/UserProfile.sol\":1021:1041  usernames[_username] */\n      mload(0x40)\n      tag_85\n      swap2\n      swap1\n      tag_60\n      jump\t// in\n    tag_85:\n      swap1\n      dup2\n      mstore\n      0x20\n      add\n      mload(0x40)\n      dup1\n      swap2\n      sub\n      swap1\n      keccak256\n      0x00\n      swap1\n      sload\n      swap1\n      0x0100\n      exp\n      swap1\n      div\n      0xffffffffffffffffffffffffffffffffffffffff\n      and\n        /* \"server/contracts/UserProfile.sol\":1021:1067  usernames[_username] == Constants.NULL_ADDRESS */\n      0xffffffffffffffffffffffffffffffffffffffff\n      and\n      eq\n        /* \"server/contracts/UserProfile.sol\":1013:1089  require(usernames[_username] == Constants.NULL_ADDRESS, \"Username is taken\") */\n      tag_86\n      jumpi\n      mload(0x40)\n      0x08c379a000000000000000000000000000000000000000000000000000000000\n      dup2\n      mstore\n      0x04\n      add\n      tag_87\n      swap1\n      tag_63\n      jump\t// in\n    tag_87:\n      mload(0x40)\n      dup1\n      swap2\n      sub\n      swap1\n      revert\n    tag_86:\n        /* \"server/contracts/UserProfile.sol\":1839:1880  Profile(username, bio, profilePictureURI) */\n      mload(0x40)\n      dup1\n      0x60\n      add\n      0x40\n      mstore\n      dup1\n        /* \"server/contracts/UserProfile.sol\":1847:1855  username */\n      dup6\n        /* \"server/contracts/UserProfile.sol\":1839:1880  Profile(username, bio, profilePictureURI) */\n      dup2\n      mstore\n      0x20\n      add\n        /* \"server/contracts/UserProfile.sol\":1857:1860  bio */\n      dup5\n        /* \"server/contracts/UserProfile.sol\":1839:1880  Profile(username, bio, profilePictureURI) */\n      dup2\n      mstore\n      0x20\n      add\n        /* \"server/contracts/UserProfile.sol\":1862:1879  profilePictureURI */\n      dup4\n        /* \"server/contracts/UserProfile.sol\":1839:1880  Profile(username, bio, profilePictureURI) */\n      dup2\n      mstore\n      pop\n        /* \"server/contracts/UserProfile.sol\":1816:1824  profiles */\n      0x00\n        /* \"server/contracts/UserProfile.sol\":1816:1836  profiles[msg.sender] */\n      0x00\n        /* \"server/contracts/UserProfile.sol\":1825:1835  msg.sender */\n      caller\n        /* \"server/contracts/UserProfile.sol\":1816:1836  profiles[msg.sender] */\n      0xffffffffffffffffffffffffffffffffffffffff\n      and\n      0xffffffffffffffffffffffffffffffffffffffff\n      and\n      dup2\n      mstore\n      0x20\n      add\n      swap1\n      dup2\n      mstore\n      0x20\n      add\n      0x00\n      keccak256\n        /* \"server/contracts/UserProfile.sol\":1816:1880  profiles[msg.sender] = Profile(username, bio, profilePictureURI) */\n      0x00\n      dup3\n      add\n      mload\n      dup2\n      0x00\n      add\n      swap1\n      dup2\n      tag_89\n      swap2\n      swap1\n      tag_68\n      jump\t// in\n    tag_89:\n      pop\n      0x20\n      dup3\n      add\n      mload\n      dup2\n      0x01\n      add\n      swap1\n      dup2\n      tag_90\n      swap2\n      swap1\n      tag_68\n      jump\t// in\n    tag_90:\n      pop\n      0x40\n      dup3\n      add\n      mload\n      dup2\n      0x02\n      add\n      swap1\n      dup2\n      tag_91\n      swap2\n      swap1\n      tag_68\n      jump\t// in\n    tag_91:\n      pop\n      swap1\n      pop\n      pop\n        /* \"server/contracts/UserProfile.sol\":1890:1903  userAddresses */\n      0x01\n        /* \"server/contracts/UserProfile.sol\":1909:1919  msg.sender */\n      caller\n        /* \"server/contracts/UserProfile.sol\":1890:1920  userAddresses.push(msg.sender) */\n      swap1\n      dup1\n      0x01\n      dup2\n      sload\n      add\n      dup1\n      dup3\n      sstore\n      dup1\n      swap2\n      pop\n      pop\n      0x01\n      swap1\n      sub\n      swap1\n      0x00\n      mstore\n      keccak256(0x00, 0x20)\n      add\n      0x00\n      swap1\n      swap2\n      swap1\n      swap2\n      swap1\n      swap2\n      0x0100\n      exp\n      dup2\n      sload\n      dup2\n      0xffffffffffffffffffffffffffffffffffffffff\n      mul\n      not\n      and\n      swap1\n      dup4\n      0xffffffffffffffffffffffffffffffffffffffff\n      and\n      mul\n      or\n      swap1\n      sstore\n      pop\n        /* \"server/contracts/UserProfile.sol\":1952:1962  msg.sender */\n      caller\n        /* \"server/contracts/UserProfile.sol\":1930:1939  usernames */\n      0x02\n        /* \"server/contracts/UserProfile.sol\":1940:1948  username */\n      dup6\n        /* \"server/contracts/UserProfile.sol\":1930:1949  usernames[username] */\n      mload(0x40)\n      tag_93\n      swap2\n      swap1\n      tag_60\n      jump\t// in\n    tag_93:\n      swap1\n      dup2\n      mstore\n      0x20\n      add\n      mload(0x40)\n      dup1\n      swap2\n      sub\n      swap1\n      keccak256\n      0x00\n        /* \"server/contracts/UserProfile.sol\":1930:1962  usernames[username] = msg.sender */\n      0x0100\n      exp\n      dup2\n      sload\n      dup2\n      0xffffffffffffffffffffffffffffffffffffffff\n      mul\n      not\n      and\n      swap1\n      dup4\n      0xffffffffffffffffffffffffffffffffffffffff\n      and\n      mul\n      or\n      swap1\n      sstore\n      pop\n        /* \"server/contracts/UserProfile.sol\":1978:2038  ProfileCreated(msg.sender, username, bio, profilePictureURI) */\n      0x77c378673324822ad159b021c3ce202d7676946ff3967162024b660a493e64b3\n        /* \"server/contracts/UserProfile.sol\":1993:2003  msg.sender */\n      caller\n        /* \"server/contracts/UserProfile.sol\":2005:2013  username */\n      dup6\n        /* \"server/contracts/UserProfile.sol\":2015:2018  bio */\n      dup6\n        /* \"server/contracts/UserProfile.sol\":2020:2037  profilePictureURI */\n      dup6\n        /* \"server/contracts/UserProfile.sol\":1978:2038  ProfileCreated(msg.sender, username, bio, profilePictureURI) */\n      mload(0x40)\n      tag_94\n      swap5\n      swap4\n      swap3\n      swap2\n      swap1\n      tag_73\n      jump\t// in\n    tag_94:\n      mload(0x40)\n      dup1\n      swap2\n      sub\n      swap1\n      log1\n        /* \"server/contracts/UserProfile.sol\":873:874  _ */\n      pop\n        /* \"server/contracts/UserProfile.sol\":1648:2045  function createNewProfile(string memory username, string memory bio, string memory profilePictureURI... */\n      pop\n      pop\n      pop\n      jump\t// out\n        /* \"server/contracts/UserProfile.sol\":1273:1416  function existsUser(string memory _username) external view returns (bool){... */\n    tag_29:\n        /* \"server/contracts/UserProfile.sol\":1341:1345  bool */\n      0x00\n        /* \"server/Libraries/ConstantsLibrary.sol\":170:212  0x0000000000000000000000000000000000000000 */\n      0x00\n        /* \"server/contracts/UserProfile.sol\":1363:1409  usernames[_username] != Constants.NULL_ADDRESS */\n      0xffffffffffffffffffffffffffffffffffffffff\n      and\n        /* \"server/contracts/UserProfile.sol\":1363:1372  usernames */\n      0x02\n        /* \"server/contracts/UserProfile.sol\":1373:1382  _username */\n      dup4\n        /* \"server/contracts/UserProfile.sol\":1363:1383  usernames[_username] */\n      mload(0x40)\n      tag_96\n      swap2\n      swap1\n      tag_60\n      jump\t// in\n    tag_96:\n      swap1\n      dup2\n      mstore\n      0x20\n      add\n      mload(0x40)\n      dup1\n      swap2\n      sub\n      swap1\n      keccak256\n      0x00\n      swap1\n      sload\n      swap1\n      0x0100\n      exp\n      swap1\n      div\n      0xffffffffffffffffffffffffffffffffffffffff\n      and\n        /* \"server/contracts/UserProfile.sol\":1363:1409  usernames[_username] != Constants.NULL_ADDRESS */\n      0xffffffffffffffffffffffffffffffffffffffff\n      and\n      eq\n      iszero\n        /* \"server/contracts/UserProfile.sol\":1356:1409  return usernames[_username] != Constants.NULL_ADDRESS */\n      swap1\n      pop\n        /* \"server/contracts/UserProfile.sol\":1273:1416  function existsUser(string memory _username) external view returns (bool){... */\n      swap2\n      swap1\n      pop\n      jump\t// out\n        /* \"server/contracts/UserProfile.sol\":1136:1267  function existsUser(address _user) external view returns (bool){... */\n    tag_34:\n        /* \"server/contracts/UserProfile.sol\":1194:1198  bool */\n      0x00\n        /* \"server/contracts/UserProfile.sol\":1259:1260  0 */\n      0x00\n        /* \"server/contracts/UserProfile.sol\":1223:1231  profiles */\n      0x00\n        /* \"server/contracts/UserProfile.sol\":1223:1238  profiles[_user] */\n      0x00\n        /* \"server/contracts/UserProfile.sol\":1232:1237  _user */\n      dup5\n        /* \"server/contracts/UserProfile.sol\":1223:1238  profiles[_user] */\n      0xffffffffffffffffffffffffffffffffffffffff\n      and\n      0xffffffffffffffffffffffffffffffffffffffff\n      and\n      dup2\n      mstore\n      0x20\n      add\n      swap1\n      dup2\n      mstore\n      0x20\n      add\n      0x00\n      keccak256\n        /* \"server/contracts/UserProfile.sol\":1223:1247  profiles[_user].username */\n      0x00\n      add\n        /* \"server/contracts/UserProfile.sol\":1216:1255  bytes( profiles[_user].username).length */\n      dup1\n      sload\n      tag_98\n      swap1\n      tag_40\n      jump\t// in\n    tag_98:\n      swap1\n      pop\n        /* \"server/contracts/UserProfile.sol\":1216:1260  bytes( profiles[_user].username).length != 0 */\n      eq\n      iszero\n        /* \"server/contracts/UserProfile.sol\":1209:1260  return bytes( profiles[_user].username).length != 0 */\n      swap1\n      pop\n        /* \"server/contracts/UserProfile.sol\":1136:1267  function existsUser(address _user) external view returns (bool){... */\n      swap2\n      swap1\n      pop\n      jump\t// out\n    tag_37:\n      mload(0x40)\n      dup1\n      0x60\n      add\n      0x40\n      mstore\n      dup1\n      0x60\n      dup2\n      mstore\n      0x20\n      add\n      0x60\n      dup2\n      mstore\n      0x20\n      add\n      0x60\n      dup2\n      mstore\n      pop\n      swap1\n      jump\t// out\n        /* \"#utility.yul\":7:82   */\n    tag_99:\n        /* \"#utility.yul\":40:46   */\n      0x00\n        /* \"#utility.yul\":73:75   */\n      0x40\n        /* \"#utility.yul\":67:76   */\n      mload\n        /* \"#utility.yul\":57:76   */\n      swap1\n      pop\n        /* \"#utility.yul\":7:82   */\n      swap1\n      jump\t// out\n        /* \"#utility.yul\":88:205   */\n    tag_100:\n        /* \"#utility.yul\":197:198   */\n      0x00\n        /* \"#utility.yul\":194:195   */\n      0x00\n        /* \"#utility.yul\":187:199   */\n      revert\n        /* \"#utility.yul\":211:328   */\n    tag_101:\n        /* \"#utility.yul\":320:321   */\n      0x00\n        /* \"#utility.yul\":317:318   */\n      0x00\n        /* \"#utility.yul\":310:322   */\n      revert\n        /* \"#utility.yul\":334:460   */\n    tag_102:\n        /* \"#utility.yul\":371:378   */\n      0x00\n        /* \"#utility.yul\":411:453   */\n      0xffffffffffffffffffffffffffffffffffffffff\n        /* \"#utility.yul\":404:409   */\n      dup3\n        /* \"#utility.yul\":400:454   */\n      and\n        /* \"#utility.yul\":389:454   */\n      swap1\n      pop\n        /* \"#utility.yul\":334:460   */\n      swap2\n      swap1\n      pop\n      jump\t// out\n        /* \"#utility.yul\":466:562   */\n    tag_103:\n        /* \"#utility.yul\":503:510   */\n      0x00\n        /* \"#utility.yul\":532:556   */\n      tag_165\n        /* \"#utility.yul\":550:555   */\n      dup3\n        /* \"#utility.yul\":532:556   */\n      tag_102\n      jump\t// in\n    tag_165:\n        /* \"#utility.yul\":521:556   */\n      swap1\n      pop\n        /* \"#utility.yul\":466:562   */\n      swap2\n      swap1\n      pop\n      jump\t// out\n        /* \"#utility.yul\":568:690   */\n    tag_104:\n        /* \"#utility.yul\":641:665   */\n      tag_167\n        /* \"#utility.yul\":659:664   */\n      dup2\n        /* \"#utility.yul\":641:665   */\n      tag_103\n      jump\t// in\n    tag_167:\n        /* \"#utility.yul\":634:639   */\n      dup2\n        /* \"#utility.yul\":631:666   */\n      eq\n        /* \"#utility.yul\":621:684   */\n      tag_168\n      jumpi\n        /* \"#utility.yul\":680:681   */\n      0x00\n        /* \"#utility.yul\":677:678   */\n      0x00\n        /* \"#utility.yul\":670:682   */\n      revert\n        /* \"#utility.yul\":621:684   */\n    tag_168:\n        /* \"#utility.yul\":568:690   */\n      pop\n      jump\t// out\n        /* \"#utility.yul\":696:835   */\n    tag_105:\n        /* \"#utility.yul\":742:747   */\n      0x00\n        /* \"#utility.yul\":780:786   */\n      dup2\n        /* \"#utility.yul\":767:787   */\n      calldataload\n        /* \"#utility.yul\":758:787   */\n      swap1\n      pop\n        /* \"#utility.yul\":796:829   */\n      tag_170\n        /* \"#utility.yul\":823:828   */\n      dup2\n        /* \"#utility.yul\":796:829   */\n      tag_104\n      jump\t// in\n    tag_170:\n        /* \"#utility.yul\":696:835   */\n      swap3\n      swap2\n      pop\n      pop\n      jump\t// out\n        /* \"#utility.yul\":841:1170   */\n    tag_11:\n        /* \"#utility.yul\":900:906   */\n      0x00\n        /* \"#utility.yul\":949:951   */\n      0x20\n        /* \"#utility.yul\":937:946   */\n      dup3\n        /* \"#utility.yul\":928:935   */\n      dup5\n        /* \"#utility.yul\":924:947   */\n      sub\n        /* \"#utility.yul\":920:952   */\n      slt\n        /* \"#utility.yul\":917:1036   */\n      iszero\n      tag_172\n      jumpi\n        /* \"#utility.yul\":955:1034   */\n      tag_173\n      tag_100\n      jump\t// in\n    tag_173:\n        /* \"#utility.yul\":917:1036   */\n    tag_172:\n        /* \"#utility.yul\":1075:1076   */\n      0x00\n        /* \"#utility.yul\":1100:1153   */\n      tag_174\n        /* \"#utility.yul\":1145:1152   */\n      dup5\n        /* \"#utility.yul\":1136:1142   */\n      dup3\n        /* \"#utility.yul\":1125:1134   */\n      dup6\n        /* \"#utility.yul\":1121:1143   */\n      add\n        /* \"#utility.yul\":1100:1153   */\n      tag_105\n      jump\t// in\n    tag_174:\n        /* \"#utility.yul\":1090:1153   */\n      swap2\n      pop\n        /* \"#utility.yul\":1046:1163   */\n      pop\n        /* \"#utility.yul\":841:1170   */\n      swap3\n      swap2\n      pop\n      pop\n      jump\t// out\n        /* \"#utility.yul\":1176:1275   */\n    tag_106:\n        /* \"#utility.yul\":1228:1234   */\n      0x00\n        /* \"#utility.yul\":1262:1267   */\n      dup2\n        /* \"#utility.yul\":1256:1268   */\n      mload\n        /* \"#utility.yul\":1246:1268   */\n      swap1\n      pop\n        /* \"#utility.yul\":1176:1275   */\n      swap2\n      swap1\n      pop\n      jump\t// out\n        /* \"#utility.yul\":1281:1440   */\n    tag_107:\n        /* \"#utility.yul\":1355:1366   */\n      0x00\n        /* \"#utility.yul\":1389:1395   */\n      dup3\n        /* \"#utility.yul\":1384:1387   */\n      dup3\n        /* \"#utility.yul\":1377:1396   */\n      mstore\n        /* \"#utility.yul\":1429:1433   */\n      0x20\n        /* \"#utility.yul\":1424:1427   */\n      dup3\n        /* \"#utility.yul\":1420:1434   */\n      add\n        /* \"#utility.yul\":1405:1434   */\n      swap1\n      pop\n        /* \"#utility.yul\":1281:1440   */\n      swap3\n      swap2\n      pop\n      pop\n      jump\t// out\n        /* \"#utility.yul\":1446:1585   */\n    tag_108:\n        /* \"#utility.yul\":1535:1541   */\n      dup3\n        /* \"#utility.yul\":1530:1533   */\n      dup2\n        /* \"#utility.yul\":1525:1528   */\n      dup4\n        /* \"#utility.yul\":1519:1542   */\n      mcopy\n        /* \"#utility.yul\":1576:1577   */\n      0x00\n        /* \"#utility.yul\":1567:1573   */\n      dup4\n        /* \"#utility.yul\":1562:1565   */\n      dup4\n        /* \"#utility.yul\":1558:1574   */\n      add\n        /* \"#utility.yul\":1551:1578   */\n      mstore\n        /* \"#utility.yul\":1446:1585   */\n      pop\n      pop\n      pop\n      jump\t// out\n        /* \"#utility.yul\":1591:1693   */\n    tag_109:\n        /* \"#utility.yul\":1632:1638   */\n      0x00\n        /* \"#utility.yul\":1683:1685   */\n      0x1f\n        /* \"#utility.yul\":1679:1686   */\n      not\n        /* \"#utility.yul\":1674:1676   */\n      0x1f\n        /* \"#utility.yul\":1667:1672   */\n      dup4\n        /* \"#utility.yul\":1663:1677   */\n      add\n        /* \"#utility.yul\":1659:1687   */\n      and\n        /* \"#utility.yul\":1649:1687   */\n      swap1\n      pop\n        /* \"#utility.yul\":1591:1693   */\n      swap2\n      swap1\n      pop\n      jump\t// out\n        /* \"#utility.yul\":1699:2056   */\n    tag_110:\n        /* \"#utility.yul\":1777:1780   */\n      0x00\n        /* \"#utility.yul\":1805:1844   */\n      tag_180\n        /* \"#utility.yul\":1838:1843   */\n      dup3\n        /* \"#utility.yul\":1805:1844   */\n      tag_106\n      jump\t// in\n    tag_180:\n        /* \"#utility.yul\":1860:1921   */\n      tag_181\n        /* \"#utility.yul\":1914:1920   */\n      dup2\n        /* \"#utility.yul\":1909:1912   */\n      dup6\n        /* \"#utility.yul\":1860:1921   */\n      tag_107\n      jump\t// in\n    tag_181:\n        /* \"#utility.yul\":1853:1921   */\n      swap4\n      pop\n        /* \"#utility.yul\":1930:1995   */\n      tag_182\n        /* \"#utility.yul\":1988:1994   */\n      dup2\n        /* \"#utility.yul\":1983:1986   */\n      dup6\n        /* \"#utility.yul\":1976:1980   */\n      0x20\n        /* \"#utility.yul\":1969:1974   */\n      dup7\n        /* \"#utility.yul\":1965:1981   */\n      add\n        /* \"#utility.yul\":1930:1995   */\n      tag_108\n      jump\t// in\n    tag_182:\n        /* \"#utility.yul\":2020:2049   */\n      tag_183\n        /* \"#utility.yul\":2042:2048   */\n      dup2\n        /* \"#utility.yul\":2020:2049   */\n      tag_109\n      jump\t// in\n    tag_183:\n        /* \"#utility.yul\":2015:2018   */\n      dup5\n        /* \"#utility.yul\":2011:2050   */\n      add\n        /* \"#utility.yul\":2004:2050   */\n      swap2\n      pop\n        /* \"#utility.yul\":1781:2056   */\n      pop\n        /* \"#utility.yul\":1699:2056   */\n      swap3\n      swap2\n      pop\n      pop\n      jump\t// out\n        /* \"#utility.yul\":2126:3060   */\n    tag_111:\n        /* \"#utility.yul\":2241:2244   */\n      0x00\n        /* \"#utility.yul\":2277:2281   */\n      0x60\n        /* \"#utility.yul\":2272:2275   */\n      dup4\n        /* \"#utility.yul\":2268:2282   */\n      add\n        /* \"#utility.yul\":2368:2372   */\n      0x00\n        /* \"#utility.yul\":2361:2366   */\n      dup4\n        /* \"#utility.yul\":2357:2373   */\n      add\n        /* \"#utility.yul\":2351:2374   */\n      mload\n        /* \"#utility.yul\":2421:2424   */\n      dup5\n        /* \"#utility.yul\":2415:2419   */\n      dup3\n        /* \"#utility.yul\":2411:2425   */\n      sub\n        /* \"#utility.yul\":2404:2408   */\n      0x00\n        /* \"#utility.yul\":2399:2402   */\n      dup7\n        /* \"#utility.yul\":2395:2409   */\n      add\n        /* \"#utility.yul\":2388:2426   */\n      mstore\n        /* \"#utility.yul\":2447:2520   */\n      tag_185\n        /* \"#utility.yul\":2515:2519   */\n      dup3\n        /* \"#utility.yul\":2501:2513   */\n      dup3\n        /* \"#utility.yul\":2447:2520   */\n      tag_110\n      jump\t// in\n    tag_185:\n        /* \"#utility.yul\":2439:2520   */\n      swap2\n      pop\n        /* \"#utility.yul\":2292:2531   */\n      pop\n        /* \"#utility.yul\":2612:2616   */\n      0x20\n        /* \"#utility.yul\":2605:2610   */\n      dup4\n        /* \"#utility.yul\":2601:2617   */\n      add\n        /* \"#utility.yul\":2595:2618   */\n      mload\n        /* \"#utility.yul\":2665:2668   */\n      dup5\n        /* \"#utility.yul\":2659:2663   */\n      dup3\n        /* \"#utility.yul\":2655:2669   */\n      sub\n        /* \"#utility.yul\":2648:2652   */\n      0x20\n        /* \"#utility.yul\":2643:2646   */\n      dup7\n        /* \"#utility.yul\":2639:2653   */\n      add\n        /* \"#utility.yul\":2632:2670   */\n      mstore\n        /* \"#utility.yul\":2691:2764   */\n      tag_186\n        /* \"#utility.yul\":2759:2763   */\n      dup3\n        /* \"#utility.yul\":2745:2757   */\n      dup3\n        /* \"#utility.yul\":2691:2764   */\n      tag_110\n      jump\t// in\n    tag_186:\n        /* \"#utility.yul\":2683:2764   */\n      swap2\n      pop\n        /* \"#utility.yul\":2541:2775   */\n      pop\n        /* \"#utility.yul\":2870:2874   */\n      0x40\n        /* \"#utility.yul\":2863:2868   */\n      dup4\n        /* \"#utility.yul\":2859:2875   */\n      add\n        /* \"#utility.yul\":2853:2876   */\n      mload\n        /* \"#utility.yul\":2923:2926   */\n      dup5\n        /* \"#utility.yul\":2917:2921   */\n      dup3\n        /* \"#utility.yul\":2913:2927   */\n      sub\n        /* \"#utility.yul\":2906:2910   */\n      0x40\n        /* \"#utility.yul\":2901:2904   */\n      dup7\n        /* \"#utility.yul\":2897:2911   */\n      add\n        /* \"#utility.yul\":2890:2928   */\n      mstore\n        /* \"#utility.yul\":2949:3022   */\n      tag_187\n        /* \"#utility.yul\":3017:3021   */\n      dup3\n        /* \"#utility.yul\":3003:3015   */\n      dup3\n        /* \"#utility.yul\":2949:3022   */\n      tag_110\n      jump\t// in\n    tag_187:\n        /* \"#utility.yul\":2941:3022   */\n      swap2\n      pop\n        /* \"#utility.yul\":2785:3033   */\n      pop\n        /* \"#utility.yul\":3050:3054   */\n      dup1\n        /* \"#utility.yul\":3043:3054   */\n      swap2\n      pop\n        /* \"#utility.yul\":2246:3060   */\n      pop\n        /* \"#utility.yul\":2126:3060   */\n      swap3\n      swap2\n      pop\n      pop\n      jump\t// out\n        /* \"#utility.yul\":3066:3431   */\n    tag_14:\n        /* \"#utility.yul\":3205:3209   */\n      0x00\n        /* \"#utility.yul\":3243:3245   */\n      0x20\n        /* \"#utility.yul\":3232:3241   */\n      dup3\n        /* \"#utility.yul\":3228:3246   */\n      add\n        /* \"#utility.yul\":3220:3246   */\n      swap1\n      pop\n        /* \"#utility.yul\":3292:3301   */\n      dup2\n        /* \"#utility.yul\":3286:3290   */\n      dup2\n        /* \"#utility.yul\":3282:3302   */\n      sub\n        /* \"#utility.yul\":3278:3279   */\n      0x00\n        /* \"#utility.yul\":3267:3276   */\n      dup4\n        /* \"#utility.yul\":3263:3280   */\n      add\n        /* \"#utility.yul\":3256:3303   */\n      mstore\n        /* \"#utility.yul\":3320:3424   */\n      tag_189\n        /* \"#utility.yul\":3419:3423   */\n      dup2\n        /* \"#utility.yul\":3410:3416   */\n      dup5\n        /* \"#utility.yul\":3320:3424   */\n      tag_111\n      jump\t// in\n    tag_189:\n        /* \"#utility.yul\":3312:3424   */\n      swap1\n      pop\n        /* \"#utility.yul\":3066:3431   */\n      swap3\n      swap2\n      pop\n      pop\n      jump\t// out\n        /* \"#utility.yul\":3437:3554   */\n    tag_112:\n        /* \"#utility.yul\":3546:3547   */\n      0x00\n        /* \"#utility.yul\":3543:3544   */\n      0x00\n        /* \"#utility.yul\":3536:3548   */\n      revert\n        /* \"#utility.yul\":3560:3677   */\n    tag_113:\n        /* \"#utility.yul\":3669:3670   */\n      0x00\n        /* \"#utility.yul\":3666:3667   */\n      0x00\n        /* \"#utility.yul\":3659:3671   */\n      revert\n        /* \"#utility.yul\":3683:3863   */\n    tag_114:\n        /* \"#utility.yul\":3731:3808   */\n      0x4e487b7100000000000000000000000000000000000000000000000000000000\n        /* \"#utility.yul\":3728:3729   */\n      0x00\n        /* \"#utility.yul\":3721:3809   */\n      mstore\n        /* \"#utility.yul\":3828:3832   */\n      0x41\n        /* \"#utility.yul\":3825:3826   */\n      0x04\n        /* \"#utility.yul\":3818:3833   */\n      mstore\n        /* \"#utility.yul\":3852:3856   */\n      0x24\n        /* \"#utility.yul\":3849:3850   */\n      0x00\n        /* \"#utility.yul\":3842:3857   */\n      revert\n        /* \"#utility.yul\":3869:4150   */\n    tag_115:\n        /* \"#utility.yul\":3952:3979   */\n      tag_194\n        /* \"#utility.yul\":3974:3978   */\n      dup3\n        /* \"#utility.yul\":3952:3979   */\n      tag_109\n      jump\t// in\n    tag_194:\n        /* \"#utility.yul\":3944:3950   */\n      dup2\n        /* \"#utility.yul\":3940:3980   */\n      add\n        /* \"#utility.yul\":4082:4088   */\n      dup2\n        /* \"#utility.yul\":4070:4080   */\n      dup2\n        /* \"#utility.yul\":4067:4089   */\n      lt\n        /* \"#utility.yul\":4046:4064   */\n      0xffffffffffffffff\n        /* \"#utility.yul\":4034:4044   */\n      dup3\n        /* \"#utility.yul\":4031:4065   */\n      gt\n        /* \"#utility.yul\":4028:4090   */\n      or\n        /* \"#utility.yul\":4025:4113   */\n      iszero\n      tag_195\n      jumpi\n        /* \"#utility.yul\":4093:4111   */\n      tag_196\n      tag_114\n      jump\t// in\n    tag_196:\n        /* \"#utility.yul\":4025:4113   */\n    tag_195:\n        /* \"#utility.yul\":4133:4143   */\n      dup1\n        /* \"#utility.yul\":4129:4131   */\n      0x40\n        /* \"#utility.yul\":4122:4144   */\n      mstore\n        /* \"#utility.yul\":3912:4150   */\n      pop\n        /* \"#utility.yul\":3869:4150   */\n      pop\n      pop\n      jump\t// out\n        /* \"#utility.yul\":4156:4285   */\n    tag_116:\n        /* \"#utility.yul\":4190:4196   */\n      0x00\n        /* \"#utility.yul\":4217:4237   */\n      tag_198\n      tag_99\n      jump\t// in\n    tag_198:\n        /* \"#utility.yul\":4207:4237   */\n      swap1\n      pop\n        /* \"#utility.yul\":4246:4279   */\n      tag_199\n        /* \"#utility.yul\":4274:4278   */\n      dup3\n        /* \"#utility.yul\":4266:4272   */\n      dup3\n        /* \"#utility.yul\":4246:4279   */\n      tag_115\n      jump\t// in\n    tag_199:\n        /* \"#utility.yul\":4156:4285   */\n      swap2\n      swap1\n      pop\n      jump\t// out\n        /* \"#utility.yul\":4291:4599   */\n    tag_117:\n        /* \"#utility.yul\":4353:4357   */\n      0x00\n        /* \"#utility.yul\":4443:4461   */\n      0xffffffffffffffff\n        /* \"#utility.yul\":4435:4441   */\n      dup3\n        /* \"#utility.yul\":4432:4462   */\n      gt\n        /* \"#utility.yul\":4429:4485   */\n      iszero\n      tag_201\n      jumpi\n        /* \"#utility.yul\":4465:4483   */\n      tag_202\n      tag_114\n      jump\t// in\n    tag_202:\n        /* \"#utility.yul\":4429:4485   */\n    tag_201:\n        /* \"#utility.yul\":4503:4532   */\n      tag_203\n        /* \"#utility.yul\":4525:4531   */\n      dup3\n        /* \"#utility.yul\":4503:4532   */\n      tag_109\n      jump\t// in\n    tag_203:\n        /* \"#utility.yul\":4495:4532   */\n      swap1\n      pop\n        /* \"#utility.yul\":4587:4591   */\n      0x20\n        /* \"#utility.yul\":4581:4585   */\n      dup2\n        /* \"#utility.yul\":4577:4592   */\n      add\n        /* \"#utility.yul\":4569:4592   */\n      swap1\n      pop\n        /* \"#utility.yul\":4291:4599   */\n      swap2\n      swap1\n      pop\n      jump\t// out\n        /* \"#utility.yul\":4605:4753   */\n    tag_118:\n        /* \"#utility.yul\":4703:4709   */\n      dup3\n        /* \"#utility.yul\":4698:4701   */\n      dup2\n        /* \"#utility.yul\":4693:4696   */\n      dup4\n        /* \"#utility.yul\":4680:4710   */\n      calldatacopy\n        /* \"#utility.yul\":4744:4745   */\n      0x00\n        /* \"#utility.yul\":4735:4741   */\n      dup4\n        /* \"#utility.yul\":4730:4733   */\n      dup4\n        /* \"#utility.yul\":4726:4742   */\n      add\n        /* \"#utility.yul\":4719:4746   */\n      mstore\n        /* \"#utility.yul\":4605:4753   */\n      pop\n      pop\n      pop\n      jump\t// out\n        /* \"#utility.yul\":4759:5184   */\n    tag_119:\n        /* \"#utility.yul\":4837:4842   */\n      0x00\n        /* \"#utility.yul\":4862:4928   */\n      tag_206\n        /* \"#utility.yul\":4878:4927   */\n      tag_207\n        /* \"#utility.yul\":4920:4926   */\n      dup5\n        /* \"#utility.yul\":4878:4927   */\n      tag_117\n      jump\t// in\n    tag_207:\n        /* \"#utility.yul\":4862:4928   */\n      tag_116\n      jump\t// in\n    tag_206:\n        /* \"#utility.yul\":4853:4928   */\n      swap1\n      pop\n        /* \"#utility.yul\":4951:4957   */\n      dup3\n        /* \"#utility.yul\":4944:4949   */\n      dup2\n        /* \"#utility.yul\":4937:4958   */\n      mstore\n        /* \"#utility.yul\":4989:4993   */\n      0x20\n        /* \"#utility.yul\":4982:4987   */\n      dup2\n        /* \"#utility.yul\":4978:4994   */\n      add\n        /* \"#utility.yul\":5027:5030   */\n      dup5\n        /* \"#utility.yul\":5018:5024   */\n      dup5\n        /* \"#utility.yul\":5013:5016   */\n      dup5\n        /* \"#utility.yul\":5009:5025   */\n      add\n        /* \"#utility.yul\":5006:5031   */\n      gt\n        /* \"#utility.yul\":5003:5115   */\n      iszero\n      tag_208\n      jumpi\n        /* \"#utility.yul\":5034:5113   */\n      tag_209\n      tag_113\n      jump\t// in\n    tag_209:\n        /* \"#utility.yul\":5003:5115   */\n    tag_208:\n        /* \"#utility.yul\":5124:5178   */\n      tag_210\n        /* \"#utility.yul\":5171:5177   */\n      dup5\n        /* \"#utility.yul\":5166:5169   */\n      dup3\n        /* \"#utility.yul\":5161:5164   */\n      dup6\n        /* \"#utility.yul\":5124:5178   */\n      tag_118\n      jump\t// in\n    tag_210:\n        /* \"#utility.yul\":4843:5184   */\n      pop\n        /* \"#utility.yul\":4759:5184   */\n      swap4\n      swap3\n      pop\n      pop\n      pop\n      jump\t// out\n        /* \"#utility.yul\":5204:5544   */\n    tag_120:\n        /* \"#utility.yul\":5260:5265   */\n      0x00\n        /* \"#utility.yul\":5309:5312   */\n      dup3\n        /* \"#utility.yul\":5302:5306   */\n      0x1f\n        /* \"#utility.yul\":5294:5300   */\n      dup4\n        /* \"#utility.yul\":5290:5307   */\n      add\n        /* \"#utility.yul\":5286:5313   */\n      slt\n        /* \"#utility.yul\":5276:5398   */\n      tag_212\n      jumpi\n        /* \"#utility.yul\":5317:5396   */\n      tag_213\n      tag_112\n      jump\t// in\n    tag_213:\n        /* \"#utility.yul\":5276:5398   */\n    tag_212:\n        /* \"#utility.yul\":5434:5440   */\n      dup2\n        /* \"#utility.yul\":5421:5441   */\n      calldataload\n        /* \"#utility.yul\":5459:5538   */\n      tag_214\n        /* \"#utility.yul\":5534:5537   */\n      dup5\n        /* \"#utility.yul\":5526:5532   */\n      dup3\n        /* \"#utility.yul\":5519:5523   */\n      0x20\n        /* \"#utility.yul\":5511:5517   */\n      dup7\n        /* \"#utility.yul\":5507:5524   */\n      add\n        /* \"#utility.yul\":5459:5538   */\n      tag_119\n      jump\t// in\n    tag_214:\n        /* \"#utility.yul\":5450:5538   */\n      swap2\n      pop\n        /* \"#utility.yul\":5266:5544   */\n      pop\n        /* \"#utility.yul\":5204:5544   */\n      swap3\n      swap2\n      pop\n      pop\n      jump\t// out\n        /* \"#utility.yul\":5550:6709   */\n    tag_17:\n        /* \"#utility.yul\":5657:5663   */\n      0x00\n        /* \"#utility.yul\":5665:5671   */\n      0x00\n        /* \"#utility.yul\":5673:5679   */\n      0x00\n        /* \"#utility.yul\":5722:5724   */\n      0x60\n        /* \"#utility.yul\":5710:5719   */\n      dup5\n        /* \"#utility.yul\":5701:5708   */\n      dup7\n        /* \"#utility.yul\":5697:5720   */\n      sub\n        /* \"#utility.yul\":5693:5725   */\n      slt\n        /* \"#utility.yul\":5690:5809   */\n      iszero\n      tag_216\n      jumpi\n        /* \"#utility.yul\":5728:5807   */\n      tag_217\n      tag_100\n      jump\t// in\n    tag_217:\n        /* \"#utility.yul\":5690:5809   */\n    tag_216:\n        /* \"#utility.yul\":5876:5877   */\n      0x00\n        /* \"#utility.yul\":5865:5874   */\n      dup5\n        /* \"#utility.yul\":5861:5878   */\n      add\n        /* \"#utility.yul\":5848:5879   */\n      calldataload\n        /* \"#utility.yul\":5906:5924   */\n      0xffffffffffffffff\n        /* \"#utility.yul\":5898:5904   */\n      dup2\n        /* \"#utility.yul\":5895:5925   */\n      gt\n        /* \"#utility.yul\":5892:6009   */\n      iszero\n      tag_218\n      jumpi\n        /* \"#utility.yul\":5928:6007   */\n      tag_219\n      tag_101\n      jump\t// in\n    tag_219:\n        /* \"#utility.yul\":5892:6009   */\n    tag_218:\n        /* \"#utility.yul\":6033:6096   */\n      tag_220\n        /* \"#utility.yul\":6088:6095   */\n      dup7\n        /* \"#utility.yul\":6079:6085   */\n      dup3\n        /* \"#utility.yul\":6068:6077   */\n      dup8\n        /* \"#utility.yul\":6064:6086   */\n      add\n        /* \"#utility.yul\":6033:6096   */\n      tag_120\n      jump\t// in\n    tag_220:\n        /* \"#utility.yul\":6023:6096   */\n      swap4\n      pop\n        /* \"#utility.yul\":5819:6106   */\n      pop\n        /* \"#utility.yul\":6173:6175   */\n      0x20\n        /* \"#utility.yul\":6162:6171   */\n      dup5\n        /* \"#utility.yul\":6158:6176   */\n      add\n        /* \"#utility.yul\":6145:6177   */\n      calldataload\n        /* \"#utility.yul\":6204:6222   */\n      0xffffffffffffffff\n        /* \"#utility.yul\":6196:6202   */\n      dup2\n        /* \"#utility.yul\":6193:6223   */\n      gt\n        /* \"#utility.yul\":6190:6307   */\n      iszero\n      tag_221\n      jumpi\n        /* \"#utility.yul\":6226:6305   */\n      tag_222\n      tag_101\n      jump\t// in\n    tag_222:\n        /* \"#utility.yul\":6190:6307   */\n    tag_221:\n        /* \"#utility.yul\":6331:6394   */\n      tag_223\n        /* \"#utility.yul\":6386:6393   */\n      dup7\n        /* \"#utility.yul\":6377:6383   */\n      dup3\n        /* \"#utility.yul\":6366:6375   */\n      dup8\n        /* \"#utility.yul\":6362:6384   */\n      add\n        /* \"#utility.yul\":6331:6394   */\n      tag_120\n      jump\t// in\n    tag_223:\n        /* \"#utility.yul\":6321:6394   */\n      swap3\n      pop\n        /* \"#utility.yul\":6116:6404   */\n      pop\n        /* \"#utility.yul\":6471:6473   */\n      0x40\n        /* \"#utility.yul\":6460:6469   */\n      dup5\n        /* \"#utility.yul\":6456:6474   */\n      add\n        /* \"#utility.yul\":6443:6475   */\n      calldataload\n        /* \"#utility.yul\":6502:6520   */\n      0xffffffffffffffff\n        /* \"#utility.yul\":6494:6500   */\n      dup2\n        /* \"#utility.yul\":6491:6521   */\n      gt\n        /* \"#utility.yul\":6488:6605   */\n      iszero\n      tag_224\n      jumpi\n        /* \"#utility.yul\":6524:6603   */\n      tag_225\n      tag_101\n      jump\t// in\n    tag_225:\n        /* \"#utility.yul\":6488:6605   */\n    tag_224:\n        /* \"#utility.yul\":6629:6692   */\n      tag_226\n        /* \"#utility.yul\":6684:6691   */\n      dup7\n        /* \"#utility.yul\":6675:6681   */\n      dup3\n        /* \"#utility.yul\":6664:6673   */\n      dup8\n        /* \"#utility.yul\":6660:6682   */\n      add\n        /* \"#utility.yul\":6629:6692   */\n      tag_120\n      jump\t// in\n    tag_226:\n        /* \"#utility.yul\":6619:6692   */\n      swap2\n      pop\n        /* \"#utility.yul\":6414:6702   */\n      pop\n        /* \"#utility.yul\":5550:6709   */\n      swap3\n      pop\n      swap3\n      pop\n      swap3\n      jump\t// out\n        /* \"#utility.yul\":6715:6829   */\n    tag_121:\n        /* \"#utility.yul\":6782:6788   */\n      0x00\n        /* \"#utility.yul\":6816:6821   */\n      dup2\n        /* \"#utility.yul\":6810:6822   */\n      mload\n        /* \"#utility.yul\":6800:6822   */\n      swap1\n      pop\n        /* \"#utility.yul\":6715:6829   */\n      swap2\n      swap1\n      pop\n      jump\t// out\n        /* \"#utility.yul\":6835:7019   */\n    tag_122:\n        /* \"#utility.yul\":6934:6945   */\n      0x00\n        /* \"#utility.yul\":6968:6974   */\n      dup3\n        /* \"#utility.yul\":6963:6966   */\n      dup3\n        /* \"#utility.yul\":6956:6975   */\n      mstore\n        /* \"#utility.yul\":7008:7012   */\n      0x20\n        /* \"#utility.yul\":7003:7006   */\n      dup3\n        /* \"#utility.yul\":6999:7013   */\n      add\n        /* \"#utility.yul\":6984:7013   */\n      swap1\n      pop\n        /* \"#utility.yul\":6835:7019   */\n      swap3\n      swap2\n      pop\n      pop\n      jump\t// out\n        /* \"#utility.yul\":7025:7157   */\n    tag_123:\n        /* \"#utility.yul\":7092:7096   */\n      0x00\n        /* \"#utility.yul\":7115:7118   */\n      dup2\n        /* \"#utility.yul\":7107:7118   */\n      swap1\n      pop\n        /* \"#utility.yul\":7145:7149   */\n      0x20\n        /* \"#utility.yul\":7140:7143   */\n      dup3\n        /* \"#utility.yul\":7136:7150   */\n      add\n        /* \"#utility.yul\":7128:7150   */\n      swap1\n      pop\n        /* \"#utility.yul\":7025:7157   */\n      swap2\n      swap1\n      pop\n      jump\t// out\n        /* \"#utility.yul\":7163:7271   */\n    tag_124:\n        /* \"#utility.yul\":7240:7264   */\n      tag_231\n        /* \"#utility.yul\":7258:7263   */\n      dup2\n        /* \"#utility.yul\":7240:7264   */\n      tag_103\n      jump\t// in\n    tag_231:\n        /* \"#utility.yul\":7235:7238   */\n      dup3\n        /* \"#utility.yul\":7228:7265   */\n      mstore\n        /* \"#utility.yul\":7163:7271   */\n      pop\n      pop\n      jump\t// out\n        /* \"#utility.yul\":7277:7456   */\n    tag_125:\n        /* \"#utility.yul\":7346:7356   */\n      0x00\n        /* \"#utility.yul\":7367:7413   */\n      tag_233\n        /* \"#utility.yul\":7409:7412   */\n      dup4\n        /* \"#utility.yul\":7401:7407   */\n      dup4\n        /* \"#utility.yul\":7367:7413   */\n      tag_124\n      jump\t// in\n    tag_233:\n        /* \"#utility.yul\":7445:7449   */\n      0x20\n        /* \"#utility.yul\":7440:7443   */\n      dup4\n        /* \"#utility.yul\":7436:7450   */\n      add\n        /* \"#utility.yul\":7422:7450   */\n      swap1\n      pop\n        /* \"#utility.yul\":7277:7456   */\n      swap3\n      swap2\n      pop\n      pop\n      jump\t// out\n        /* \"#utility.yul\":7462:7575   */\n    tag_126:\n        /* \"#utility.yul\":7532:7536   */\n      0x00\n        /* \"#utility.yul\":7564:7568   */\n      0x20\n        /* \"#utility.yul\":7559:7562   */\n      dup3\n        /* \"#utility.yul\":7555:7569   */\n      add\n        /* \"#utility.yul\":7547:7569   */\n      swap1\n      pop\n        /* \"#utility.yul\":7462:7575   */\n      swap2\n      swap1\n      pop\n      jump\t// out\n        /* \"#utility.yul\":7611:8343   */\n    tag_127:\n        /* \"#utility.yul\":7730:7733   */\n      0x00\n        /* \"#utility.yul\":7759:7813   */\n      tag_236\n        /* \"#utility.yul\":7807:7812   */\n      dup3\n        /* \"#utility.yul\":7759:7813   */\n      tag_121\n      jump\t// in\n    tag_236:\n        /* \"#utility.yul\":7829:7915   */\n      tag_237\n        /* \"#utility.yul\":7908:7914   */\n      dup2\n        /* \"#utility.yul\":7903:7906   */\n      dup6\n        /* \"#utility.yul\":7829:7915   */\n      tag_122\n      jump\t// in\n    tag_237:\n        /* \"#utility.yul\":7822:7915   */\n      swap4\n      pop\n        /* \"#utility.yul\":7939:7995   */\n      tag_238\n        /* \"#utility.yul\":7989:7994   */\n      dup4\n        /* \"#utility.yul\":7939:7995   */\n      tag_123\n      jump\t// in\n    tag_238:\n        /* \"#utility.yul\":8018:8025   */\n      dup1\n        /* \"#utility.yul\":8049:8050   */\n      0x00\n        /* \"#utility.yul\":8034:8318   */\n    tag_239:\n        /* \"#utility.yul\":8059:8065   */\n      dup4\n        /* \"#utility.yul\":8056:8057   */\n      dup2\n        /* \"#utility.yul\":8053:8066   */\n      lt\n        /* \"#utility.yul\":8034:8318   */\n      iszero\n      tag_241\n      jumpi\n        /* \"#utility.yul\":8135:8141   */\n      dup2\n        /* \"#utility.yul\":8129:8142   */\n      mload\n        /* \"#utility.yul\":8162:8225   */\n      tag_242\n        /* \"#utility.yul\":8221:8224   */\n      dup9\n        /* \"#utility.yul\":8206:8219   */\n      dup3\n        /* \"#utility.yul\":8162:8225   */\n      tag_125\n      jump\t// in\n    tag_242:\n        /* \"#utility.yul\":8155:8225   */\n      swap8\n      pop\n        /* \"#utility.yul\":8248:8308   */\n      tag_243\n        /* \"#utility.yul\":8301:8307   */\n      dup4\n        /* \"#utility.yul\":8248:8308   */\n      tag_126\n      jump\t// in\n    tag_243:\n        /* \"#utility.yul\":8238:8308   */\n      swap3\n      pop\n        /* \"#utility.yul\":8094:8318   */\n      pop\n        /* \"#utility.yul\":8081:8082   */\n      0x01\n        /* \"#utility.yul\":8078:8079   */\n      dup2\n        /* \"#utility.yul\":8074:8083   */\n      add\n        /* \"#utility.yul\":8069:8083   */\n      swap1\n      pop\n        /* \"#utility.yul\":8034:8318   */\n      jump(tag_239)\n    tag_241:\n        /* \"#utility.yul\":8038:8052   */\n      pop\n        /* \"#utility.yul\":8334:8337   */\n      dup6\n        /* \"#utility.yul\":8327:8337   */\n      swap4\n      pop\n        /* \"#utility.yul\":7735:8343   */\n      pop\n      pop\n      pop\n        /* \"#utility.yul\":7611:8343   */\n      swap3\n      swap2\n      pop\n      pop\n      jump\t// out\n        /* \"#utility.yul\":8349:8722   */\n    tag_22:\n        /* \"#utility.yul\":8492:8496   */\n      0x00\n        /* \"#utility.yul\":8530:8532   */\n      0x20\n        /* \"#utility.yul\":8519:8528   */\n      dup3\n        /* \"#utility.yul\":8515:8533   */\n      add\n        /* \"#utility.yul\":8507:8533   */\n      swap1\n      pop\n        /* \"#utility.yul\":8579:8588   */\n      dup2\n        /* \"#utility.yul\":8573:8577   */\n      dup2\n        /* \"#utility.yul\":8569:8589   */\n      sub\n        /* \"#utility.yul\":8565:8566   */\n      0x00\n        /* \"#utility.yul\":8554:8563   */\n      dup4\n        /* \"#utility.yul\":8550:8567   */\n      add\n        /* \"#utility.yul\":8543:8590   */\n      mstore\n        /* \"#utility.yul\":8607:8715   */\n      tag_245\n        /* \"#utility.yul\":8710:8714   */\n      dup2\n        /* \"#utility.yul\":8701:8707   */\n      dup5\n        /* \"#utility.yul\":8607:8715   */\n      tag_127\n      jump\t// in\n    tag_245:\n        /* \"#utility.yul\":8599:8715   */\n      swap1\n      pop\n        /* \"#utility.yul\":8349:8722   */\n      swap3\n      swap2\n      pop\n      pop\n      jump\t// out\n        /* \"#utility.yul\":8728:9237   */\n    tag_28:\n        /* \"#utility.yul\":8797:8803   */\n      0x00\n        /* \"#utility.yul\":8846:8848   */\n      0x20\n        /* \"#utility.yul\":8834:8843   */\n      dup3\n        /* \"#utility.yul\":8825:8832   */\n      dup5\n        /* \"#utility.yul\":8821:8844   */\n      sub\n        /* \"#utility.yul\":8817:8849   */\n      slt\n        /* \"#utility.yul\":8814:8933   */\n      iszero\n      tag_247\n      jumpi\n        /* \"#utility.yul\":8852:8931   */\n      tag_248\n      tag_100\n      jump\t// in\n    tag_248:\n        /* \"#utility.yul\":8814:8933   */\n    tag_247:\n        /* \"#utility.yul\":9000:9001   */\n      0x00\n        /* \"#utility.yul\":8989:8998   */\n      dup3\n        /* \"#utility.yul\":8985:9002   */\n      add\n        /* \"#utility.yul\":8972:9003   */\n      calldataload\n        /* \"#utility.yul\":9030:9048   */\n      0xffffffffffffffff\n        /* \"#utility.yul\":9022:9028   */\n      dup2\n        /* \"#utility.yul\":9019:9049   */\n      gt\n        /* \"#utility.yul\":9016:9133   */\n      iszero\n      tag_249\n      jumpi\n        /* \"#utility.yul\":9052:9131   */\n      tag_250\n      tag_101\n      jump\t// in\n    tag_250:\n        /* \"#utility.yul\":9016:9133   */\n    tag_249:\n        /* \"#utility.yul\":9157:9220   */\n      tag_251\n        /* \"#utility.yul\":9212:9219   */\n      dup5\n        /* \"#utility.yul\":9203:9209   */\n      dup3\n        /* \"#utility.yul\":9192:9201   */\n      dup6\n        /* \"#utility.yul\":9188:9210   */\n      add\n        /* \"#utility.yul\":9157:9220   */\n      tag_120\n      jump\t// in\n    tag_251:\n        /* \"#utility.yul\":9147:9220   */\n      swap2\n      pop\n        /* \"#utility.yul\":8943:9230   */\n      pop\n        /* \"#utility.yul\":8728:9237   */\n      swap3\n      swap2\n      pop\n      pop\n      jump\t// out\n        /* \"#utility.yul\":9243:9333   */\n    tag_128:\n        /* \"#utility.yul\":9277:9284   */\n      0x00\n        /* \"#utility.yul\":9320:9325   */\n      dup2\n        /* \"#utility.yul\":9313:9326   */\n      iszero\n        /* \"#utility.yul\":9306:9327   */\n      iszero\n        /* \"#utility.yul\":9295:9327   */\n      swap1\n      pop\n        /* \"#utility.yul\":9243:9333   */\n      swap2\n      swap1\n      pop\n      jump\t// out\n        /* \"#utility.yul\":9339:9448   */\n    tag_129:\n        /* \"#utility.yul\":9420:9441   */\n      tag_254\n        /* \"#utility.yul\":9435:9440   */\n      dup2\n        /* \"#utility.yul\":9420:9441   */\n      tag_128\n      jump\t// in\n    tag_254:\n        /* \"#utility.yul\":9415:9418   */\n      dup3\n        /* \"#utility.yul\":9408:9442   */\n      mstore\n        /* \"#utility.yul\":9339:9448   */\n      pop\n      pop\n      jump\t// out\n        /* \"#utility.yul\":9454:9664   */\n    tag_31:\n        /* \"#utility.yul\":9541:9545   */\n      0x00\n        /* \"#utility.yul\":9579:9581   */\n      0x20\n        /* \"#utility.yul\":9568:9577   */\n      dup3\n        /* \"#utility.yul\":9564:9582   */\n      add\n        /* \"#utility.yul\":9556:9582   */\n      swap1\n      pop\n        /* \"#utility.yul\":9592:9657   */\n      tag_256\n        /* \"#utility.yul\":9654:9655   */\n      0x00\n        /* \"#utility.yul\":9643:9652   */\n      dup4\n        /* \"#utility.yul\":9639:9656   */\n      add\n        /* \"#utility.yul\":9630:9636   */\n      dup5\n        /* \"#utility.yul\":9592:9657   */\n      tag_129\n      jump\t// in\n    tag_256:\n        /* \"#utility.yul\":9454:9664   */\n      swap3\n      swap2\n      pop\n      pop\n      jump\t// out\n        /* \"#utility.yul\":9670:9850   */\n    tag_130:\n        /* \"#utility.yul\":9718:9795   */\n      0x4e487b7100000000000000000000000000000000000000000000000000000000\n        /* \"#utility.yul\":9715:9716   */\n      0x00\n        /* \"#utility.yul\":9708:9796   */\n      mstore\n        /* \"#utility.yul\":9815:9819   */\n      0x22\n        /* \"#utility.yul\":9812:9813   */\n      0x04\n        /* \"#utility.yul\":9805:9820   */\n      mstore\n        /* \"#utility.yul\":9839:9843   */\n      0x24\n        /* \"#utility.yul\":9836:9837   */\n      0x00\n        /* \"#utility.yul\":9829:9844   */\n      revert\n        /* \"#utility.yul\":9856:10176   */\n    tag_40:\n        /* \"#utility.yul\":9900:9906   */\n      0x00\n        /* \"#utility.yul\":9937:9938   */\n      0x02\n        /* \"#utility.yul\":9931:9935   */\n      dup3\n        /* \"#utility.yul\":9927:9939   */\n      div\n        /* \"#utility.yul\":9917:9939   */\n      swap1\n      pop\n        /* \"#utility.yul\":9984:9985   */\n      0x01\n        /* \"#utility.yul\":9978:9982   */\n      dup3\n        /* \"#utility.yul\":9974:9986   */\n      and\n        /* \"#utility.yul\":10005:10023   */\n      dup1\n        /* \"#utility.yul\":9995:10076   */\n      tag_259\n      jumpi\n        /* \"#utility.yul\":10061:10065   */\n      0x7f\n        /* \"#utility.yul\":10053:10059   */\n      dup3\n        /* \"#utility.yul\":10049:10066   */\n      and\n        /* \"#utility.yul\":10039:10066   */\n      swap2\n      pop\n        /* \"#utility.yul\":9995:10076   */\n    tag_259:\n        /* \"#utility.yul\":10123:10125   */\n      0x20\n        /* \"#utility.yul\":10115:10121   */\n      dup3\n        /* \"#utility.yul\":10112:10126   */\n      lt\n        /* \"#utility.yul\":10092:10110   */\n      dup2\n        /* \"#utility.yul\":10089:10127   */\n      sub\n        /* \"#utility.yul\":10086:10170   */\n      tag_260\n      jumpi\n        /* \"#utility.yul\":10142:10160   */\n      tag_261\n      tag_130\n      jump\t// in\n    tag_261:\n        /* \"#utility.yul\":10086:10170   */\n    tag_260:\n        /* \"#utility.yul\":9907:10176   */\n      pop\n        /* \"#utility.yul\":9856:10176   */\n      swap2\n      swap1\n      pop\n      jump\t// out\n        /* \"#utility.yul\":10182:10351   */\n    tag_131:\n        /* \"#utility.yul\":10266:10277   */\n      0x00\n        /* \"#utility.yul\":10300:10306   */\n      dup3\n        /* \"#utility.yul\":10295:10298   */\n      dup3\n        /* \"#utility.yul\":10288:10307   */\n      mstore\n        /* \"#utility.yul\":10340:10344   */\n      0x20\n        /* \"#utility.yul\":10335:10338   */\n      dup3\n        /* \"#utility.yul\":10331:10345   */\n      add\n        /* \"#utility.yul\":10316:10345   */\n      swap1\n      pop\n        /* \"#utility.yul\":10182:10351   */\n      swap3\n      swap2\n      pop\n      pop\n      jump\t// out\n        /* \"#utility.yul\":10357:10527   */\n    tag_132:\n        /* \"#utility.yul\":10497:10519   */\n      0x557365726e616d65206973207265717569726564000000000000000000000000\n        /* \"#utility.yul\":10493:10494   */\n      0x00\n        /* \"#utility.yul\":10485:10491   */\n      dup3\n        /* \"#utility.yul\":10481:10495   */\n      add\n        /* \"#utility.yul\":10474:10520   */\n      mstore\n        /* \"#utility.yul\":10357:10527   */\n      pop\n      jump\t// out\n        /* \"#utility.yul\":10533:10899   */\n    tag_133:\n        /* \"#utility.yul\":10675:10678   */\n      0x00\n        /* \"#utility.yul\":10696:10763   */\n      tag_265\n        /* \"#utility.yul\":10760:10762   */\n      0x14\n        /* \"#utility.yul\":10755:10758   */\n      dup4\n        /* \"#utility.yul\":10696:10763   */\n      tag_131\n      jump\t// in\n    tag_265:\n        /* \"#utility.yul\":10689:10763   */\n      swap2\n      pop\n        /* \"#utility.yul\":10772:10865   */\n      tag_266\n        /* \"#utility.yul\":10861:10864   */\n      dup3\n        /* \"#utility.yul\":10772:10865   */\n      tag_132\n      jump\t// in\n    tag_266:\n        /* \"#utility.yul\":10890:10892   */\n      0x20\n        /* \"#utility.yul\":10885:10888   */\n      dup3\n        /* \"#utility.yul\":10881:10893   */\n      add\n        /* \"#utility.yul\":10874:10893   */\n      swap1\n      pop\n        /* \"#utility.yul\":10533:10899   */\n      swap2\n      swap1\n      pop\n      jump\t// out\n        /* \"#utility.yul\":10905:11324   */\n    tag_58:\n        /* \"#utility.yul\":11071:11075   */\n      0x00\n        /* \"#utility.yul\":11109:11111   */\n      0x20\n        /* \"#utility.yul\":11098:11107   */\n      dup3\n        /* \"#utility.yul\":11094:11112   */\n      add\n        /* \"#utility.yul\":11086:11112   */\n      swap1\n      pop\n        /* \"#utility.yul\":11158:11167   */\n      dup2\n        /* \"#utility.yul\":11152:11156   */\n      dup2\n        /* \"#utility.yul\":11148:11168   */\n      sub\n        /* \"#utility.yul\":11144:11145   */\n      0x00\n        /* \"#utility.yul\":11133:11142   */\n      dup4\n        /* \"#utility.yul\":11129:11146   */\n      add\n        /* \"#utility.yul\":11122:11169   */\n      mstore\n        /* \"#utility.yul\":11186:11317   */\n      tag_268\n        /* \"#utility.yul\":11312:11316   */\n      dup2\n        /* \"#utility.yul\":11186:11317   */\n      tag_133\n      jump\t// in\n    tag_268:\n        /* \"#utility.yul\":11178:11317   */\n      swap1\n      pop\n        /* \"#utility.yul\":10905:11324   */\n      swap2\n      swap1\n      pop\n      jump\t// out\n        /* \"#utility.yul\":11330:11478   */\n    tag_134:\n        /* \"#utility.yul\":11432:11443   */\n      0x00\n        /* \"#utility.yul\":11469:11472   */\n      dup2\n        /* \"#utility.yul\":11454:11472   */\n      swap1\n      pop\n        /* \"#utility.yul\":11330:11478   */\n      swap3\n      swap2\n      pop\n      pop\n      jump\t// out\n        /* \"#utility.yul\":11484:11874   */\n    tag_135:\n        /* \"#utility.yul\":11590:11593   */\n      0x00\n        /* \"#utility.yul\":11618:11657   */\n      tag_271\n        /* \"#utility.yul\":11651:11656   */\n      dup3\n        /* \"#utility.yul\":11618:11657   */\n      tag_106\n      jump\t// in\n    tag_271:\n        /* \"#utility.yul\":11673:11762   */\n      tag_272\n        /* \"#utility.yul\":11755:11761   */\n      dup2\n        /* \"#utility.yul\":11750:11753   */\n      dup6\n        /* \"#utility.yul\":11673:11762   */\n      tag_134\n      jump\t// in\n    tag_272:\n        /* \"#utility.yul\":11666:11762   */\n      swap4\n      pop\n        /* \"#utility.yul\":11771:11836   */\n      tag_273\n        /* \"#utility.yul\":11829:11835   */\n      dup2\n        /* \"#utility.yul\":11824:11827   */\n      dup6\n        /* \"#utility.yul\":11817:11821   */\n      0x20\n        /* \"#utility.yul\":11810:11815   */\n      dup7\n        /* \"#utility.yul\":11806:11822   */\n      add\n        /* \"#utility.yul\":11771:11836   */\n      tag_108\n      jump\t// in\n    tag_273:\n        /* \"#utility.yul\":11861:11867   */\n      dup1\n        /* \"#utility.yul\":11856:11859   */\n      dup5\n        /* \"#utility.yul\":11852:11868   */\n      add\n        /* \"#utility.yul\":11845:11868   */\n      swap2\n      pop\n        /* \"#utility.yul\":11594:11874   */\n      pop\n        /* \"#utility.yul\":11484:11874   */\n      swap3\n      swap2\n      pop\n      pop\n      jump\t// out\n        /* \"#utility.yul\":11880:12155   */\n    tag_60:\n        /* \"#utility.yul\":12012:12015   */\n      0x00\n        /* \"#utility.yul\":12034:12129   */\n      tag_275\n        /* \"#utility.yul\":12125:12128   */\n      dup3\n        /* \"#utility.yul\":12116:12122   */\n      dup5\n        /* \"#utility.yul\":12034:12129   */\n      tag_135\n      jump\t// in\n    tag_275:\n        /* \"#utility.yul\":12027:12129   */\n      swap2\n      pop\n        /* \"#utility.yul\":12146:12149   */\n      dup2\n        /* \"#utility.yul\":12139:12149   */\n      swap1\n      pop\n        /* \"#utility.yul\":11880:12155   */\n      swap3\n      swap2\n      pop\n      pop\n      jump\t// out\n        /* \"#utility.yul\":12161:12328   */\n    tag_136:\n        /* \"#utility.yul\":12301:12320   */\n      0x557365726e616d652069732074616b656e000000000000000000000000000000\n        /* \"#utility.yul\":12297:12298   */\n      0x00\n        /* \"#utility.yul\":12289:12295   */\n      dup3\n        /* \"#utility.yul\":12285:12299   */\n      add\n        /* \"#utility.yul\":12278:12321   */\n      mstore\n        /* \"#utility.yul\":12161:12328   */\n      pop\n      jump\t// out\n        /* \"#utility.yul\":12334:12700   */\n    tag_137:\n        /* \"#utility.yul\":12476:12479   */\n      0x00\n        /* \"#utility.yul\":12497:12564   */\n      tag_278\n        /* \"#utility.yul\":12561:12563   */\n      0x11\n        /* \"#utility.yul\":12556:12559   */\n      dup4\n        /* \"#utility.yul\":12497:12564   */\n      tag_131\n      jump\t// in\n    tag_278:\n        /* \"#utility.yul\":12490:12564   */\n      swap2\n      pop\n        /* \"#utility.yul\":12573:12666   */\n      tag_279\n        /* \"#utility.yul\":12662:12665   */\n      dup3\n        /* \"#utility.yul\":12573:12666   */\n      tag_136\n      jump\t// in\n    tag_279:\n        /* \"#utility.yul\":12691:12693   */\n      0x20\n        /* \"#utility.yul\":12686:12689   */\n      dup3\n        /* \"#utility.yul\":12682:12694   */\n      add\n        /* \"#utility.yul\":12675:12694   */\n      swap1\n      pop\n        /* \"#utility.yul\":12334:12700   */\n      swap2\n      swap1\n      pop\n      jump\t// out\n        /* \"#utility.yul\":12706:13125   */\n    tag_63:\n        /* \"#utility.yul\":12872:12876   */\n      0x00\n        /* \"#utility.yul\":12910:12912   */\n      0x20\n        /* \"#utility.yul\":12899:12908   */\n      dup3\n        /* \"#utility.yul\":12895:12913   */\n      add\n        /* \"#utility.yul\":12887:12913   */\n      swap1\n      pop\n        /* \"#utility.yul\":12959:12968   */\n      dup2\n        /* \"#utility.yul\":12953:12957   */\n      dup2\n        /* \"#utility.yul\":12949:12969   */\n      sub\n        /* \"#utility.yul\":12945:12946   */\n      0x00\n        /* \"#utility.yul\":12934:12943   */\n      dup4\n        /* \"#utility.yul\":12930:12947   */\n      add\n        /* \"#utility.yul\":12923:12970   */\n      mstore\n        /* \"#utility.yul\":12987:13118   */\n      tag_281\n        /* \"#utility.yul\":13113:13117   */\n      dup2\n        /* \"#utility.yul\":12987:13118   */\n      tag_137\n      jump\t// in\n    tag_281:\n        /* \"#utility.yul\":12979:13118   */\n      swap1\n      pop\n        /* \"#utility.yul\":12706:13125   */\n      swap2\n      swap1\n      pop\n      jump\t// out\n        /* \"#utility.yul\":13131:13272   */\n    tag_138:\n        /* \"#utility.yul\":13180:13184   */\n      0x00\n        /* \"#utility.yul\":13203:13206   */\n      dup2\n        /* \"#utility.yul\":13195:13206   */\n      swap1\n      pop\n        /* \"#utility.yul\":13226:13229   */\n      dup2\n        /* \"#utility.yul\":13223:13224   */\n      0x00\n        /* \"#utility.yul\":13216:13230   */\n      mstore\n        /* \"#utility.yul\":13260:13264   */\n      0x20\n        /* \"#utility.yul\":13257:13258   */\n      0x00\n        /* \"#utility.yul\":13247:13265   */\n      keccak256\n        /* \"#utility.yul\":13239:13265   */\n      swap1\n      pop\n        /* \"#utility.yul\":13131:13272   */\n      swap2\n      swap1\n      pop\n      jump\t// out\n        /* \"#utility.yul\":13302:14176   */\n    tag_139:\n        /* \"#utility.yul\":13405:13408   */\n      0x00\n        /* \"#utility.yul\":13442:13447   */\n      dup2\n        /* \"#utility.yul\":13436:13448   */\n      sload\n        /* \"#utility.yul\":13471:13507   */\n      tag_284\n        /* \"#utility.yul\":13497:13506   */\n      dup2\n        /* \"#utility.yul\":13471:13507   */\n      tag_40\n      jump\t// in\n    tag_284:\n        /* \"#utility.yul\":13523:13612   */\n      tag_285\n        /* \"#utility.yul\":13605:13611   */\n      dup2\n        /* \"#utility.yul\":13600:13603   */\n      dup7\n        /* \"#utility.yul\":13523:13612   */\n      tag_134\n      jump\t// in\n    tag_285:\n        /* \"#utility.yul\":13516:13612   */\n      swap5\n      pop\n        /* \"#utility.yul\":13643:13644   */\n      0x01\n        /* \"#utility.yul\":13632:13641   */\n      dup3\n        /* \"#utility.yul\":13628:13645   */\n      and\n        /* \"#utility.yul\":13659:13660   */\n      0x00\n        /* \"#utility.yul\":13654:13820   */\n      dup2\n      eq\n      tag_287\n      jumpi\n        /* \"#utility.yul\":13834:13835   */\n      0x01\n        /* \"#utility.yul\":13829:14170   */\n      dup2\n      eq\n      tag_288\n      jumpi\n        /* \"#utility.yul\":13621:14170   */\n      jump(tag_286)\n        /* \"#utility.yul\":13654:13820   */\n    tag_287:\n        /* \"#utility.yul\":13738:13742   */\n      0xff\n        /* \"#utility.yul\":13734:13743   */\n      not\n        /* \"#utility.yul\":13723:13732   */\n      dup4\n        /* \"#utility.yul\":13719:13744   */\n      and\n        /* \"#utility.yul\":13714:13717   */\n      dup7\n        /* \"#utility.yul\":13707:13745   */\n      mstore\n        /* \"#utility.yul\":13800:13806   */\n      dup2\n        /* \"#utility.yul\":13793:13807   */\n      iszero\n        /* \"#utility.yul\":13786:13808   */\n      iszero\n        /* \"#utility.yul\":13778:13784   */\n      dup3\n        /* \"#utility.yul\":13774:13809   */\n      mul\n        /* \"#utility.yul\":13769:13772   */\n      dup7\n        /* \"#utility.yul\":13765:13810   */\n      add\n        /* \"#utility.yul\":13758:13810   */\n      swap4\n      pop\n        /* \"#utility.yul\":13654:13820   */\n      jump(tag_286)\n        /* \"#utility.yul\":13829:14170   */\n    tag_288:\n        /* \"#utility.yul\":13896:13934   */\n      tag_289\n        /* \"#utility.yul\":13928:13933   */\n      dup6\n        /* \"#utility.yul\":13896:13934   */\n      tag_138\n      jump\t// in\n    tag_289:\n        /* \"#utility.yul\":13956:13957   */\n      0x00\n        /* \"#utility.yul\":13970:14124   */\n    tag_290:\n        /* \"#utility.yul\":13984:13990   */\n      dup4\n        /* \"#utility.yul\":13981:13982   */\n      dup2\n        /* \"#utility.yul\":13978:13991   */\n      lt\n        /* \"#utility.yul\":13970:14124   */\n      iszero\n      tag_292\n      jumpi\n        /* \"#utility.yul\":14058:14065   */\n      dup2\n        /* \"#utility.yul\":14052:14066   */\n      sload\n        /* \"#utility.yul\":14048:14049   */\n      dup2\n        /* \"#utility.yul\":14043:14046   */\n      dup10\n        /* \"#utility.yul\":14039:14050   */\n      add\n        /* \"#utility.yul\":14032:14067   */\n      mstore\n        /* \"#utility.yul\":14108:14109   */\n      0x01\n        /* \"#utility.yul\":14099:14106   */\n      dup3\n        /* \"#utility.yul\":14095:14110   */\n      add\n        /* \"#utility.yul\":14084:14110   */\n      swap2\n      pop\n        /* \"#utility.yul\":14006:14010   */\n      0x20\n        /* \"#utility.yul\":14003:14004   */\n      dup2\n        /* \"#utility.yul\":13999:14011   */\n      add\n        /* \"#utility.yul\":13994:14011   */\n      swap1\n      pop\n        /* \"#utility.yul\":13970:14124   */\n      jump(tag_290)\n    tag_292:\n        /* \"#utility.yul\":14153:14159   */\n      dup4\n        /* \"#utility.yul\":14148:14151   */\n      dup9\n        /* \"#utility.yul\":14144:14160   */\n      add\n        /* \"#utility.yul\":14137:14160   */\n      swap6\n      pop\n        /* \"#utility.yul\":13836:14170   */\n      pop\n      pop\n        /* \"#utility.yul\":13621:14170   */\n    tag_286:\n      pop\n        /* \"#utility.yul\":13409:14176   */\n      pop\n      pop\n        /* \"#utility.yul\":13302:14176   */\n      swap3\n      swap2\n      pop\n      pop\n      jump\t// out\n        /* \"#utility.yul\":14182:14451   */\n    tag_66:\n        /* \"#utility.yul\":14311:14314   */\n      0x00\n        /* \"#utility.yul\":14333:14425   */\n      tag_294\n        /* \"#utility.yul\":14421:14424   */\n      dup3\n        /* \"#utility.yul\":14412:14418   */\n      dup5\n        /* \"#utility.yul\":14333:14425   */\n      tag_139\n      jump\t// in\n    tag_294:\n        /* \"#utility.yul\":14326:14425   */\n      swap2\n      pop\n        /* \"#utility.yul\":14442:14445   */\n      dup2\n        /* \"#utility.yul\":14435:14445   */\n      swap1\n      pop\n        /* \"#utility.yul\":14182:14451   */\n      swap3\n      swap2\n      pop\n      pop\n      jump\t// out\n        /* \"#utility.yul\":14457:14550   */\n    tag_140:\n        /* \"#utility.yul\":14494:14500   */\n      0x00\n        /* \"#utility.yul\":14541:14543   */\n      0x20\n        /* \"#utility.yul\":14536:14538   */\n      0x1f\n        /* \"#utility.yul\":14529:14534   */\n      dup4\n        /* \"#utility.yul\":14525:14539   */\n      add\n        /* \"#utility.yul\":14521:14544   */\n      div\n        /* \"#utility.yul\":14511:14544   */\n      swap1\n      pop\n        /* \"#utility.yul\":14457:14550   */\n      swap2\n      swap1\n      pop\n      jump\t// out\n        /* \"#utility.yul\":14556:14663   */\n    tag_141:\n        /* \"#utility.yul\":14600:14608   */\n      0x00\n        /* \"#utility.yul\":14650:14655   */\n      dup3\n        /* \"#utility.yul\":14644:14648   */\n      dup3\n        /* \"#utility.yul\":14640:14656   */\n      shl\n        /* \"#utility.yul\":14619:14656   */\n      swap1\n      pop\n        /* \"#utility.yul\":14556:14663   */\n      swap3\n      swap2\n      pop\n      pop\n      jump\t// out\n        /* \"#utility.yul\":14669:15062   */\n    tag_142:\n        /* \"#utility.yul\":14738:14744   */\n      0x00\n        /* \"#utility.yul\":14788:14789   */\n      0x08\n        /* \"#utility.yul\":14776:14786   */\n      dup4\n        /* \"#utility.yul\":14772:14790   */\n      mul\n        /* \"#utility.yul\":14811:14908   */\n      tag_298\n        /* \"#utility.yul\":14841:14907   */\n      0xffffffffffffffffffffffffffffffffffffffffffffffffffffffffffffffff\n        /* \"#utility.yul\":14830:14839   */\n      dup3\n        /* \"#utility.yul\":14811:14908   */\n      tag_141\n      jump\t// in\n    tag_298:\n        /* \"#utility.yul\":14929:14968   */\n      tag_299\n        /* \"#utility.yul\":14959:14967   */\n      dup7\n        /* \"#utility.yul\":14948:14957   */\n      dup4\n        /* \"#utility.yul\":14929:14968   */\n      tag_141\n      jump\t// in\n    tag_299:\n        /* \"#utility.yul\":14917:14968   */\n      swap6\n      pop\n        /* \"#utility.yul\":15001:15005   */\n      dup1\n        /* \"#utility.yul\":14997:15006   */\n      not\n        /* \"#utility.yul\":14990:14995   */\n      dup5\n        /* \"#utility.yul\":14986:15007   */\n      and\n        /* \"#utility.yul\":14977:15007   */\n      swap4\n      pop\n        /* \"#utility.yul\":15050:15054   */\n      dup1\n        /* \"#utility.yul\":15040:15048   */\n      dup7\n        /* \"#utility.yul\":15036:15055   */\n      and\n        /* \"#utility.yul\":15029:15034   */\n      dup5\n        /* \"#utility.yul\":15026:15056   */\n      or\n        /* \"#utility.yul\":15016:15056   */\n      swap3\n      pop\n        /* \"#utility.yul\":14745:15062   */\n      pop\n      pop\n        /* \"#utility.yul\":14669:15062   */\n      swap4\n      swap3\n      pop\n      pop\n      pop\n      jump\t// out\n        /* \"#utility.yul\":15068:15145   */\n    tag_143:\n        /* \"#utility.yul\":15105:15112   */\n      0x00\n        /* \"#utility.yul\":15134:15139   */\n      dup2\n        /* \"#utility.yul\":15123:15139   */\n      swap1\n      pop\n        /* \"#utility.yul\":15068:15145   */\n      swap2\n      swap1\n      pop\n      jump\t// out\n        /* \"#utility.yul\":15151:15211   */\n    tag_144:\n        /* \"#utility.yul\":15179:15182   */\n      0x00\n        /* \"#utility.yul\":15200:15205   */\n      dup2\n        /* \"#utility.yul\":15193:15205   */\n      swap1\n      pop\n        /* \"#utility.yul\":15151:15211   */\n      swap2\n      swap1\n      pop\n      jump\t// out\n        /* \"#utility.yul\":15217:15359   */\n    tag_145:\n        /* \"#utility.yul\":15267:15276   */\n      0x00\n        /* \"#utility.yul\":15300:15353   */\n      tag_303\n        /* \"#utility.yul\":15318:15352   */\n      tag_304\n        /* \"#utility.yul\":15327:15351   */\n      tag_305\n        /* \"#utility.yul\":15345:15350   */\n      dup5\n        /* \"#utility.yul\":15327:15351   */\n      tag_143\n      jump\t// in\n    tag_305:\n        /* \"#utility.yul\":15318:15352   */\n      tag_144\n      jump\t// in\n    tag_304:\n        /* \"#utility.yul\":15300:15353   */\n      tag_143\n      jump\t// in\n    tag_303:\n        /* \"#utility.yul\":15287:15353   */\n      swap1\n      pop\n        /* \"#utility.yul\":15217:15359   */\n      swap2\n      swap1\n      pop\n      jump\t// out\n        /* \"#utility.yul\":15365:15440   */\n    tag_146:\n        /* \"#utility.yul\":15408:15411   */\n      0x00\n        /* \"#utility.yul\":15429:15434   */\n      dup2\n        /* \"#utility.yul\":15422:15434   */\n      swap1\n      pop\n        /* \"#utility.yul\":15365:15440   */\n      swap2\n      swap1\n      pop\n      jump\t// out\n        /* \"#utility.yul\":15446:15715   */\n    tag_147:\n        /* \"#utility.yul\":15556:15595   */\n      tag_308\n        /* \"#utility.yul\":15587:15594   */\n      dup4\n        /* \"#utility.yul\":15556:15595   */\n      tag_145\n      jump\t// in\n    tag_308:\n        /* \"#utility.yul\":15617:15708   */\n      tag_309\n        /* \"#utility.yul\":15666:15707   */\n      tag_310\n        /* \"#utility.yul\":15690:15706   */\n      dup3\n        /* \"#utility.yul\":15666:15707   */\n      tag_146\n      jump\t// in\n    tag_310:\n        /* \"#utility.yul\":15658:15664   */\n      dup5\n        /* \"#utility.yul\":15651:15655   */\n      dup5\n        /* \"#utility.yul\":15645:15656   */\n      sload\n        /* \"#utility.yul\":15617:15708   */\n      tag_142\n      jump\t// in\n    tag_309:\n        /* \"#utility.yul\":15611:15615   */\n      dup3\n        /* \"#utility.yul\":15604:15709   */\n      sstore\n        /* \"#utility.yul\":15522:15715   */\n      pop\n        /* \"#utility.yul\":15446:15715   */\n      pop\n      pop\n      pop\n      jump\t// out\n        /* \"#utility.yul\":15721:15794   */\n    tag_148:\n        /* \"#utility.yul\":15766:15769   */\n      0x00\n        /* \"#utility.yul\":15787:15788   */\n      0x00\n        /* \"#utility.yul\":15780:15788   */\n      swap1\n      pop\n        /* \"#utility.yul\":15721:15794   */\n      swap1\n      jump\t// out\n        /* \"#utility.yul\":15800:15989   */\n    tag_149:\n        /* \"#utility.yul\":15877:15909   */\n      tag_313\n      tag_148\n      jump\t// in\n    tag_313:\n        /* \"#utility.yul\":15918:15983   */\n      tag_314\n        /* \"#utility.yul\":15976:15982   */\n      dup2\n        /* \"#utility.yul\":15968:15974   */\n      dup5\n        /* \"#utility.yul\":15962:15966   */\n      dup5\n        /* \"#utility.yul\":15918:15983   */\n      tag_147\n      jump\t// in\n    tag_314:\n        /* \"#utility.yul\":15853:15989   */\n      pop\n        /* \"#utility.yul\":15800:15989   */\n      pop\n      pop\n      jump\t// out\n        /* \"#utility.yul\":15995:16181   */\n    tag_150:\n        /* \"#utility.yul\":16055:16175   */\n    tag_316:\n        /* \"#utility.yul\":16072:16075   */\n      dup2\n        /* \"#utility.yul\":16065:16070   */\n      dup2\n        /* \"#utility.yul\":16062:16076   */\n      lt\n        /* \"#utility.yul\":16055:16175   */\n      iszero\n      tag_318\n      jumpi\n        /* \"#utility.yul\":16126:16165   */\n      tag_319\n        /* \"#utility.yul\":16163:16164   */\n      0x00\n        /* \"#utility.yul\":16156:16161   */\n      dup3\n        /* \"#utility.yul\":16126:16165   */\n      tag_149\n      jump\t// in\n    tag_319:\n        /* \"#utility.yul\":16099:16100   */\n      0x01\n        /* \"#utility.yul\":16092:16097   */\n      dup2\n        /* \"#utility.yul\":16088:16101   */\n      add\n        /* \"#utility.yul\":16079:16101   */\n      swap1\n      pop\n        /* \"#utility.yul\":16055:16175   */\n      jump(tag_316)\n    tag_318:\n        /* \"#utility.yul\":15995:16181   */\n      pop\n      pop\n      jump\t// out\n        /* \"#utility.yul\":16187:16730   */\n    tag_151:\n        /* \"#utility.yul\":16288:16290   */\n      0x1f\n        /* \"#utility.yul\":16283:16286   */\n      dup3\n        /* \"#utility.yul\":16280:16291   */\n      gt\n        /* \"#utility.yul\":16277:16723   */\n      iszero\n      tag_321\n      jumpi\n        /* \"#utility.yul\":16322:16360   */\n      tag_322\n        /* \"#utility.yul\":16354:16359   */\n      dup2\n        /* \"#utility.yul\":16322:16360   */\n      tag_138\n      jump\t// in\n    tag_322:\n        /* \"#utility.yul\":16406:16435   */\n      tag_323\n        /* \"#utility.yul\":16424:16434   */\n      dup5\n        /* \"#utility.yul\":16406:16435   */\n      tag_140\n      jump\t// in\n    tag_323:\n        /* \"#utility.yul\":16396:16404   */\n      dup2\n        /* \"#utility.yul\":16392:16436   */\n      add\n        /* \"#utility.yul\":16589:16591   */\n      0x20\n        /* \"#utility.yul\":16577:16587   */\n      dup6\n        /* \"#utility.yul\":16574:16592   */\n      lt\n        /* \"#utility.yul\":16571:16620   */\n      iszero\n      tag_324\n      jumpi\n        /* \"#utility.yul\":16610:16618   */\n      dup2\n        /* \"#utility.yul\":16595:16618   */\n      swap1\n      pop\n        /* \"#utility.yul\":16571:16620   */\n    tag_324:\n        /* \"#utility.yul\":16633:16713   */\n      tag_325\n        /* \"#utility.yul\":16689:16711   */\n      tag_326\n        /* \"#utility.yul\":16707:16710   */\n      dup6\n        /* \"#utility.yul\":16689:16711   */\n      tag_140\n      jump\t// in\n    tag_326:\n        /* \"#utility.yul\":16679:16687   */\n      dup4\n        /* \"#utility.yul\":16675:16712   */\n      add\n        /* \"#utility.yul\":16662:16673   */\n      dup3\n        /* \"#utility.yul\":16633:16713   */\n      tag_150\n      jump\t// in\n    tag_325:\n        /* \"#utility.yul\":16292:16723   */\n      pop\n      pop\n        /* \"#utility.yul\":16277:16723   */\n    tag_321:\n        /* \"#utility.yul\":16187:16730   */\n      pop\n      pop\n      pop\n      jump\t// out\n        /* \"#utility.yul\":16736:16853   */\n    tag_152:\n        /* \"#utility.yul\":16790:16798   */\n      0x00\n        /* \"#utility.yul\":16840:16845   */\n      dup3\n        /* \"#utility.yul\":16834:16838   */\n      dup3\n        /* \"#utility.yul\":16830:16846   */\n      shr\n        /* \"#utility.yul\":16809:16846   */\n      swap1\n      pop\n        /* \"#utility.yul\":16736:16853   */\n      swap3\n      swap2\n      pop\n      pop\n      jump\t// out\n        /* \"#utility.yul\":16859:17028   */\n    tag_153:\n        /* \"#utility.yul\":16903:16909   */\n      0x00\n        /* \"#utility.yul\":16936:16987   */\n      tag_329\n        /* \"#utility.yul\":16984:16985   */\n      0x00\n        /* \"#utility.yul\":16980:16986   */\n      not\n        /* \"#utility.yul\":16972:16977   */\n      dup5\n        /* \"#utility.yul\":16969:16970   */\n      0x08\n        /* \"#utility.yul\":16965:16978   */\n      mul\n        /* \"#utility.yul\":16936:16987   */\n      tag_152\n      jump\t// in\n    tag_329:\n        /* \"#utility.yul\":16932:16988   */\n      not\n        /* \"#utility.yul\":17017:17021   */\n      dup1\n        /* \"#utility.yul\":17011:17015   */\n      dup4\n        /* \"#utility.yul\":17007:17022   */\n      and\n        /* \"#utility.yul\":16997:17022   */\n      swap2\n      pop\n        /* \"#utility.yul\":16910:17028   */\n      pop\n        /* \"#utility.yul\":16859:17028   */\n      swap3\n      swap2\n      pop\n      pop\n      jump\t// out\n        /* \"#utility.yul\":17033:17328   */\n    tag_154:\n        /* \"#utility.yul\":17109:17113   */\n      0x00\n        /* \"#utility.yul\":17255:17284   */\n      tag_331\n        /* \"#utility.yul\":17280:17283   */\n      dup4\n        /* \"#utility.yul\":17274:17278   */\n      dup4\n        /* \"#utility.yul\":17255:17284   */\n      tag_153\n      jump\t// in\n    tag_331:\n        /* \"#utility.yul\":17247:17284   */\n      swap2\n      pop\n        /* \"#utility.yul\":17317:17320   */\n      dup3\n        /* \"#utility.yul\":17314:17315   */\n      0x02\n        /* \"#utility.yul\":17310:17321   */\n      mul\n        /* \"#utility.yul\":17304:17308   */\n      dup3\n        /* \"#utility.yul\":17301:17322   */\n      or\n        /* \"#utility.yul\":17293:17322   */\n      swap1\n      pop\n        /* \"#utility.yul\":17033:17328   */\n      swap3\n      swap2\n      pop\n      pop\n      jump\t// out\n        /* \"#utility.yul\":17333:18728   */\n    tag_68:\n        /* \"#utility.yul\":17450:17487   */\n      tag_333\n        /* \"#utility.yul\":17483:17486   */\n      dup3\n        /* \"#utility.yul\":17450:17487   */\n      tag_106\n      jump\t// in\n    tag_333:\n        /* \"#utility.yul\":17552:17570   */\n      0xffffffffffffffff\n        /* \"#utility.yul\":17544:17550   */\n      dup2\n        /* \"#utility.yul\":17541:17571   */\n      gt\n        /* \"#utility.yul\":17538:17594   */\n      iszero\n      tag_334\n      jumpi\n        /* \"#utility.yul\":17574:17592   */\n      tag_335\n      tag_114\n      jump\t// in\n    tag_335:\n        /* \"#utility.yul\":17538:17594   */\n    tag_334:\n        /* \"#utility.yul\":17618:17656   */\n      tag_336\n        /* \"#utility.yul\":17650:17654   */\n      dup3\n        /* \"#utility.yul\":17644:17655   */\n      sload\n        /* \"#utility.yul\":17618:17656   */\n      tag_40\n      jump\t// in\n    tag_336:\n        /* \"#utility.yul\":17703:17770   */\n      tag_337\n        /* \"#utility.yul\":17763:17769   */\n      dup3\n        /* \"#utility.yul\":17755:17761   */\n      dup3\n        /* \"#utility.yul\":17749:17753   */\n      dup6\n        /* \"#utility.yul\":17703:17770   */\n      tag_151\n      jump\t// in\n    tag_337:\n        /* \"#utility.yul\":17797:17798   */\n      0x00\n        /* \"#utility.yul\":17821:17825   */\n      0x20\n        /* \"#utility.yul\":17808:17825   */\n      swap1\n      pop\n        /* \"#utility.yul\":17853:17855   */\n      0x1f\n        /* \"#utility.yul\":17845:17851   */\n      dup4\n        /* \"#utility.yul\":17842:17856   */\n      gt\n        /* \"#utility.yul\":17870:17871   */\n      0x01\n        /* \"#utility.yul\":17865:18483   */\n      dup2\n      eq\n      tag_339\n      jumpi\n        /* \"#utility.yul\":18527:18528   */\n      0x00\n        /* \"#utility.yul\":18544:18550   */\n      dup5\n        /* \"#utility.yul\":18541:18618   */\n      iszero\n      tag_340\n      jumpi\n        /* \"#utility.yul\":18593:18602   */\n      dup3\n        /* \"#utility.yul\":18588:18591   */\n      dup8\n        /* \"#utility.yul\":18584:18603   */\n      add\n        /* \"#utility.yul\":18578:18604   */\n      mload\n        /* \"#utility.yul\":18569:18604   */\n      swap1\n      pop\n        /* \"#utility.yul\":18541:18618   */\n    tag_340:\n        /* \"#utility.yul\":18644:18711   */\n      tag_341\n        /* \"#utility.yul\":18704:18710   */\n      dup6\n        /* \"#utility.yul\":18697:18702   */\n      dup3\n        /* \"#utility.yul\":18644:18711   */\n      tag_154\n      jump\t// in\n    tag_341:\n        /* \"#utility.yul\":18638:18642   */\n      dup7\n        /* \"#utility.yul\":18631:18712   */\n      sstore\n        /* \"#utility.yul\":18500:18722   */\n      pop\n        /* \"#utility.yul\":17835:18722   */\n      jump(tag_338)\n        /* \"#utility.yul\":17865:18483   */\n    tag_339:\n        /* \"#utility.yul\":17917:17921   */\n      0x1f\n        /* \"#utility.yul\":17913:17922   */\n      not\n        /* \"#utility.yul\":17905:17911   */\n      dup5\n        /* \"#utility.yul\":17901:17923   */\n      and\n        /* \"#utility.yul\":17951:17988   */\n      tag_342\n        /* \"#utility.yul\":17983:17987   */\n      dup7\n        /* \"#utility.yul\":17951:17988   */\n      tag_138\n      jump\t// in\n    tag_342:\n        /* \"#utility.yul\":18010:18011   */\n      0x00\n        /* \"#utility.yul\":18024:18232   */\n    tag_343:\n        /* \"#utility.yul\":18038:18045   */\n      dup3\n        /* \"#utility.yul\":18035:18036   */\n      dup2\n        /* \"#utility.yul\":18032:18046   */\n      lt\n        /* \"#utility.yul\":18024:18232   */\n      iszero\n      tag_345\n      jumpi\n        /* \"#utility.yul\":18117:18126   */\n      dup5\n        /* \"#utility.yul\":18112:18115   */\n      dup10\n        /* \"#utility.yul\":18108:18127   */\n      add\n        /* \"#utility.yul\":18102:18128   */\n      mload\n        /* \"#utility.yul\":18094:18100   */\n      dup3\n        /* \"#utility.yul\":18087:18129   */\n      sstore\n        /* \"#utility.yul\":18168:18169   */\n      0x01\n        /* \"#utility.yul\":18160:18166   */\n      dup3\n        /* \"#utility.yul\":18156:18170   */\n      add\n        /* \"#utility.yul\":18146:18170   */\n      swap2\n      pop\n        /* \"#utility.yul\":18215:18217   */\n      0x20\n        /* \"#utility.yul\":18204:18213   */\n      dup6\n        /* \"#utility.yul\":18200:18218   */\n      add\n        /* \"#utility.yul\":18187:18218   */\n      swap5\n      pop\n        /* \"#utility.yul\":18061:18065   */\n      0x20\n        /* \"#utility.yul\":18058:18059   */\n      dup2\n        /* \"#utility.yul\":18054:18066   */\n      add\n        /* \"#utility.yul\":18049:18066   */\n      swap1\n      pop\n        /* \"#utility.yul\":18024:18232   */\n      jump(tag_343)\n    tag_345:\n        /* \"#utility.yul\":18260:18266   */\n      dup7\n        /* \"#utility.yul\":18251:18258   */\n      dup4\n        /* \"#utility.yul\":18248:18267   */\n      lt\n        /* \"#utility.yul\":18245:18424   */\n      iszero\n      tag_346\n      jumpi\n        /* \"#utility.yul\":18318:18327   */\n      dup5\n        /* \"#utility.yul\":18313:18316   */\n      dup10\n        /* \"#utility.yul\":18309:18328   */\n      add\n        /* \"#utility.yul\":18303:18329   */\n      mload\n        /* \"#utility.yul\":18361:18409   */\n      tag_347\n        /* \"#utility.yul\":18403:18407   */\n      0x1f\n        /* \"#utility.yul\":18395:18401   */\n      dup10\n        /* \"#utility.yul\":18391:18408   */\n      and\n        /* \"#utility.yul\":18380:18389   */\n      dup3\n        /* \"#utility.yul\":18361:18409   */\n      tag_153\n      jump\t// in\n    tag_347:\n        /* \"#utility.yul\":18353:18359   */\n      dup4\n        /* \"#utility.yul\":18346:18410   */\n      sstore\n        /* \"#utility.yul\":18268:18424   */\n      pop\n        /* \"#utility.yul\":18245:18424   */\n    tag_346:\n        /* \"#utility.yul\":18470:18471   */\n      0x01\n        /* \"#utility.yul\":18466:18467   */\n      0x02\n        /* \"#utility.yul\":18458:18464   */\n      dup9\n        /* \"#utility.yul\":18454:18468   */\n      mul\n        /* \"#utility.yul\":18450:18472   */\n      add\n        /* \"#utility.yul\":18444:18448   */\n      dup9\n        /* \"#utility.yul\":18437:18473   */\n      sstore\n        /* \"#utility.yul\":17872:18483   */\n      pop\n      pop\n      pop\n        /* \"#utility.yul\":17835:18722   */\n    tag_338:\n      pop\n        /* \"#utility.yul\":17425:18728   */\n      pop\n      pop\n      pop\n        /* \"#utility.yul\":17333:18728   */\n      pop\n      pop\n      jump\t// out\n        /* \"#utility.yul\":18734:18852   */\n    tag_155:\n        /* \"#utility.yul\":18821:18845   */\n      tag_349\n        /* \"#utility.yul\":18839:18844   */\n      dup2\n        /* \"#utility.yul\":18821:18845   */\n      tag_103\n      jump\t// in\n    tag_349:\n        /* \"#utility.yul\":18816:18819   */\n      dup3\n        /* \"#utility.yul\":18809:18846   */\n      mstore\n        /* \"#utility.yul\":18734:18852   */\n      pop\n      pop\n      jump\t// out\n        /* \"#utility.yul\":18858:19235   */\n    tag_156:\n        /* \"#utility.yul\":18946:18949   */\n      0x00\n        /* \"#utility.yul\":18974:19013   */\n      tag_351\n        /* \"#utility.yul\":19007:19012   */\n      dup3\n        /* \"#utility.yul\":18974:19013   */\n      tag_106\n      jump\t// in\n    tag_351:\n        /* \"#utility.yul\":19029:19100   */\n      tag_352\n        /* \"#utility.yul\":19093:19099   */\n      dup2\n        /* \"#utility.yul\":19088:19091   */\n      dup6\n        /* \"#utility.yul\":19029:19100   */\n      tag_131\n      jump\t// in\n    tag_352:\n        /* \"#utility.yul\":19022:19100   */\n      swap4\n      pop\n        /* \"#utility.yul\":19109:19174   */\n      tag_353\n        /* \"#utility.yul\":19167:19173   */\n      dup2\n        /* \"#utility.yul\":19162:19165   */\n      dup6\n        /* \"#utility.yul\":19155:19159   */\n      0x20\n        /* \"#utility.yul\":19148:19153   */\n      dup7\n        /* \"#utility.yul\":19144:19160   */\n      add\n        /* \"#utility.yul\":19109:19174   */\n      tag_108\n      jump\t// in\n    tag_353:\n        /* \"#utility.yul\":19199:19228   */\n      tag_354\n        /* \"#utility.yul\":19221:19227   */\n      dup2\n        /* \"#utility.yul\":19199:19228   */\n      tag_109\n      jump\t// in\n    tag_354:\n        /* \"#utility.yul\":19194:19197   */\n      dup5\n        /* \"#utility.yul\":19190:19229   */\n      add\n        /* \"#utility.yul\":19183:19229   */\n      swap2\n      pop\n        /* \"#utility.yul\":18950:19235   */\n      pop\n        /* \"#utility.yul\":18858:19235   */\n      swap3\n      swap2\n      pop\n      pop\n      jump\t// out\n        /* \"#utility.yul\":19241:20067   */\n    tag_73:\n        /* \"#utility.yul\":19478:19482   */\n      0x00\n        /* \"#utility.yul\":19516:19519   */\n      0x80\n        /* \"#utility.yul\":19505:19514   */\n      dup3\n        /* \"#utility.yul\":19501:19520   */\n      add\n        /* \"#utility.yul\":19493:19520   */\n      swap1\n      pop\n        /* \"#utility.yul\":19530:19601   */\n      tag_356\n        /* \"#utility.yul\":19598:19599   */\n      0x00\n        /* \"#utility.yul\":19587:19596   */\n      dup4\n        /* \"#utility.yul\":19583:19600   */\n      add\n        /* \"#utility.yul\":19574:19580   */\n      dup8\n        /* \"#utility.yul\":19530:19601   */\n      tag_155\n      jump\t// in\n    tag_356:\n        /* \"#utility.yul\":19648:19657   */\n      dup2\n        /* \"#utility.yul\":19642:19646   */\n      dup2\n        /* \"#utility.yul\":19638:19658   */\n      sub\n        /* \"#utility.yul\":19633:19635   */\n      0x20\n        /* \"#utility.yul\":19622:19631   */\n      dup4\n        /* \"#utility.yul\":19618:19636   */\n      add\n        /* \"#utility.yul\":19611:19659   */\n      mstore\n        /* \"#utility.yul\":19676:19754   */\n      tag_357\n        /* \"#utility.yul\":19749:19753   */\n      dup2\n        /* \"#utility.yul\":19740:19746   */\n      dup7\n        /* \"#utility.yul\":19676:19754   */\n      tag_156\n      jump\t// in\n    tag_357:\n        /* \"#utility.yul\":19668:19754   */\n      swap1\n      pop\n        /* \"#utility.yul\":19801:19810   */\n      dup2\n        /* \"#utility.yul\":19795:19799   */\n      dup2\n        /* \"#utility.yul\":19791:19811   */\n      sub\n        /* \"#utility.yul\":19786:19788   */\n      0x40\n        /* \"#utility.yul\":19775:19784   */\n      dup4\n        /* \"#utility.yul\":19771:19789   */\n      add\n        /* \"#utility.yul\":19764:19812   */\n      mstore\n        /* \"#utility.yul\":19829:19907   */\n      tag_358\n        /* \"#utility.yul\":19902:19906   */\n      dup2\n        /* \"#utility.yul\":19893:19899   */\n      dup6\n        /* \"#utility.yul\":19829:19907   */\n      tag_156\n      jump\t// in\n    tag_358:\n        /* \"#utility.yul\":19821:19907   */\n      swap1\n      pop\n        /* \"#utility.yul\":19954:19963   */\n      dup2\n        /* \"#utility.yul\":19948:19952   */\n      dup2\n        /* \"#utility.yul\":19944:19964   */\n      sub\n        /* \"#utility.yul\":19939:19941   */\n      0x60\n        /* \"#utility.yul\":19928:19937   */\n      dup4\n        /* \"#utility.yul\":19924:19942   */\n      add\n        /* \"#utility.yul\":19917:19965   */\n      mstore\n        /* \"#utility.yul\":19982:20060   */\n      tag_359\n        /* \"#utility.yul\":20055:20059   */\n      dup2\n        /* \"#utility.yul\":20046:20052   */\n      dup5\n        /* \"#utility.yul\":19982:20060   */\n      tag_156\n      jump\t// in\n    tag_359:\n        /* \"#utility.yul\":19974:20060   */\n      swap1\n      pop\n        /* \"#utility.yul\":19241:20067   */\n      swap6\n      swap5\n      pop\n      pop\n      pop\n      pop\n      pop\n      jump\t// out\n        /* \"#utility.yul\":20073:20299   */\n    tag_157:\n        /* \"#utility.yul\":20213:20247   */\n      0x50726f66696c6520616c72656164792065786973747320666f72207468697320\n        /* \"#utility.yul\":20209:20210   */\n      0x00\n        /* \"#utility.yul\":20201:20207   */\n      dup3\n        /* \"#utility.yul\":20197:20211   */\n      add\n        /* \"#utility.yul\":20190:20248   */\n      mstore\n        /* \"#utility.yul\":20282:20291   */\n      0x6164647265737300000000000000000000000000000000000000000000000000\n        /* \"#utility.yul\":20277:20279   */\n      0x20\n        /* \"#utility.yul\":20269:20275   */\n      dup3\n        /* \"#utility.yul\":20265:20280   */\n      add\n        /* \"#utility.yul\":20258:20292   */\n      mstore\n        /* \"#utility.yul\":20073:20299   */\n      pop\n      jump\t// out\n        /* \"#utility.yul\":20305:20671   */\n    tag_158:\n        /* \"#utility.yul\":20447:20450   */\n      0x00\n        /* \"#utility.yul\":20468:20535   */\n      tag_362\n        /* \"#utility.yul\":20532:20534   */\n      0x27\n        /* \"#utility.yul\":20527:20530   */\n      dup4\n        /* \"#utility.yul\":20468:20535   */\n      tag_131\n      jump\t// in\n    tag_362:\n        /* \"#utility.yul\":20461:20535   */\n      swap2\n      pop\n        /* \"#utility.yul\":20544:20637   */\n      tag_363\n        /* \"#utility.yul\":20633:20636   */\n      dup3\n        /* \"#utility.yul\":20544:20637   */\n      tag_157\n      jump\t// in\n    tag_363:\n        /* \"#utility.yul\":20662:20664   */\n      0x40\n        /* \"#utility.yul\":20657:20660   */\n      dup3\n        /* \"#utility.yul\":20653:20665   */\n      add\n        /* \"#utility.yul\":20646:20665   */\n      swap1\n      pop\n        /* \"#utility.yul\":20305:20671   */\n      swap2\n      swap1\n      pop\n      jump\t// out\n        /* \"#utility.yul\":20677:21096   */\n    tag_81:\n        /* \"#utility.yul\":20843:20847   */\n      0x00\n        /* \"#utility.yul\":20881:20883   */\n      0x20\n        /* \"#utility.yul\":20870:20879   */\n      dup3\n        /* \"#utility.yul\":20866:20884   */\n      add\n        /* \"#utility.yul\":20858:20884   */\n      swap1\n      pop\n        /* \"#utility.yul\":20930:20939   */\n      dup2\n        /* \"#utility.yul\":20924:20928   */\n      dup2\n        /* \"#utility.yul\":20920:20940   */\n      sub\n        /* \"#utility.yul\":20916:20917   */\n      0x00\n        /* \"#utility.yul\":20905:20914   */\n      dup4\n        /* \"#utility.yul\":20901:20918   */\n      add\n        /* \"#utility.yul\":20894:20941   */\n      mstore\n        /* \"#utility.yul\":20958:21089   */\n      tag_365\n        /* \"#utility.yul\":21084:21088   */\n      dup2\n        /* \"#utility.yul\":20958:21089   */\n      tag_158\n      jump\t// in\n    tag_365:\n        /* \"#utility.yul\":20950:21089   */\n      swap1\n      pop\n        /* \"#utility.yul\":20677:21096   */\n      swap2\n      swap1\n      pop\n      jump\t// out\n\n    auxdata: 0xa2646970667358221220b68f4a9fcd9120fe6be13ed2fac7705bd3d294765afea2c3b0f705c4d31b550364736f6c634300081b0033\n}\n",
				"bytecode": {
					"linkReferences": {},
					"object": "6080604052348015600e575f5ffd5b5061153b8061001c5f395ff3fe608060405234801561000f575f5ffd5b5060043610610060575f3560e01c80630f53a470146100645780631ebd72ed14610094578063336b4540146100b05780638747e97b146100ce578063ee70746c146100ea578063f409e87d1461011a575b5f5ffd5b61007e60048036038101906100799190610b06565b61014a565b60405161008b9190610bfc565b60405180910390f35b6100ae60048036038101906100a99190610d48565b61034f565b005b6100b8610610565b6040516100c59190610ea3565b60405180910390f35b6100e860048036038101906100e39190610d48565b61069b565b005b61010460048036038101906100ff9190610ec3565b6109af565b6040516101119190610f24565b60405180910390f35b610134600480360381019061012f9190610b06565b610a24565b6040516101419190610f24565b60405180910390f35b610152610a7a565b5f5f8373ffffffffffffffffffffffffffffffffffffffff1673ffffffffffffffffffffffffffffffffffffffff1681526020019081526020015f206040518060600160405290815f820180546101a890610f6a565b80601f01602080910402602001604051908101604052809291908181526020018280546101d490610f6a565b801561021f5780601f106101f65761010080835404028352916020019161021f565b820191905f5260205f20905b81548152906001019060200180831161020257829003601f168201915b5050505050815260200160018201805461023890610f6a565b80601f016020809104026020016040519081016040528092919081815260200182805461026490610f6a565b80156102af5780601f10610286576101008083540402835291602001916102af565b820191905f5260205f20905b81548152906001019060200180831161029257829003601f168201915b505050505081526020016002820180546102c890610f6a565b80601f01602080910402602001604051908101604052809291908181526020018280546102f490610f6a565b801561033f5780601f106103165761010080835404028352916020019161033f565b820191905f5260205f20905b81548152906001019060200180831161032257829003601f168201915b5050505050815250509050919050565b825f815111610393576040517f08c379a000000000000000000000000000000000000000000000000000000000815260040161038a90610ff4565b60405180910390fd5b5f73ffffffffffffffffffffffffffffffffffffffff166002826040516103ba919061104c565b90815260200160405180910390205f9054906101000a900473ffffffffffffffffffffffffffffffffffffffff1673ffffffffffffffffffffffffffffffffffffffff161461043e576040517f08c379a0000000000000000000000000000000000000000000000000000000008152600401610435906110ac565b60405180910390fd5b5f60025f5f3373ffffffffffffffffffffffffffffffffffffffff1673ffffffffffffffffffffffffffffffffffffffff1681526020019081526020015f205f0160405161048c919061115c565b90815260200160405180910390205f6101000a81548173ffffffffffffffffffffffffffffffffffffffff021916908373ffffffffffffffffffffffffffffffffffffffff1602179055506040518060600160405280858152602001848152602001838152505f5f3373ffffffffffffffffffffffffffffffffffffffff1673ffffffffffffffffffffffffffffffffffffffff1681526020019081526020015f205f820151815f0190816105419190611309565b5060208201518160010190816105579190611309565b50604082015181600201908161056d9190611309565b5090505033600285604051610582919061104c565b90815260200160405180910390205f6101000a81548173ffffffffffffffffffffffffffffffffffffffff021916908373ffffffffffffffffffffffffffffffffffffffff1602179055507f6420daf1b58438e85465ef21dee378d307a509caab491149e3f066c5caf1266d33858585604051610602949392919061141f565b60405180910390a150505050565b6060600180548060200260200160405190810160405280929190818152602001828054801561069157602002820191905f5260205f20905b815f9054906101000a900473ffffffffffffffffffffffffffffffffffffffff1673ffffffffffffffffffffffffffffffffffffffff1681526020019060010190808311610648575b5050505050905090565b5f5f5f3373ffffffffffffffffffffffffffffffffffffffff1673ffffffffffffffffffffffffffffffffffffffff1681526020019081526020015f205f0180546106e590610f6a565b905014610727576040517f08c379a000000000000000000000000000000000000000000000000000000000815260040161071e906114e7565b60405180910390fd5b825f81511161076b576040517f08c379a000000000000000000000000000000000000000000000000000000000815260040161076290610ff4565b60405180910390fd5b5f73ffffffffffffffffffffffffffffffffffffffff16600282604051610792919061104c565b90815260200160405180910390205f9054906101000a900473ffffffffffffffffffffffffffffffffffffffff1673ffffffffffffffffffffffffffffffffffffffff1614610816576040517f08c379a000000000000000000000000000000000000000000000000000000000815260040161080d906110ac565b60405180910390fd5b6040518060600160405280858152602001848152602001838152505f5f3373ffffffffffffffffffffffffffffffffffffffff1673ffffffffffffffffffffffffffffffffffffffff1681526020019081526020015f205f820151815f0190816108809190611309565b5060208201518160010190816108969190611309565b5060408201518160020190816108ac9190611309565b50905050600133908060018154018082558091505060019003905f5260205f20015f9091909190916101000a81548173ffffffffffffffffffffffffffffffffffffffff021916908373ffffffffffffffffffffffffffffffffffffffff16021790555033600285604051610921919061104c565b90815260200160405180910390205f6101000a81548173ffffffffffffffffffffffffffffffffffffffff021916908373ffffffffffffffffffffffffffffffffffffffff1602179055507f77c378673324822ad159b021c3ce202d7676946ff3967162024b660a493e64b3338585856040516109a1949392919061141f565b60405180910390a150505050565b5f5f73ffffffffffffffffffffffffffffffffffffffff166002836040516109d7919061104c565b90815260200160405180910390205f9054906101000a900473ffffffffffffffffffffffffffffffffffffffff1673ffffffffffffffffffffffffffffffffffffffff1614159050919050565b5f5f5f5f8473ffffffffffffffffffffffffffffffffffffffff1673ffffffffffffffffffffffffffffffffffffffff1681526020019081526020015f205f018054610a6f90610f6a565b905014159050919050565b60405180606001604052806060815260200160608152602001606081525090565b5f604051905090565b5f5ffd5b5f5ffd5b5f73ffffffffffffffffffffffffffffffffffffffff82169050919050565b5f610ad582610aac565b9050919050565b610ae581610acb565b8114610aef575f5ffd5b50565b5f81359050610b0081610adc565b92915050565b5f60208284031215610b1b57610b1a610aa4565b5b5f610b2884828501610af2565b91505092915050565b5f81519050919050565b5f82825260208201905092915050565b8281835e5f83830152505050565b5f601f19601f8301169050919050565b5f610b7382610b31565b610b7d8185610b3b565b9350610b8d818560208601610b4b565b610b9681610b59565b840191505092915050565b5f606083015f8301518482035f860152610bbb8282610b69565b91505060208301518482036020860152610bd58282610b69565b91505060408301518482036040860152610bef8282610b69565b9150508091505092915050565b5f6020820190508181035f830152610c148184610ba1565b905092915050565b5f5ffd5b5f5ffd5b7f4e487b71000000000000000000000000000000000000000000000000000000005f52604160045260245ffd5b610c5a82610b59565b810181811067ffffffffffffffff82111715610c7957610c78610c24565b5b80604052505050565b5f610c8b610a9b565b9050610c978282610c51565b919050565b5f67ffffffffffffffff821115610cb657610cb5610c24565b5b610cbf82610b59565b9050602081019050919050565b828183375f83830152505050565b5f610cec610ce784610c9c565b610c82565b905082815260208101848484011115610d0857610d07610c20565b5b610d13848285610ccc565b509392505050565b5f82601f830112610d2f57610d2e610c1c565b5b8135610d3f848260208601610cda565b91505092915050565b5f5f5f60608486031215610d5f57610d5e610aa4565b5b5f84013567ffffffffffffffff811115610d7c57610d7b610aa8565b5b610d8886828701610d1b565b935050602084013567ffffffffffffffff811115610da957610da8610aa8565b5b610db586828701610d1b565b925050604084013567ffffffffffffffff811115610dd657610dd5610aa8565b5b610de286828701610d1b565b9150509250925092565b5f81519050919050565b5f82825260208201905092915050565b5f819050602082019050919050565b610e1e81610acb565b82525050565b5f610e2f8383610e15565b60208301905092915050565b5f602082019050919050565b5f610e5182610dec565b610e5b8185610df6565b9350610e6683610e06565b805f5b83811015610e96578151610e7d8882610e24565b9750610e8883610e3b565b925050600181019050610e69565b5085935050505092915050565b5f6020820190508181035f830152610ebb8184610e47565b905092915050565b5f60208284031215610ed857610ed7610aa4565b5b5f82013567ffffffffffffffff811115610ef557610ef4610aa8565b5b610f0184828501610d1b565b91505092915050565b5f8115159050919050565b610f1e81610f0a565b82525050565b5f602082019050610f375f830184610f15565b92915050565b7f4e487b71000000000000000000000000000000000000000000000000000000005f52602260045260245ffd5b5f6002820490506001821680610f8157607f821691505b602082108103610f9457610f93610f3d565b5b50919050565b5f82825260208201905092915050565b7f557365726e616d652069732072657175697265640000000000000000000000005f82015250565b5f610fde601483610f9a565b9150610fe982610faa565b602082019050919050565b5f6020820190508181035f83015261100b81610fd2565b9050919050565b5f81905092915050565b5f61102682610b31565b6110308185611012565b9350611040818560208601610b4b565b80840191505092915050565b5f611057828461101c565b915081905092915050565b7f557365726e616d652069732074616b656e0000000000000000000000000000005f82015250565b5f611096601183610f9a565b91506110a182611062565b602082019050919050565b5f6020820190508181035f8301526110c38161108a565b9050919050565b5f819050815f5260205f209050919050565b5f81546110e881610f6a565b6110f28186611012565b9450600182165f811461110c576001811461112157611153565b60ff1983168652811515820286019350611153565b61112a856110ca565b5f5b8381101561114b5781548189015260018201915060208101905061112c565b838801955050505b50505092915050565b5f61116782846110dc565b915081905092915050565b5f6020601f8301049050919050565b5f82821b905092915050565b5f600883026111bc7fffffffffffffffffffffffffffffffffffffffffffffffffffffffffffffffff82611181565b6111c68683611181565b95508019841693508086168417925050509392505050565b5f819050919050565b5f819050919050565b5f61120a611205611200846111de565b6111e7565b6111de565b9050919050565b5f819050919050565b611223836111f0565b61123761122f82611211565b84845461118d565b825550505050565b5f5f905090565b61124e61123f565b61125981848461121a565b505050565b5b8181101561127c576112715f82611246565b60018101905061125f565b5050565b601f8211156112c157611292816110ca565b61129b84611172565b810160208510156112aa578190505b6112be6112b685611172565b83018261125e565b50505b505050565b5f82821c905092915050565b5f6112e15f19846008026112c6565b1980831691505092915050565b5f6112f983836112d2565b9150826002028217905092915050565b61131282610b31565b67ffffffffffffffff81111561132b5761132a610c24565b5b6113358254610f6a565b611340828285611280565b5f60209050601f831160018114611371575f841561135f578287015190505b61136985826112ee565b8655506113d0565b601f19841661137f866110ca565b5f5b828110156113a657848901518255600182019150602085019450602081019050611381565b868310156113c357848901516113bf601f8916826112d2565b8355505b6001600288020188555050505b505050505050565b6113e181610acb565b82525050565b5f6113f182610b31565b6113fb8185610f9a565b935061140b818560208601610b4b565b61141481610b59565b840191505092915050565b5f6080820190506114325f8301876113d8565b818103602083015261144481866113e7565b9050818103604083015261145881856113e7565b9050818103606083015261146c81846113e7565b905095945050505050565b7f50726f66696c6520616c72656164792065786973747320666f722074686973205f8201527f6164647265737300000000000000000000000000000000000000000000000000602082015250565b5f6114d1602783610f9a565b91506114dc82611477565b604082019050919050565b5f6020820190508181035f8301526114fe816114c5565b905091905056fea2646970667358221220b68f4a9fcd9120fe6be13ed2fac7705bd3d294765afea2c3b0f705c4d31b550364736f6c634300081b0033",
					"opcodes": "PUSH1 0x80 PUSH1 0x40 MSTORE CALLVALUE DUP1 ISZERO PUSH1 0xE JUMPI PUSH0 PUSH0 REVERT JUMPDEST POP PUSH2 0x153B DUP1 PUSH2 0x1C PUSH0 CODECOPY PUSH0 RETURN INVALID PUSH1 0x80 PUSH1 0x40 MSTORE CALLVALUE DUP1 ISZERO PUSH2 0xF JUMPI PUSH0 PUSH0 REVERT JUMPDEST POP PUSH1 0x4 CALLDATASIZE LT PUSH2 0x60 JUMPI PUSH0 CALLDATALOAD PUSH1 0xE0 SHR DUP1 PUSH4 0xF53A470 EQ PUSH2 0x64 JUMPI DUP1 PUSH4 0x1EBD72ED EQ PUSH2 0x94 JUMPI DUP1 PUSH4 0x336B4540 EQ PUSH2 0xB0 JUMPI DUP1 PUSH4 0x8747E97B EQ PUSH2 0xCE JUMPI DUP1 PUSH4 0xEE70746C EQ PUSH2 0xEA JUMPI DUP1 PUSH4 0xF409E87D EQ PUSH2 0x11A JUMPI JUMPDEST PUSH0 PUSH0 REVERT JUMPDEST PUSH2 0x7E PUSH1 0x4 DUP1 CALLDATASIZE SUB DUP2 ADD SWAP1 PUSH2 0x79 SWAP2 SWAP1 PUSH2 0xB06 JUMP JUMPDEST PUSH2 0x14A JUMP JUMPDEST PUSH1 0x40 MLOAD PUSH2 0x8B SWAP2 SWAP1 PUSH2 0xBFC JUMP JUMPDEST PUSH1 0x40 MLOAD DUP1 SWAP2 SUB SWAP1 RETURN JUMPDEST PUSH2 0xAE PUSH1 0x4 DUP1 CALLDATASIZE SUB DUP2 ADD SWAP1 PUSH2 0xA9 SWAP2 SWAP1 PUSH2 0xD48 JUMP JUMPDEST PUSH2 0x34F JUMP JUMPDEST STOP JUMPDEST PUSH2 0xB8 PUSH2 0x610 JUMP JUMPDEST PUSH1 0x40 MLOAD PUSH2 0xC5 SWAP2 SWAP1 PUSH2 0xEA3 JUMP JUMPDEST PUSH1 0x40 MLOAD DUP1 SWAP2 SUB SWAP1 RETURN JUMPDEST PUSH2 0xE8 PUSH1 0x4 DUP1 CALLDATASIZE SUB DUP2 ADD SWAP1 PUSH2 0xE3 SWAP2 SWAP1 PUSH2 0xD48 JUMP JUMPDEST PUSH2 0x69B JUMP JUMPDEST STOP JUMPDEST PUSH2 0x104 PUSH1 0x4 DUP1 CALLDATASIZE SUB DUP2 ADD SWAP1 PUSH2 0xFF SWAP2 SWAP1 PUSH2 0xEC3 JUMP JUMPDEST PUSH2 0x9AF JUMP JUMPDEST PUSH1 0x40 MLOAD PUSH2 0x111 SWAP2 SWAP1 PUSH2 0xF24 JUMP JUMPDEST PUSH1 0x40 MLOAD DUP1 SWAP2 SUB SWAP1 RETURN JUMPDEST PUSH2 0x134 PUSH1 0x4 DUP1 CALLDATASIZE SUB DUP2 ADD SWAP1 PUSH2 0x12F SWAP2 SWAP1 PUSH2 0xB06 JUMP JUMPDEST PUSH2 0xA24 JUMP JUMPDEST PUSH1 0x40 MLOAD PUSH2 0x141 SWAP2 SWAP1 PUSH2 0xF24 JUMP JUMPDEST PUSH1 0x40 MLOAD DUP1 SWAP2 SUB SWAP1 RETURN JUMPDEST PUSH2 0x152 PUSH2 0xA7A JUMP JUMPDEST PUSH0 PUSH0 DUP4 PUSH20 0xFFFFFFFFFFFFFFFFFFFFFFFFFFFFFFFFFFFFFFFF AND PUSH20 0xFFFFFFFFFFFFFFFFFFFFFFFFFFFFFFFFFFFFFFFF AND DUP2 MSTORE PUSH1 0x20 ADD SWAP1 DUP2 MSTORE PUSH1 0x20 ADD PUSH0 KECCAK256 PUSH1 0x40 MLOAD DUP1 PUSH1 0x60 ADD PUSH1 0x40 MSTORE SWAP1 DUP2 PUSH0 DUP3 ADD DUP1 SLOAD PUSH2 0x1A8 SWAP1 PUSH2 0xF6A JUMP JUMPDEST DUP1 PUSH1 0x1F ADD PUSH1 0x20 DUP1 SWAP2 DIV MUL PUSH1 0x20 ADD PUSH1 0x40 MLOAD SWAP1 DUP2 ADD PUSH1 0x40 MSTORE DUP1 SWAP3 SWAP2 SWAP1 DUP2 DUP2 MSTORE PUSH1 0x20 ADD DUP3 DUP1 SLOAD PUSH2 0x1D4 SWAP1 PUSH2 0xF6A JUMP JUMPDEST DUP1 ISZERO PUSH2 0x21F JUMPI DUP1 PUSH1 0x1F LT PUSH2 0x1F6 JUMPI PUSH2 0x100 DUP1 DUP4 SLOAD DIV MUL DUP4 MSTORE SWAP2 PUSH1 0x20 ADD SWAP2 PUSH2 0x21F JUMP JUMPDEST DUP3 ADD SWAP2 SWAP1 PUSH0 MSTORE PUSH1 0x20 PUSH0 KECCAK256 SWAP1 JUMPDEST DUP2 SLOAD DUP2 MSTORE SWAP1 PUSH1 0x1 ADD SWAP1 PUSH1 0x20 ADD DUP1 DUP4 GT PUSH2 0x202 JUMPI DUP3 SWAP1 SUB PUSH1 0x1F AND DUP3 ADD SWAP2 JUMPDEST POP POP POP POP POP DUP2 MSTORE PUSH1 0x20 ADD PUSH1 0x1 DUP3 ADD DUP1 SLOAD PUSH2 0x238 SWAP1 PUSH2 0xF6A JUMP JUMPDEST DUP1 PUSH1 0x1F ADD PUSH1 0x20 DUP1 SWAP2 DIV MUL PUSH1 0x20 ADD PUSH1 0x40 MLOAD SWAP1 DUP2 ADD PUSH1 0x40 MSTORE DUP1 SWAP3 SWAP2 SWAP1 DUP2 DUP2 MSTORE PUSH1 0x20 ADD DUP3 DUP1 SLOAD PUSH2 0x264 SWAP1 PUSH2 0xF6A JUMP JUMPDEST DUP1 ISZERO PUSH2 0x2AF JUMPI DUP1 PUSH1 0x1F LT PUSH2 0x286 JUMPI PUSH2 0x100 DUP1 DUP4 SLOAD DIV MUL DUP4 MSTORE SWAP2 PUSH1 0x20 ADD SWAP2 PUSH2 0x2AF JUMP JUMPDEST DUP3 ADD SWAP2 SWAP1 PUSH0 MSTORE PUSH1 0x20 PUSH0 KECCAK256 SWAP1 JUMPDEST DUP2 SLOAD DUP2 MSTORE SWAP1 PUSH1 0x1 ADD SWAP1 PUSH1 0x20 ADD DUP1 DUP4 GT PUSH2 0x292 JUMPI DUP3 SWAP1 SUB PUSH1 0x1F AND DUP3 ADD SWAP2 JUMPDEST POP POP POP POP POP DUP2 MSTORE PUSH1 0x20 ADD PUSH1 0x2 DUP3 ADD DUP1 SLOAD PUSH2 0x2C8 SWAP1 PUSH2 0xF6A JUMP JUMPDEST DUP1 PUSH1 0x1F ADD PUSH1 0x20 DUP1 SWAP2 DIV MUL PUSH1 0x20 ADD PUSH1 0x40 MLOAD SWAP1 DUP2 ADD PUSH1 0x40 MSTORE DUP1 SWAP3 SWAP2 SWAP1 DUP2 DUP2 MSTORE PUSH1 0x20 ADD DUP3 DUP1 SLOAD PUSH2 0x2F4 SWAP1 PUSH2 0xF6A JUMP JUMPDEST DUP1 ISZERO PUSH2 0x33F JUMPI DUP1 PUSH1 0x1F LT PUSH2 0x316 JUMPI PUSH2 0x100 DUP1 DUP4 SLOAD DIV MUL DUP4 MSTORE SWAP2 PUSH1 0x20 ADD SWAP2 PUSH2 0x33F JUMP JUMPDEST DUP3 ADD SWAP2 SWAP1 PUSH0 MSTORE PUSH1 0x20 PUSH0 KECCAK256 SWAP1 JUMPDEST DUP2 SLOAD DUP2 MSTORE SWAP1 PUSH1 0x1 ADD SWAP1 PUSH1 0x20 ADD DUP1 DUP4 GT PUSH2 0x322 JUMPI DUP3 SWAP1 SUB PUSH1 0x1F AND DUP3 ADD SWAP2 JUMPDEST POP POP POP POP POP DUP2 MSTORE POP POP SWAP1 POP SWAP2 SWAP1 POP JUMP JUMPDEST DUP3 PUSH0 DUP2 MLOAD GT PUSH2 0x393 JUMPI PUSH1 0x40 MLOAD PUSH32 0x8C379A000000000000000000000000000000000000000000000000000000000 DUP2 MSTORE PUSH1 0x4 ADD PUSH2 0x38A SWAP1 PUSH2 0xFF4 JUMP JUMPDEST PUSH1 0x40 MLOAD DUP1 SWAP2 SUB SWAP1 REVERT JUMPDEST PUSH0 PUSH20 0xFFFFFFFFFFFFFFFFFFFFFFFFFFFFFFFFFFFFFFFF AND PUSH1 0x2 DUP3 PUSH1 0x40 MLOAD PUSH2 0x3BA SWAP2 SWAP1 PUSH2 0x104C JUMP JUMPDEST SWAP1 DUP2 MSTORE PUSH1 0x20 ADD PUSH1 0x40 MLOAD DUP1 SWAP2 SUB SWAP1 KECCAK256 PUSH0 SWAP1 SLOAD SWAP1 PUSH2 0x100 EXP SWAP1 DIV PUSH20 0xFFFFFFFFFFFFFFFFFFFFFFFFFFFFFFFFFFFFFFFF AND PUSH20 0xFFFFFFFFFFFFFFFFFFFFFFFFFFFFFFFFFFFFFFFF AND EQ PUSH2 0x43E JUMPI PUSH1 0x40 MLOAD PUSH32 0x8C379A000000000000000000000000000000000000000000000000000000000 DUP2 MSTORE PUSH1 0x4 ADD PUSH2 0x435 SWAP1 PUSH2 0x10AC JUMP JUMPDEST PUSH1 0x40 MLOAD DUP1 SWAP2 SUB SWAP1 REVERT JUMPDEST PUSH0 PUSH1 0x2 PUSH0 PUSH0 CALLER PUSH20 0xFFFFFFFFFFFFFFFFFFFFFFFFFFFFFFFFFFFFFFFF AND PUSH20 0xFFFFFFFFFFFFFFFFFFFFFFFFFFFFFFFFFFFFFFFF AND DUP2 MSTORE PUSH1 0x20 ADD SWAP1 DUP2 MSTORE PUSH1 0x20 ADD PUSH0 KECCAK256 PUSH0 ADD PUSH1 0x40 MLOAD PUSH2 0x48C SWAP2 SWAP1 PUSH2 0x115C JUMP JUMPDEST SWAP1 DUP2 MSTORE PUSH1 0x20 ADD PUSH1 0x40 MLOAD DUP1 SWAP2 SUB SWAP1 KECCAK256 PUSH0 PUSH2 0x100 EXP DUP2 SLOAD DUP2 PUSH20 0xFFFFFFFFFFFFFFFFFFFFFFFFFFFFFFFFFFFFFFFF MUL NOT AND SWAP1 DUP4 PUSH20 0xFFFFFFFFFFFFFFFFFFFFFFFFFFFFFFFFFFFFFFFF AND MUL OR SWAP1 SSTORE POP PUSH1 0x40 MLOAD DUP1 PUSH1 0x60 ADD PUSH1 0x40 MSTORE DUP1 DUP6 DUP2 MSTORE PUSH1 0x20 ADD DUP5 DUP2 MSTORE PUSH1 0x20 ADD DUP4 DUP2 MSTORE POP PUSH0 PUSH0 CALLER PUSH20 0xFFFFFFFFFFFFFFFFFFFFFFFFFFFFFFFFFFFFFFFF AND PUSH20 0xFFFFFFFFFFFFFFFFFFFFFFFFFFFFFFFFFFFFFFFF AND DUP2 MSTORE PUSH1 0x20 ADD SWAP1 DUP2 MSTORE PUSH1 0x20 ADD PUSH0 KECCAK256 PUSH0 DUP3 ADD MLOAD DUP2 PUSH0 ADD SWAP1 DUP2 PUSH2 0x541 SWAP2 SWAP1 PUSH2 0x1309 JUMP JUMPDEST POP PUSH1 0x20 DUP3 ADD MLOAD DUP2 PUSH1 0x1 ADD SWAP1 DUP2 PUSH2 0x557 SWAP2 SWAP1 PUSH2 0x1309 JUMP JUMPDEST POP PUSH1 0x40 DUP3 ADD MLOAD DUP2 PUSH1 0x2 ADD SWAP1 DUP2 PUSH2 0x56D SWAP2 SWAP1 PUSH2 0x1309 JUMP JUMPDEST POP SWAP1 POP POP CALLER PUSH1 0x2 DUP6 PUSH1 0x40 MLOAD PUSH2 0x582 SWAP2 SWAP1 PUSH2 0x104C JUMP JUMPDEST SWAP1 DUP2 MSTORE PUSH1 0x20 ADD PUSH1 0x40 MLOAD DUP1 SWAP2 SUB SWAP1 KECCAK256 PUSH0 PUSH2 0x100 EXP DUP2 SLOAD DUP2 PUSH20 0xFFFFFFFFFFFFFFFFFFFFFFFFFFFFFFFFFFFFFFFF MUL NOT AND SWAP1 DUP4 PUSH20 0xFFFFFFFFFFFFFFFFFFFFFFFFFFFFFFFFFFFFFFFF AND MUL OR SWAP1 SSTORE POP PUSH32 0x6420DAF1B58438E85465EF21DEE378D307A509CAAB491149E3F066C5CAF1266D CALLER DUP6 DUP6 DUP6 PUSH1 0x40 MLOAD PUSH2 0x602 SWAP5 SWAP4 SWAP3 SWAP2 SWAP1 PUSH2 0x141F JUMP JUMPDEST PUSH1 0x40 MLOAD DUP1 SWAP2 SUB SWAP1 LOG1 POP POP POP POP JUMP JUMPDEST PUSH1 0x60 PUSH1 0x1 DUP1 SLOAD DUP1 PUSH1 0x20 MUL PUSH1 0x20 ADD PUSH1 0x40 MLOAD SWAP1 DUP2 ADD PUSH1 0x40 MSTORE DUP1 SWAP3 SWAP2 SWAP1 DUP2 DUP2 MSTORE PUSH1 0x20 ADD DUP3 DUP1 SLOAD DUP1 ISZERO PUSH2 0x691 JUMPI PUSH1 0x20 MUL DUP3 ADD SWAP2 SWAP1 PUSH0 MSTORE PUSH1 0x20 PUSH0 KECCAK256 SWAP1 JUMPDEST DUP2 PUSH0 SWAP1 SLOAD SWAP1 PUSH2 0x100 EXP SWAP1 DIV PUSH20 0xFFFFFFFFFFFFFFFFFFFFFFFFFFFFFFFFFFFFFFFF AND PUSH20 0xFFFFFFFFFFFFFFFFFFFFFFFFFFFFFFFFFFFFFFFF AND DUP2 MSTORE PUSH1 0x20 ADD SWAP1 PUSH1 0x1 ADD SWAP1 DUP1 DUP4 GT PUSH2 0x648 JUMPI JUMPDEST POP POP POP POP POP SWAP1 POP SWAP1 JUMP JUMPDEST PUSH0 PUSH0 PUSH0 CALLER PUSH20 0xFFFFFFFFFFFFFFFFFFFFFFFFFFFFFFFFFFFFFFFF AND PUSH20 0xFFFFFFFFFFFFFFFFFFFFFFFFFFFFFFFFFFFFFFFF AND DUP2 MSTORE PUSH1 0x20 ADD SWAP1 DUP2 MSTORE PUSH1 0x20 ADD PUSH0 KECCAK256 PUSH0 ADD DUP1 SLOAD PUSH2 0x6E5 SWAP1 PUSH2 0xF6A JUMP JUMPDEST SWAP1 POP EQ PUSH2 0x727 JUMPI PUSH1 0x40 MLOAD PUSH32 0x8C379A000000000000000000000000000000000000000000000000000000000 DUP2 MSTORE PUSH1 0x4 ADD PUSH2 0x71E SWAP1 PUSH2 0x14E7 JUMP JUMPDEST PUSH1 0x40 MLOAD DUP1 SWAP2 SUB SWAP1 REVERT JUMPDEST DUP3 PUSH0 DUP2 MLOAD GT PUSH2 0x76B JUMPI PUSH1 0x40 MLOAD PUSH32 0x8C379A000000000000000000000000000000000000000000000000000000000 DUP2 MSTORE PUSH1 0x4 ADD PUSH2 0x762 SWAP1 PUSH2 0xFF4 JUMP JUMPDEST PUSH1 0x40 MLOAD DUP1 SWAP2 SUB SWAP1 REVERT JUMPDEST PUSH0 PUSH20 0xFFFFFFFFFFFFFFFFFFFFFFFFFFFFFFFFFFFFFFFF AND PUSH1 0x2 DUP3 PUSH1 0x40 MLOAD PUSH2 0x792 SWAP2 SWAP1 PUSH2 0x104C JUMP JUMPDEST SWAP1 DUP2 MSTORE PUSH1 0x20 ADD PUSH1 0x40 MLOAD DUP1 SWAP2 SUB SWAP1 KECCAK256 PUSH0 SWAP1 SLOAD SWAP1 PUSH2 0x100 EXP SWAP1 DIV PUSH20 0xFFFFFFFFFFFFFFFFFFFFFFFFFFFFFFFFFFFFFFFF AND PUSH20 0xFFFFFFFFFFFFFFFFFFFFFFFFFFFFFFFFFFFFFFFF AND EQ PUSH2 0x816 JUMPI PUSH1 0x40 MLOAD PUSH32 0x8C379A000000000000000000000000000000000000000000000000000000000 DUP2 MSTORE PUSH1 0x4 ADD PUSH2 0x80D SWAP1 PUSH2 0x10AC JUMP JUMPDEST PUSH1 0x40 MLOAD DUP1 SWAP2 SUB SWAP1 REVERT JUMPDEST PUSH1 0x40 MLOAD DUP1 PUSH1 0x60 ADD PUSH1 0x40 MSTORE DUP1 DUP6 DUP2 MSTORE PUSH1 0x20 ADD DUP5 DUP2 MSTORE PUSH1 0x20 ADD DUP4 DUP2 MSTORE POP PUSH0 PUSH0 CALLER PUSH20 0xFFFFFFFFFFFFFFFFFFFFFFFFFFFFFFFFFFFFFFFF AND PUSH20 0xFFFFFFFFFFFFFFFFFFFFFFFFFFFFFFFFFFFFFFFF AND DUP2 MSTORE PUSH1 0x20 ADD SWAP1 DUP2 MSTORE PUSH1 0x20 ADD PUSH0 KECCAK256 PUSH0 DUP3 ADD MLOAD DUP2 PUSH0 ADD SWAP1 DUP2 PUSH2 0x880 SWAP2 SWAP1 PUSH2 0x1309 JUMP JUMPDEST POP PUSH1 0x20 DUP3 ADD MLOAD DUP2 PUSH1 0x1 ADD SWAP1 DUP2 PUSH2 0x896 SWAP2 SWAP1 PUSH2 0x1309 JUMP JUMPDEST POP PUSH1 0x40 DUP3 ADD MLOAD DUP2 PUSH1 0x2 ADD SWAP1 DUP2 PUSH2 0x8AC SWAP2 SWAP1 PUSH2 0x1309 JUMP JUMPDEST POP SWAP1 POP POP PUSH1 0x1 CALLER SWAP1 DUP1 PUSH1 0x1 DUP2 SLOAD ADD DUP1 DUP3 SSTORE DUP1 SWAP2 POP POP PUSH1 0x1 SWAP1 SUB SWAP1 PUSH0 MSTORE PUSH1 0x20 PUSH0 KECCAK256 ADD PUSH0 SWAP1 SWAP2 SWAP1 SWAP2 SWAP1 SWAP2 PUSH2 0x100 EXP DUP2 SLOAD DUP2 PUSH20 0xFFFFFFFFFFFFFFFFFFFFFFFFFFFFFFFFFFFFFFFF MUL NOT AND SWAP1 DUP4 PUSH20 0xFFFFFFFFFFFFFFFFFFFFFFFFFFFFFFFFFFFFFFFF AND MUL OR SWAP1 SSTORE POP CALLER PUSH1 0x2 DUP6 PUSH1 0x40 MLOAD PUSH2 0x921 SWAP2 SWAP1 PUSH2 0x104C JUMP JUMPDEST SWAP1 DUP2 MSTORE PUSH1 0x20 ADD PUSH1 0x40 MLOAD DUP1 SWAP2 SUB SWAP1 KECCAK256 PUSH0 PUSH2 0x100 EXP DUP2 SLOAD DUP2 PUSH20 0xFFFFFFFFFFFFFFFFFFFFFFFFFFFFFFFFFFFFFFFF MUL NOT AND SWAP1 DUP4 PUSH20 0xFFFFFFFFFFFFFFFFFFFFFFFFFFFFFFFFFFFFFFFF AND MUL OR SWAP1 SSTORE POP PUSH32 0x77C378673324822AD159B021C3CE202D7676946FF3967162024B660A493E64B3 CALLER DUP6 DUP6 DUP6 PUSH1 0x40 MLOAD PUSH2 0x9A1 SWAP5 SWAP4 SWAP3 SWAP2 SWAP1 PUSH2 0x141F JUMP JUMPDEST PUSH1 0x40 MLOAD DUP1 SWAP2 SUB SWAP1 LOG1 POP POP POP POP JUMP JUMPDEST PUSH0 PUSH0 PUSH20 0xFFFFFFFFFFFFFFFFFFFFFFFFFFFFFFFFFFFFFFFF AND PUSH1 0x2 DUP4 PUSH1 0x40 MLOAD PUSH2 0x9D7 SWAP2 SWAP1 PUSH2 0x104C JUMP JUMPDEST SWAP1 DUP2 MSTORE PUSH1 0x20 ADD PUSH1 0x40 MLOAD DUP1 SWAP2 SUB SWAP1 KECCAK256 PUSH0 SWAP1 SLOAD SWAP1 PUSH2 0x100 EXP SWAP1 DIV PUSH20 0xFFFFFFFFFFFFFFFFFFFFFFFFFFFFFFFFFFFFFFFF AND PUSH20 0xFFFFFFFFFFFFFFFFFFFFFFFFFFFFFFFFFFFFFFFF AND EQ ISZERO SWAP1 POP SWAP2 SWAP1 POP JUMP JUMPDEST PUSH0 PUSH0 PUSH0 PUSH0 DUP5 PUSH20 0xFFFFFFFFFFFFFFFFFFFFFFFFFFFFFFFFFFFFFFFF AND PUSH20 0xFFFFFFFFFFFFFFFFFFFFFFFFFFFFFFFFFFFFFFFF AND DUP2 MSTORE PUSH1 0x20 ADD SWAP1 DUP2 MSTORE PUSH1 0x20 ADD PUSH0 KECCAK256 PUSH0 ADD DUP1 SLOAD PUSH2 0xA6F SWAP1 PUSH2 0xF6A JUMP JUMPDEST SWAP1 POP EQ ISZERO SWAP1 POP SWAP2 SWAP1 POP JUMP JUMPDEST PUSH1 0x40 MLOAD DUP1 PUSH1 0x60 ADD PUSH1 0x40 MSTORE DUP1 PUSH1 0x60 DUP2 MSTORE PUSH1 0x20 ADD PUSH1 0x60 DUP2 MSTORE PUSH1 0x20 ADD PUSH1 0x60 DUP2 MSTORE POP SWAP1 JUMP JUMPDEST PUSH0 PUSH1 0x40 MLOAD SWAP1 POP SWAP1 JUMP JUMPDEST PUSH0 PUSH0 REVERT JUMPDEST PUSH0 PUSH0 REVERT JUMPDEST PUSH0 PUSH20 0xFFFFFFFFFFFFFFFFFFFFFFFFFFFFFFFFFFFFFFFF DUP3 AND SWAP1 POP SWAP2 SWAP1 POP JUMP JUMPDEST PUSH0 PUSH2 0xAD5 DUP3 PUSH2 0xAAC JUMP JUMPDEST SWAP1 POP SWAP2 SWAP1 POP JUMP JUMPDEST PUSH2 0xAE5 DUP2 PUSH2 0xACB JUMP JUMPDEST DUP2 EQ PUSH2 0xAEF JUMPI PUSH0 PUSH0 REVERT JUMPDEST POP JUMP JUMPDEST PUSH0 DUP2 CALLDATALOAD SWAP1 POP PUSH2 0xB00 DUP2 PUSH2 0xADC JUMP JUMPDEST SWAP3 SWAP2 POP POP JUMP JUMPDEST PUSH0 PUSH1 0x20 DUP3 DUP5 SUB SLT ISZERO PUSH2 0xB1B JUMPI PUSH2 0xB1A PUSH2 0xAA4 JUMP JUMPDEST JUMPDEST PUSH0 PUSH2 0xB28 DUP5 DUP3 DUP6 ADD PUSH2 0xAF2 JUMP JUMPDEST SWAP2 POP POP SWAP3 SWAP2 POP POP JUMP JUMPDEST PUSH0 DUP2 MLOAD SWAP1 POP SWAP2 SWAP1 POP JUMP JUMPDEST PUSH0 DUP3 DUP3 MSTORE PUSH1 0x20 DUP3 ADD SWAP1 POP SWAP3 SWAP2 POP POP JUMP JUMPDEST DUP3 DUP2 DUP4 MCOPY PUSH0 DUP4 DUP4 ADD MSTORE POP POP POP JUMP JUMPDEST PUSH0 PUSH1 0x1F NOT PUSH1 0x1F DUP4 ADD AND SWAP1 POP SWAP2 SWAP1 POP JUMP JUMPDEST PUSH0 PUSH2 0xB73 DUP3 PUSH2 0xB31 JUMP JUMPDEST PUSH2 0xB7D DUP2 DUP6 PUSH2 0xB3B JUMP JUMPDEST SWAP4 POP PUSH2 0xB8D DUP2 DUP6 PUSH1 0x20 DUP7 ADD PUSH2 0xB4B JUMP JUMPDEST PUSH2 0xB96 DUP2 PUSH2 0xB59 JUMP JUMPDEST DUP5 ADD SWAP2 POP POP SWAP3 SWAP2 POP POP JUMP JUMPDEST PUSH0 PUSH1 0x60 DUP4 ADD PUSH0 DUP4 ADD MLOAD DUP5 DUP3 SUB PUSH0 DUP7 ADD MSTORE PUSH2 0xBBB DUP3 DUP3 PUSH2 0xB69 JUMP JUMPDEST SWAP2 POP POP PUSH1 0x20 DUP4 ADD MLOAD DUP5 DUP3 SUB PUSH1 0x20 DUP7 ADD MSTORE PUSH2 0xBD5 DUP3 DUP3 PUSH2 0xB69 JUMP JUMPDEST SWAP2 POP POP PUSH1 0x40 DUP4 ADD MLOAD DUP5 DUP3 SUB PUSH1 0x40 DUP7 ADD MSTORE PUSH2 0xBEF DUP3 DUP3 PUSH2 0xB69 JUMP JUMPDEST SWAP2 POP POP DUP1 SWAP2 POP POP SWAP3 SWAP2 POP POP JUMP JUMPDEST PUSH0 PUSH1 0x20 DUP3 ADD SWAP1 POP DUP2 DUP2 SUB PUSH0 DUP4 ADD MSTORE PUSH2 0xC14 DUP2 DUP5 PUSH2 0xBA1 JUMP JUMPDEST SWAP1 POP SWAP3 SWAP2 POP POP JUMP JUMPDEST PUSH0 PUSH0 REVERT JUMPDEST PUSH0 PUSH0 REVERT JUMPDEST PUSH32 0x4E487B7100000000000000000000000000000000000000000000000000000000 PUSH0 MSTORE PUSH1 0x41 PUSH1 0x4 MSTORE PUSH1 0x24 PUSH0 REVERT JUMPDEST PUSH2 0xC5A DUP3 PUSH2 0xB59 JUMP JUMPDEST DUP2 ADD DUP2 DUP2 LT PUSH8 0xFFFFFFFFFFFFFFFF DUP3 GT OR ISZERO PUSH2 0xC79 JUMPI PUSH2 0xC78 PUSH2 0xC24 JUMP JUMPDEST JUMPDEST DUP1 PUSH1 0x40 MSTORE POP POP POP JUMP JUMPDEST PUSH0 PUSH2 0xC8B PUSH2 0xA9B JUMP JUMPDEST SWAP1 POP PUSH2 0xC97 DUP3 DUP3 PUSH2 0xC51 JUMP JUMPDEST SWAP2 SWAP1 POP JUMP JUMPDEST PUSH0 PUSH8 0xFFFFFFFFFFFFFFFF DUP3 GT ISZERO PUSH2 0xCB6 JUMPI PUSH2 0xCB5 PUSH2 0xC24 JUMP JUMPDEST JUMPDEST PUSH2 0xCBF DUP3 PUSH2 0xB59 JUMP JUMPDEST SWAP1 POP PUSH1 0x20 DUP2 ADD SWAP1 POP SWAP2 SWAP1 POP JUMP JUMPDEST DUP3 DUP2 DUP4 CALLDATACOPY PUSH0 DUP4 DUP4 ADD MSTORE POP POP POP JUMP JUMPDEST PUSH0 PUSH2 0xCEC PUSH2 0xCE7 DUP5 PUSH2 0xC9C JUMP JUMPDEST PUSH2 0xC82 JUMP JUMPDEST SWAP1 POP DUP3 DUP2 MSTORE PUSH1 0x20 DUP2 ADD DUP5 DUP5 DUP5 ADD GT ISZERO PUSH2 0xD08 JUMPI PUSH2 0xD07 PUSH2 0xC20 JUMP JUMPDEST JUMPDEST PUSH2 0xD13 DUP5 DUP3 DUP6 PUSH2 0xCCC JUMP JUMPDEST POP SWAP4 SWAP3 POP POP POP JUMP JUMPDEST PUSH0 DUP3 PUSH1 0x1F DUP4 ADD SLT PUSH2 0xD2F JUMPI PUSH2 0xD2E PUSH2 0xC1C JUMP JUMPDEST JUMPDEST DUP2 CALLDATALOAD PUSH2 0xD3F DUP5 DUP3 PUSH1 0x20 DUP7 ADD PUSH2 0xCDA JUMP JUMPDEST SWAP2 POP POP SWAP3 SWAP2 POP POP JUMP JUMPDEST PUSH0 PUSH0 PUSH0 PUSH1 0x60 DUP5 DUP7 SUB SLT ISZERO PUSH2 0xD5F JUMPI PUSH2 0xD5E PUSH2 0xAA4 JUMP JUMPDEST JUMPDEST PUSH0 DUP5 ADD CALLDATALOAD PUSH8 0xFFFFFFFFFFFFFFFF DUP2 GT ISZERO PUSH2 0xD7C JUMPI PUSH2 0xD7B PUSH2 0xAA8 JUMP JUMPDEST JUMPDEST PUSH2 0xD88 DUP7 DUP3 DUP8 ADD PUSH2 0xD1B JUMP JUMPDEST SWAP4 POP POP PUSH1 0x20 DUP5 ADD CALLDATALOAD PUSH8 0xFFFFFFFFFFFFFFFF DUP2 GT ISZERO PUSH2 0xDA9 JUMPI PUSH2 0xDA8 PUSH2 0xAA8 JUMP JUMPDEST JUMPDEST PUSH2 0xDB5 DUP7 DUP3 DUP8 ADD PUSH2 0xD1B JUMP JUMPDEST SWAP3 POP POP PUSH1 0x40 DUP5 ADD CALLDATALOAD PUSH8 0xFFFFFFFFFFFFFFFF DUP2 GT ISZERO PUSH2 0xDD6 JUMPI PUSH2 0xDD5 PUSH2 0xAA8 JUMP JUMPDEST JUMPDEST PUSH2 0xDE2 DUP7 DUP3 DUP8 ADD PUSH2 0xD1B JUMP JUMPDEST SWAP2 POP POP SWAP3 POP SWAP3 POP SWAP3 JUMP JUMPDEST PUSH0 DUP2 MLOAD SWAP1 POP SWAP2 SWAP1 POP JUMP JUMPDEST PUSH0 DUP3 DUP3 MSTORE PUSH1 0x20 DUP3 ADD SWAP1 POP SWAP3 SWAP2 POP POP JUMP JUMPDEST PUSH0 DUP2 SWAP1 POP PUSH1 0x20 DUP3 ADD SWAP1 POP SWAP2 SWAP1 POP JUMP JUMPDEST PUSH2 0xE1E DUP2 PUSH2 0xACB JUMP JUMPDEST DUP3 MSTORE POP POP JUMP JUMPDEST PUSH0 PUSH2 0xE2F DUP4 DUP4 PUSH2 0xE15 JUMP JUMPDEST PUSH1 0x20 DUP4 ADD SWAP1 POP SWAP3 SWAP2 POP POP JUMP JUMPDEST PUSH0 PUSH1 0x20 DUP3 ADD SWAP1 POP SWAP2 SWAP1 POP JUMP JUMPDEST PUSH0 PUSH2 0xE51 DUP3 PUSH2 0xDEC JUMP JUMPDEST PUSH2 0xE5B DUP2 DUP6 PUSH2 0xDF6 JUMP JUMPDEST SWAP4 POP PUSH2 0xE66 DUP4 PUSH2 0xE06 JUMP JUMPDEST DUP1 PUSH0 JUMPDEST DUP4 DUP2 LT ISZERO PUSH2 0xE96 JUMPI DUP2 MLOAD PUSH2 0xE7D DUP9 DUP3 PUSH2 0xE24 JUMP JUMPDEST SWAP8 POP PUSH2 0xE88 DUP4 PUSH2 0xE3B JUMP JUMPDEST SWAP3 POP POP PUSH1 0x1 DUP2 ADD SWAP1 POP PUSH2 0xE69 JUMP JUMPDEST POP DUP6 SWAP4 POP POP POP POP SWAP3 SWAP2 POP POP JUMP JUMPDEST PUSH0 PUSH1 0x20 DUP3 ADD SWAP1 POP DUP2 DUP2 SUB PUSH0 DUP4 ADD MSTORE PUSH2 0xEBB DUP2 DUP5 PUSH2 0xE47 JUMP JUMPDEST SWAP1 POP SWAP3 SWAP2 POP POP JUMP JUMPDEST PUSH0 PUSH1 0x20 DUP3 DUP5 SUB SLT ISZERO PUSH2 0xED8 JUMPI PUSH2 0xED7 PUSH2 0xAA4 JUMP JUMPDEST JUMPDEST PUSH0 DUP3 ADD CALLDATALOAD PUSH8 0xFFFFFFFFFFFFFFFF DUP2 GT ISZERO PUSH2 0xEF5 JUMPI PUSH2 0xEF4 PUSH2 0xAA8 JUMP JUMPDEST JUMPDEST PUSH2 0xF01 DUP5 DUP3 DUP6 ADD PUSH2 0xD1B JUMP JUMPDEST SWAP2 POP POP SWAP3 SWAP2 POP POP JUMP JUMPDEST PUSH0 DUP2 ISZERO ISZERO SWAP1 POP SWAP2 SWAP1 POP JUMP JUMPDEST PUSH2 0xF1E DUP2 PUSH2 0xF0A JUMP JUMPDEST DUP3 MSTORE POP POP JUMP JUMPDEST PUSH0 PUSH1 0x20 DUP3 ADD SWAP1 POP PUSH2 0xF37 PUSH0 DUP4 ADD DUP5 PUSH2 0xF15 JUMP JUMPDEST SWAP3 SWAP2 POP POP JUMP JUMPDEST PUSH32 0x4E487B7100000000000000000000000000000000000000000000000000000000 PUSH0 MSTORE PUSH1 0x22 PUSH1 0x4 MSTORE PUSH1 0x24 PUSH0 REVERT JUMPDEST PUSH0 PUSH1 0x2 DUP3 DIV SWAP1 POP PUSH1 0x1 DUP3 AND DUP1 PUSH2 0xF81 JUMPI PUSH1 0x7F DUP3 AND SWAP2 POP JUMPDEST PUSH1 0x20 DUP3 LT DUP2 SUB PUSH2 0xF94 JUMPI PUSH2 0xF93 PUSH2 0xF3D JUMP JUMPDEST JUMPDEST POP SWAP2 SWAP1 POP JUMP JUMPDEST PUSH0 DUP3 DUP3 MSTORE PUSH1 0x20 DUP3 ADD SWAP1 POP SWAP3 SWAP2 POP POP JUMP JUMPDEST PUSH32 0x557365726E616D65206973207265717569726564000000000000000000000000 PUSH0 DUP3 ADD MSTORE POP JUMP JUMPDEST PUSH0 PUSH2 0xFDE PUSH1 0x14 DUP4 PUSH2 0xF9A JUMP JUMPDEST SWAP2 POP PUSH2 0xFE9 DUP3 PUSH2 0xFAA JUMP JUMPDEST PUSH1 0x20 DUP3 ADD SWAP1 POP SWAP2 SWAP1 POP JUMP JUMPDEST PUSH0 PUSH1 0x20 DUP3 ADD SWAP1 POP DUP2 DUP2 SUB PUSH0 DUP4 ADD MSTORE PUSH2 0x100B DUP2 PUSH2 0xFD2 JUMP JUMPDEST SWAP1 POP SWAP2 SWAP1 POP JUMP JUMPDEST PUSH0 DUP2 SWAP1 POP SWAP3 SWAP2 POP POP JUMP JUMPDEST PUSH0 PUSH2 0x1026 DUP3 PUSH2 0xB31 JUMP JUMPDEST PUSH2 0x1030 DUP2 DUP6 PUSH2 0x1012 JUMP JUMPDEST SWAP4 POP PUSH2 0x1040 DUP2 DUP6 PUSH1 0x20 DUP7 ADD PUSH2 0xB4B JUMP JUMPDEST DUP1 DUP5 ADD SWAP2 POP POP SWAP3 SWAP2 POP POP JUMP JUMPDEST PUSH0 PUSH2 0x1057 DUP3 DUP5 PUSH2 0x101C JUMP JUMPDEST SWAP2 POP DUP2 SWAP1 POP SWAP3 SWAP2 POP POP JUMP JUMPDEST PUSH32 0x557365726E616D652069732074616B656E000000000000000000000000000000 PUSH0 DUP3 ADD MSTORE POP JUMP JUMPDEST PUSH0 PUSH2 0x1096 PUSH1 0x11 DUP4 PUSH2 0xF9A JUMP JUMPDEST SWAP2 POP PUSH2 0x10A1 DUP3 PUSH2 0x1062 JUMP JUMPDEST PUSH1 0x20 DUP3 ADD SWAP1 POP SWAP2 SWAP1 POP JUMP JUMPDEST PUSH0 PUSH1 0x20 DUP3 ADD SWAP1 POP DUP2 DUP2 SUB PUSH0 DUP4 ADD MSTORE PUSH2 0x10C3 DUP2 PUSH2 0x108A JUMP JUMPDEST SWAP1 POP SWAP2 SWAP1 POP JUMP JUMPDEST PUSH0 DUP2 SWAP1 POP DUP2 PUSH0 MSTORE PUSH1 0x20 PUSH0 KECCAK256 SWAP1 POP SWAP2 SWAP1 POP JUMP JUMPDEST PUSH0 DUP2 SLOAD PUSH2 0x10E8 DUP2 PUSH2 0xF6A JUMP JUMPDEST PUSH2 0x10F2 DUP2 DUP7 PUSH2 0x1012 JUMP JUMPDEST SWAP5 POP PUSH1 0x1 DUP3 AND PUSH0 DUP2 EQ PUSH2 0x110C JUMPI PUSH1 0x1 DUP2 EQ PUSH2 0x1121 JUMPI PUSH2 0x1153 JUMP JUMPDEST PUSH1 0xFF NOT DUP4 AND DUP7 MSTORE DUP2 ISZERO ISZERO DUP3 MUL DUP7 ADD SWAP4 POP PUSH2 0x1153 JUMP JUMPDEST PUSH2 0x112A DUP6 PUSH2 0x10CA JUMP JUMPDEST PUSH0 JUMPDEST DUP4 DUP2 LT ISZERO PUSH2 0x114B JUMPI DUP2 SLOAD DUP2 DUP10 ADD MSTORE PUSH1 0x1 DUP3 ADD SWAP2 POP PUSH1 0x20 DUP2 ADD SWAP1 POP PUSH2 0x112C JUMP JUMPDEST DUP4 DUP9 ADD SWAP6 POP POP POP JUMPDEST POP POP POP SWAP3 SWAP2 POP POP JUMP JUMPDEST PUSH0 PUSH2 0x1167 DUP3 DUP5 PUSH2 0x10DC JUMP JUMPDEST SWAP2 POP DUP2 SWAP1 POP SWAP3 SWAP2 POP POP JUMP JUMPDEST PUSH0 PUSH1 0x20 PUSH1 0x1F DUP4 ADD DIV SWAP1 POP SWAP2 SWAP1 POP JUMP JUMPDEST PUSH0 DUP3 DUP3 SHL SWAP1 POP SWAP3 SWAP2 POP POP JUMP JUMPDEST PUSH0 PUSH1 0x8 DUP4 MUL PUSH2 0x11BC PUSH32 0xFFFFFFFFFFFFFFFFFFFFFFFFFFFFFFFFFFFFFFFFFFFFFFFFFFFFFFFFFFFFFFFF DUP3 PUSH2 0x1181 JUMP JUMPDEST PUSH2 0x11C6 DUP7 DUP4 PUSH2 0x1181 JUMP JUMPDEST SWAP6 POP DUP1 NOT DUP5 AND SWAP4 POP DUP1 DUP7 AND DUP5 OR SWAP3 POP POP POP SWAP4 SWAP3 POP POP POP JUMP JUMPDEST PUSH0 DUP2 SWAP1 POP SWAP2 SWAP1 POP JUMP JUMPDEST PUSH0 DUP2 SWAP1 POP SWAP2 SWAP1 POP JUMP JUMPDEST PUSH0 PUSH2 0x120A PUSH2 0x1205 PUSH2 0x1200 DUP5 PUSH2 0x11DE JUMP JUMPDEST PUSH2 0x11E7 JUMP JUMPDEST PUSH2 0x11DE JUMP JUMPDEST SWAP1 POP SWAP2 SWAP1 POP JUMP JUMPDEST PUSH0 DUP2 SWAP1 POP SWAP2 SWAP1 POP JUMP JUMPDEST PUSH2 0x1223 DUP4 PUSH2 0x11F0 JUMP JUMPDEST PUSH2 0x1237 PUSH2 0x122F DUP3 PUSH2 0x1211 JUMP JUMPDEST DUP5 DUP5 SLOAD PUSH2 0x118D JUMP JUMPDEST DUP3 SSTORE POP POP POP POP JUMP JUMPDEST PUSH0 PUSH0 SWAP1 POP SWAP1 JUMP JUMPDEST PUSH2 0x124E PUSH2 0x123F JUMP JUMPDEST PUSH2 0x1259 DUP2 DUP5 DUP5 PUSH2 0x121A JUMP JUMPDEST POP POP POP JUMP JUMPDEST JUMPDEST DUP2 DUP2 LT ISZERO PUSH2 0x127C JUMPI PUSH2 0x1271 PUSH0 DUP3 PUSH2 0x1246 JUMP JUMPDEST PUSH1 0x1 DUP2 ADD SWAP1 POP PUSH2 0x125F JUMP JUMPDEST POP POP JUMP JUMPDEST PUSH1 0x1F DUP3 GT ISZERO PUSH2 0x12C1 JUMPI PUSH2 0x1292 DUP2 PUSH2 0x10CA JUMP JUMPDEST PUSH2 0x129B DUP5 PUSH2 0x1172 JUMP JUMPDEST DUP2 ADD PUSH1 0x20 DUP6 LT ISZERO PUSH2 0x12AA JUMPI DUP2 SWAP1 POP JUMPDEST PUSH2 0x12BE PUSH2 0x12B6 DUP6 PUSH2 0x1172 JUMP JUMPDEST DUP4 ADD DUP3 PUSH2 0x125E JUMP JUMPDEST POP POP JUMPDEST POP POP POP JUMP JUMPDEST PUSH0 DUP3 DUP3 SHR SWAP1 POP SWAP3 SWAP2 POP POP JUMP JUMPDEST PUSH0 PUSH2 0x12E1 PUSH0 NOT DUP5 PUSH1 0x8 MUL PUSH2 0x12C6 JUMP JUMPDEST NOT DUP1 DUP4 AND SWAP2 POP POP SWAP3 SWAP2 POP POP JUMP JUMPDEST PUSH0 PUSH2 0x12F9 DUP4 DUP4 PUSH2 0x12D2 JUMP JUMPDEST SWAP2 POP DUP3 PUSH1 0x2 MUL DUP3 OR SWAP1 POP SWAP3 SWAP2 POP POP JUMP JUMPDEST PUSH2 0x1312 DUP3 PUSH2 0xB31 JUMP JUMPDEST PUSH8 0xFFFFFFFFFFFFFFFF DUP2 GT ISZERO PUSH2 0x132B JUMPI PUSH2 0x132A PUSH2 0xC24 JUMP JUMPDEST JUMPDEST PUSH2 0x1335 DUP3 SLOAD PUSH2 0xF6A JUMP JUMPDEST PUSH2 0x1340 DUP3 DUP3 DUP6 PUSH2 0x1280 JUMP JUMPDEST PUSH0 PUSH1 0x20 SWAP1 POP PUSH1 0x1F DUP4 GT PUSH1 0x1 DUP2 EQ PUSH2 0x1371 JUMPI PUSH0 DUP5 ISZERO PUSH2 0x135F JUMPI DUP3 DUP8 ADD MLOAD SWAP1 POP JUMPDEST PUSH2 0x1369 DUP6 DUP3 PUSH2 0x12EE JUMP JUMPDEST DUP7 SSTORE POP PUSH2 0x13D0 JUMP JUMPDEST PUSH1 0x1F NOT DUP5 AND PUSH2 0x137F DUP7 PUSH2 0x10CA JUMP JUMPDEST PUSH0 JUMPDEST DUP3 DUP2 LT ISZERO PUSH2 0x13A6 JUMPI DUP5 DUP10 ADD MLOAD DUP3 SSTORE PUSH1 0x1 DUP3 ADD SWAP2 POP PUSH1 0x20 DUP6 ADD SWAP5 POP PUSH1 0x20 DUP2 ADD SWAP1 POP PUSH2 0x1381 JUMP JUMPDEST DUP7 DUP4 LT ISZERO PUSH2 0x13C3 JUMPI DUP5 DUP10 ADD MLOAD PUSH2 0x13BF PUSH1 0x1F DUP10 AND DUP3 PUSH2 0x12D2 JUMP JUMPDEST DUP4 SSTORE POP JUMPDEST PUSH1 0x1 PUSH1 0x2 DUP9 MUL ADD DUP9 SSTORE POP POP POP JUMPDEST POP POP POP POP POP POP JUMP JUMPDEST PUSH2 0x13E1 DUP2 PUSH2 0xACB JUMP JUMPDEST DUP3 MSTORE POP POP JUMP JUMPDEST PUSH0 PUSH2 0x13F1 DUP3 PUSH2 0xB31 JUMP JUMPDEST PUSH2 0x13FB DUP2 DUP6 PUSH2 0xF9A JUMP JUMPDEST SWAP4 POP PUSH2 0x140B DUP2 DUP6 PUSH1 0x20 DUP7 ADD PUSH2 0xB4B JUMP JUMPDEST PUSH2 0x1414 DUP2 PUSH2 0xB59 JUMP JUMPDEST DUP5 ADD SWAP2 POP POP SWAP3 SWAP2 POP POP JUMP JUMPDEST PUSH0 PUSH1 0x80 DUP3 ADD SWAP1 POP PUSH2 0x1432 PUSH0 DUP4 ADD DUP8 PUSH2 0x13D8 JUMP JUMPDEST DUP2 DUP2 SUB PUSH1 0x20 DUP4 ADD MSTORE PUSH2 0x1444 DUP2 DUP7 PUSH2 0x13E7 JUMP JUMPDEST SWAP1 POP DUP2 DUP2 SUB PUSH1 0x40 DUP4 ADD MSTORE PUSH2 0x1458 DUP2 DUP6 PUSH2 0x13E7 JUMP JUMPDEST SWAP1 POP DUP2 DUP2 SUB PUSH1 0x60 DUP4 ADD MSTORE PUSH2 0x146C DUP2 DUP5 PUSH2 0x13E7 JUMP JUMPDEST SWAP1 POP SWAP6 SWAP5 POP POP POP POP POP JUMP JUMPDEST PUSH32 0x50726F66696C6520616C72656164792065786973747320666F72207468697320 PUSH0 DUP3 ADD MSTORE PUSH32 0x6164647265737300000000000000000000000000000000000000000000000000 PUSH1 0x20 DUP3 ADD MSTORE POP JUMP JUMPDEST PUSH0 PUSH2 0x14D1 PUSH1 0x27 DUP4 PUSH2 0xF9A JUMP JUMPDEST SWAP2 POP PUSH2 0x14DC DUP3 PUSH2 0x1477 JUMP JUMPDEST PUSH1 0x40 DUP3 ADD SWAP1 POP SWAP2 SWAP1 POP JUMP JUMPDEST PUSH0 PUSH1 0x20 DUP3 ADD SWAP1 POP DUP2 DUP2 SUB PUSH0 DUP4 ADD MSTORE PUSH2 0x14FE DUP2 PUSH2 0x14C5 JUMP JUMPDEST SWAP1 POP SWAP2 SWAP1 POP JUMP INVALID LOG2 PUSH5 0x6970667358 0x22 SLT KECCAK256 0xB6 DUP16 BLOBBASEFEE SWAP16 0xCD SWAP2 KECCAK256 INVALID PUSH12 0xE13ED2FAC7705BD3D294765A INVALID LOG2 0xC3 0xB0 0xF7 SDIV 0xC4 0xD3 SHL SSTORE SUB PUSH5 0x736F6C6343 STOP ADDMOD SHL STOP CALLER "
				},
				"gasEstimates": {
					"creation": {
						"codeDepositCost": "1087000",
						"executionCost": "1125",
						"totalCost": "1088125"
					},
					"external": {
						"createNewProfile(string,string,string)": "infinite",
						"editProfile(string,string,string)": "infinite",
						"existsUser(address)": "3067",
						"existsUser(string)": "infinite",
						"getAllUsersAddrs()": "infinite",
						"getProfile(address)": "infinite"
					}
				},
				"methodIdentifiers": {
					"createNewProfile(string,string,string)": "8747e97b",
					"editProfile(string,string,string)": "1ebd72ed",
					"existsUser(address)": "f409e87d",
					"existsUser(string)": "ee70746c",
					"getAllUsersAddrs()": "336b4540",
					"getProfile(address)": "0f53a470"
				}
			},
			"storageLayout": {
				"storage": [
					{
						"astId": 20,
						"contract": "server/contracts/UserProfile.sol:UserProfile",
						"label": "profiles",
						"offset": 0,
						"slot": "0",
						"type": "t_mapping(t_address,t_struct(Profile)15_storage)"
					},
					{
						"astId": 23,
						"contract": "server/contracts/UserProfile.sol:UserProfile",
						"label": "userAddresses",
						"offset": 0,
						"slot": "1",
						"type": "t_array(t_address)dyn_storage"
					},
					{
						"astId": 27,
						"contract": "server/contracts/UserProfile.sol:UserProfile",
						"label": "usernames",
						"offset": 0,
						"slot": "2",
						"type": "t_mapping(t_string_memory_ptr,t_address)"
					}
				],
				"types": {
					"t_address": {
						"encoding": "inplace",
						"label": "address",
						"numberOfBytes": "20"
					},
					"t_array(t_address)dyn_storage": {
						"base": "t_address",
						"encoding": "dynamic_array",
						"label": "address[]",
						"numberOfBytes": "32"
					},
					"t_mapping(t_address,t_struct(Profile)15_storage)": {
						"encoding": "mapping",
						"key": "t_address",
						"label": "mapping(address => struct UserProfile.Profile)",
						"numberOfBytes": "32",
						"value": "t_struct(Profile)15_storage"
					},
					"t_mapping(t_string_memory_ptr,t_address)": {
						"encoding": "mapping",
						"key": "t_string_memory_ptr",
						"label": "mapping(string => address)",
						"numberOfBytes": "32",
						"value": "t_address"
					},
					"t_string_memory_ptr": {
						"encoding": "bytes",
						"label": "string",
						"numberOfBytes": "32"
					},
					"t_string_storage": {
						"encoding": "bytes",
						"label": "string",
						"numberOfBytes": "32"
					},
					"t_struct(Profile)15_storage": {
						"encoding": "inplace",
						"label": "struct UserProfile.Profile",
						"members": [
							{
								"astId": 10,
								"contract": "server/contracts/UserProfile.sol:UserProfile",
								"label": "username",
								"offset": 0,
								"slot": "0",
								"type": "t_string_storage"
							},
							{
								"astId": 12,
								"contract": "server/contracts/UserProfile.sol:UserProfile",
								"label": "bio",
								"offset": 0,
								"slot": "1",
								"type": "t_string_storage"
							},
							{
								"astId": 14,
								"contract": "server/contracts/UserProfile.sol:UserProfile",
								"label": "profilePictureURI",
								"offset": 0,
								"slot": "2",
								"type": "t_string_storage"
							}
						],
						"numberOfBytes": "96"
					}
				}
			},
			"userdoc": {
				"kind": "user",
				"methods": {},
				"version": 1
			}
		}
	}
}